:020000040800F2
:10000000E0C600201502000835640008211A000827
:100010003164000809070008559800080000000036
:100020000000000000000000000000007D890008C2
:10003000A5140008000000006D660008B9920008D1
:100040002F0200082F0200082F0200082F020008CC
:100050002F0200082F0200082F0200082F020008BC
:100060002F0200082F0200082F0200082F020008AC
:100070002F0200082F0200082F0200082F0200089C
:100080002F0200082F0200082F0200082F0200088C
:10009000559700082F0200082F0200082F020008C1
:1000A0002F0200082F0200082F0200082F0200086C
:1000B0002F0200082F0200082F0200082F0200085C
:1000C0002F0200082F0200082F0200082F0200084C
:1000D0002F020008559300082F0200082F02000885
:1000E0002F0200082F020008779500082F02000851
:1000F0002F0200082F0200082F0200082F0200081C
:100100002F020008197000082F0200082F020008B3
:100110002F0200082F0200082F0200082F020008FB
:100120002F0200082F0200082F0200082F020008EB
:1001300000F002F800F05FF80AA090E8000C82449A
:100140008344AAF10107DA4501D100F054F8AFF277
:10015000090EBAE80F0013F0010F18BFFB1A43F0A5
:10016000010318471CBE00003CBE00000A444FF0CB
:10017000000C10F8013B13F0070408BF10F8014B06
:100180001D1108BF10F8015B641E05D010F8016B4B
:10019000641E01F8016BF9D113F0080F1EBF10F8AF
:1001A000014BAD1C0C1B09D16D1E58BF01F801CBD2
:1001B000FAD505E014F8016B01F8016B6D1EF9D555
:1001C0009142D6D37047000000230024002500266A
:1001D000103A28BF78C1FBD8520728BF30C148BFAA
:1001E0000B607047782900F01181002070471FB51F
:1001F0001FBD10B510BD00F037FA1146FFF7F7FF2D
:1002000009F00AFE00F055FA03B4FFF7F2FF03BC51
:1002100009F07AFD0948804709480047FEE7FEE7F4
:10022000FEE7FEE7FEE7FEE7FEE7FEE7FEE7FEE7A6
:1002300004480549054A064B70470000BD92000876
:1002400031010008E0C00020E0C60020E0C200202C
:10025000E0C20020704753EA020C00F069802DE9EB
:10026000F04B4FF00006002B1FBFB3FA83F503FAE3
:1002700005F424FA05F65E4012BF1643B2FA82F581
:1002800002FA05F4C5F120051EBF22FA05FC44EA76
:100290000C04203556EA044C4FEA144418BF641C81
:1002A0004FF000084FF00009904271EB030C39D376
:1002B000002919BFB1FA81F701FA07F6B0FA80F701
:1002C00000FA07F6C7F120071EBF20FA07FC46EA2E
:1002D0000C062037B6FBF4FCA7EB0507103F07F030
:1002E0001F0BCBF120060CFA0BFB2CFA06F644BFD1
:1002F000B3460026202FA4BF5E464FF0000B5BEAFA
:10030000060C08BF4FF0010B19EB0B09ABFB027C8D
:1003100048EB0608C01B06FB02CC0BFB03CC71EBC1
:100320000C01C1E70B46024641464846BDE8F08B4A
:1003300013B54FF000004FF00001AFF30080BDE8AF
:100340001C40704710B54C1084EA530404D5404259
:10035000C1F1000138BF491E1B4204D55242C3F10E
:10036000000338BF5B1EFFF776FF14F0804F04D008
:100370004042C1F1000138BF491E14F0004F04D0C3
:100380005242C3F1000338BF5B1E10BD0FB40449D5
:1003900010B503AA029800F007F910BC5DF814FB31
:1003A000300000202DE9F0410E4604460020206276
:1003B0002046E168884730B3252805D0D4E90121DB
:1003C0009047206A401CF2E7E168204600278847F2
:1003D000050018D0A5F14100192802D820354FF4A6
:1003E00000673246294620462760FFF7FBFE40B1F2
:1003F000012804D0F61D26F007060836D8E7361D7A
:10040000D6E72846DAE7206ABDE8F08170B50446F1
:100410000D4621461068AFF300802188090502D5FA
:100420000F4A7A4402E00E4A7A440E32002104F167
:10043000240305E000F00F060009965D5E54491C98
:100440000028F7D120780023000704D5702D02D0B2
:1004500009B1022311322046BDE8704000F04BB8CC
:1004600030BB0000032A40F2308010F0030C00F093
:10047000158011F8013BBCF1020F624498BF11F8DE
:1004800001CB00F8013B38BF11F8013BA2F1040297
:1004900098BF00F801CB38BF00F8013B11F003030F
:1004A00000F09480083AC0F0088051F8043B083A04
:1004B00051F804CBA0E80810F5E7121D5CBF51F815
:1004C000043B40F8043BAFF30080D20724BF11F88F
:1004D000013B11F801CB48BF11F8012B24BF00F8F4
:1004E000013B00F801CB48BF00F8012B7047704773
:1004F0007047704770472DE9F0470D469946924680
:10050000044600F124080168880604D5E06921F05A
:100510001001216000E00120A84201DD471B00E03E
:100520000027A1697A1902EB0900081AA061207856
:10053000C00602D42046AFF30080002608E0D4E9CC
:1005400001211AF806009047206A401C761C2062A0
:100550004E45F4DB2078C0060AD52046AFF3008074
:1005600006E0D4E9012130209047206A401C206237
:10057000381EA7F10107F4DC07E0D4E9012118F8DF
:1005800005009047206A401C2062281EA5F1010545
:10059000F3DC2046AFF300802078000602D502206D
:1005A000BDE8F0870120FBE7074B70B50D467B44A3
:1005B00000F043F80446284600F052F810B14FF01E
:1005C000FF3070BD204670BD4B98000010B5203A3A
:1005D000C0F00B80B1E81850203AA0E81850B1E8FC
:1005E0001850A0E81850BFF4F5AF5FEA027C24BFB2
:1005F000B1E81850A0E8185044BF18C918C0BDE8A9
:1006000010405FEA827C24BF51F8043B40F8043B71
:1006100008BF7047D20728BF31F8023B48BF11F826
:10062000012B28BF20F8023B48BF00F8012B704780
:1006300001694A1C02610878704700B58FB0CDE9A6
:1006400001310021059105497944CDE90310114696
:100650006846FFF7A7FE0FB000BD0000E5FFFFFFF3
:10066000007B00F080007047754600F029F8AE4628
:1006700005006946534620F00700854618B020B5AE
:10068000FFF7D6FDBDE820404FF000064FF0000711
:100690004FF000084FF0000B21F00701AC46ACE82A
:1006A000C009ACE8C009ACE8C009ACE8C0098D4697
:1006B00070470446AFF300802046FFF7A5FD000019
:1006C0000048704780C0002010B5044624B1012CBA
:1006D00007D0022C15D10AE01021012008F010FAF1
:1006E00010E04FF48051022008F0B2F90AE0102126
:1006F000012008F005FA4FF48051022008F0A8F913
:1007000000E000BF00BF10BD00BFFEE70146CAB257
:100710000B1243EA0220704710B5002405E0A848F8
:100720000068005DA7490855641CA74800888442FA
:10073000F5D3A4484068A5494860A248806888600D
:10074000A14800881F280FD00220FFF7BDFF00201E
:100750009C490860487B1A22052108F095FA00217F
:10076000012008F073FA10BD9648C07B282803D0FA
:100770009448C07B2A2816D19248407C01069148B3
:10078000807C41EA00418F48C07C41EA00208D49CD
:10079000097D08438E4908608A48C17D807D41EA11
:1007A00000208C490860874800688B4988426FD1D7
:1007B0008448407B89490968884207D88148807B02
:1007C000012803DB7F48807B10280DDD0220FFF726
:1007D0007BFF7C49487B2422052108F055FA002143
:1007E000012008F033FAE8E07648C07B25285FD086
:1007F0001BDC15286FD00EDC08286DD006DC002825
:100800005BD0032830D0042867D176E00A286ED068
:100810001228F9D12DE01A380A285ED2DFE800F05C
:10082000392EB17D33B1B1B1B1438A286FD00EDC1E
:10083000552867D006DC282844D02A284ED02F28F7
:10084000E2D155E05A2829D08828DDD176E0A828C1
:100850006DD004DC8F286FD09E28D5D173E0AA28F4
:100860007BD0AF28D0D182E05649487B06F090FA81
:1008700095E05449487B06F063F990E05149487B84
:1008800006F09AFA8BE04F49487B06F095FA86E02D
:1008900086E04C49487B06F0A3F980E04949487B53
:1008A00006F094F97BE04749487B06F02DFA76E0A4
:1008B0004449487B06F0DAF971E04249487B06F08A
:1008C00083FA6CE03F49487B42490A68404909681D
:1008D00006F090F963E01BE024E052E03949487BE0
:1008E0003C490A683A49096806F0AAFA57E02FE03D
:1008F0003449487B06F084FA51E03249487B06F0DF
:1009000007F94CE02F49487B06F03EF947E029E023
:100910002C49487B06F038F941E02A49487B06F02B
:1009200033F93CE02749487B06F02EF937E02549AA
:10093000487B06F029F932E01EE00EE02149487BB1
:1009400006F022F92BE01F49487B06F01DF926E04E
:100950001C49487B06F018F921E01A49487B06F04B
:1009600013F91CE01749487B06F00EF917E015490A
:10097000487B06F009F912E01249487B06F004F9B9
:100980000DE00220FFF7A0FE0E49487B2022052142
:1009900008F07AF90021012008F058F900BF0CE0B6
:1009A0000220FFF791FE0749487B2022052108F02D
:1009B0006BF90021012008F049F900BFD3E60000DF
:1009C0005401002030C000205801002050C00020F9
:1009D0005C0100206001002055534243BC0100200F
:1009E00008B50020009022E19748008800F00F0031
:1009F000964908700846007800287CD19448006821
:100A0000944908800846008800F030009249088028
:100A10009048008800F440508E4908808C4909684D
:100A20004BF6BF7201EA020080F4005080F0200013
:100A300040F4004141F08001854A116082480088FD
:100A400000F0100090BB1046006848F60F71084097
:100A50001146086000F0EAFF7D4909684BF6BF7255
:100A600001EA02007B49098801F4805109B180F450
:100A700080507849098801F4005109B180F4005090
:100A80007549098801F0100109B180F01000724920
:100A9000098801F0200109B180F0200081B241F401
:100AA000004141F080016A4A116008BDFFE76848D3
:100AB000006880B20090BDF8000000F40060B0B3A0
:100AC00063480068C0F30E0048F68F710840604923
:100AD000086008F0E9F85E4909684BF6BF7201EA60
:100AE00002005C49098801F4805109B180F480500A
:100AF0005849098800E056E001F4005109B180F43A
:100B000000505549098801F0100109B180F010002A
:100B10005149098801F0200109B180F0200081B21B
:100B200041F4004141F08001494A1160BDE7FFE70F
:100B3000BDF8000000F40040002878D04448006868
:100B4000C0F30E0048F68F7108404149086005F077
:100B500051FD3F4909684BF6BF7201EA02003D4969
:100B6000098801F4805109B180F48050394909881D
:100B700001F4005109B180F400503749098801F0AF
:100B8000100109B180F010003349098801F02001FB
:100B900009B180F0200081B241F4004141F08001B0
:100BA0002B4A116081E7294800782C4901EB80002D
:100BB000D0F8000C80B20090BDF8000000F40040B6
:100BC000C0B12248007801EB8000D0F8000CC0F3DF
:100BD0000E0048F68F7108401C4909781F4A02EB45
:100BE0008101C1F8000C19490978491E1C4A52F8C4
:100BF00021008047BDF8000000F08000B8B1134824
:100C00000078164901EB8000D0F8000C48F60F710F
:100C100008400E490978114A02EB8101C1F8000C25
:100C20000A490978491E0F4A52F8210080470848AE
:100C30004430006880B20449088000F40040002875
:100C40007FF4D2AE00BF30E7800100206C000020AE
:100C5000005C004080000020820000200050004026
:100C6000A0010020840100200B4A02EB8001D1F892
:100C7000001C01F4804171B102EB8001D1F8001C2D
:100C800048F68F7211404CF280021143024B03EB85
:100C90008002C2F8001C7047005000400B4A02EB73
:100CA0008001D1F8001C01F0400171B102EB80011C
:100CB000D1F8001C48F68F72114048F2C00211436F
:100CC000024B03EB8002C2F8001C7047005000404A
:100CD000084A02EB8001D1F8001C48F68F621140EF
:100CE00048F280021143034B03EB8002C2F8001C60
:100CF000704700000050004070B500254FF480346C
:100D000004E0802006F074F900B103E02000A4F1B3
:100D10000104F6D100BF0CB9032070BD40F2FF50B2
:100D200006F020F92846F8E770B5044605E01548B6
:100D3000456B05F0450000B100E0F8E700BF042076
:100D400006F056F920B1042006F00CF9032070BD1E
:100D5000012006F04DF920B1012006F003F9012031
:100D6000F5E708480069A04201D01020EFE740F203
:100D7000FF50044988630846406908210840C0B212
:100D8000E5E700000080014070B500264FF4803593
:100D900005E01148446B04F0450000B103E0280071
:100DA000A5F10105F5D100BF15B104F0040028B18B
:100DB0000326042006F0D6F8304670BD012006F068
:100DC00017F918B10126012006F0CCF840F2FF50C7
:100DD00006F0C8F83046F0E70080014010B505E0A5
:100DE0000B48446B04F0450000B100E0F8E700BF99
:100DF000042006F0FDF820B1042006F0B3F803202B
:100E000010BD40F2FF5006F0ADF80020F8E70000FA
:100E1000008001402DE9F04105460E464FF00008E4
:100E200005E01F48476B07F0450000B100E0F8E718
:100E300000BF042006F0DCF828B1042006F092F888
:100E40000320BDE8F081012006F0D2F820B1012096
:100E500006F088F80120F4E711480069A84201D0A3
:100E60001020EEE740F2FF5006F07CF80C48446991
:100E700004F4604018B9200C30804046E1E704F4E7
:100E8000005008B11320DCE704F4804008B11020C2
:100E9000D7E704F4004008B10F20D2E74046D0E77E
:100EA0000080014070B500264FF4803505E00F4802
:100EB000446B04F0450000B103E02800A5F10105F2
:100EC000F5D100BF15B104F0040028B103260420B9
:100ED00006F048F8304670BD04F0400018B1002616
:100EE000402006F03FF83046F5E700000080014062
:100EF00021B1026842F00102026004E002684FF68C
:100F0000FE731A400260704701684FF6FE7211408E
:100F100001600021016041608160C1604B498842ED
:100F200008D14A490839496841F00F01474A083A4F
:100F300051608AE045491431884208D14349083953
:100F4000496841F0F001414A083A51607DE03F496B
:100F50002831884208D13D490839496841F4706117
:100F60003A4A083A516070E038493C31884208D129
:100F700036490839496841F47041344A083A5160A9
:100F800063E032495031884208D130490839496814
:100F900041F470212D4A083A516056E02B496431E2
:100FA000884208D129490839496841F47001274A23
:100FB000083A516049E025497831884208D12349EF
:100FC0000839496841F07061204A083A51603CE0B4
:100FD0001F49884206D1011F096841F00F01021F15
:100FE000116032E01A491431884208D11849091FAA
:100FF000096841F0F001164A121F116025E01449FA
:101000002831884208D11249091F096841F47061EA
:101010000F4A121F116018E00D493C31884208D177
:101020000B49091F096841F47041094A121F1160F8
:101030000BE007495031884207D10549091F09686B
:1010400041F47021024A121F1160704708000240EB
:101050000804024010B50022026847F6F0739A4374
:101060000C6A8B6823430C6923434C6923438C69C6
:101070002343CC6923434C6A23438C6A23431A439A
:101080000260CB6843600B6883604B68C36010BD2F
:101090002DE9F0472848006800F110052E88264801
:1010A0000068077AD6B9042F18D12448007801289F
:1010B0000FD100212248006880B2801C214A42F8EA
:1010C000101030202049088000BF00201B49087004
:1010D00003E0072710201C49088027E0AC88A642BF
:1010E00001D8042000E002200746B44200D934466B
:1010F000A0B2A96888478046002000F059FC8146CC
:10110000A2B24946404608F0A7FBA1B2002007F072
:10111000E9FC2888001B28806888204468803020EB
:101120000949088000020949088000BF024909688E
:101130000F72BDE8F0870000700000206A000020F8
:10114000505C0040006000408200002080000020D1
:101150002DE9F0412848006800F110042688A068B5
:10116000C0B1BEB1A588B54200D93546A8B2A168C4
:10117000884707462088401B20806088284460807C
:10118000002000F0E7FB8046AAB24146384605F051
:1011900059FA00BF208850B14FF4405017490880D9
:1011A0000021084607F09EFC302015490880208861
:1011B000A188884204DB03200F490968087218E0FF
:1011C0002088002804DD05200B490968087210E01A
:1011D000208870B90620084909680872002109486A
:1011E000006880B2801C084A42F810103020044980
:1011F0000880BDE8F0810000700000208000002021
:1012000082000020505C0040006000402DE9F84F53
:101210009B48006845780027BA46062D1BD19848A0
:101220000068007800F07F00002813D19449096815
:101230008878012803D193490968CF690AE0022818
:1012400003D1904909680F6A04E0032802D18D494F
:1012500009684F6A94E0002D64D18948006840888D
:1012600000285FD186480068C08802285AD1844887
:1012700000680079002855D181480068007800F0A6
:101280007F0028B97E480068808808B97E4F77E0E3
:101290007B480068007800F07F00012810D1784971
:1012A00009684879774909688A69002190470028C8
:1012B00066D173480068807A002861D0724F5FE081
:1012C0006F480068007800F07F00022858D16C4811
:1012D0000068407900F00F0669480068407900F026
:1012E000700967480068407900F0800038B16749AC
:1012F00001EB8600D0F8000C00F0300806E06349EE
:1013000001EB8600D0F8000C00F4405860480078EB
:10131000B04235D9B9F1000F32D1B8F1000F2FD05A
:10132000594F2DE0082D07D155480068007800F08E
:101330007F0028BB574F23E00A2D21D15048006879
:10134000007800F07F0001281AD14D480068807AAB
:10135000B0B14B480068408890B9494800680079AE
:1013600070B947480068C088012809D14449096814
:101370004879444909688A690021904700B9464F75
:1013800057B13F480068A0F812A03D480068876147
:101390000020B84700240FE0394A12685078394AD3
:1013A0001268116988470446032C05D10920344985
:1013B00009680872BDE8F88F31480068008A4FF666
:1013C000FF71884204D109202D4909680872F1E7AC
:1013D000022C03D02A480068008A20B90820284936
:1013E00009680872E6E726480068007800F0800087
:1013F000E0B323480068C088009021480068008A54
:101400000099884204D91E4900980968088223E09F
:101410001B480068008A1A490968C98888421BDA93
:1014200017480068008A1749096891F82C1088420B
:1014300003DA0020194908700EE011480068008A9C
:101440001049096891F82C1090FBF1F201FB120091
:1014500010B90120114908700A48006890F82C1052
:10146000074800688182FFF713FE07E0FFE70320CB
:1014700003490968087200030949088000BF99E719
:101480007000002074000020498F000800500040C8
:10149000BD010020CD8E00081D8F00086A000020CD
:1014A00080000020704710B504F0FAFE10BD10B5A2
:1014B00004F04AFF10BD00000149086070470000B9
:1014C00014040140002123498279002A3AD00A46B7
:1014D000126803689A430B461A600A1D1268036873
:1014E0009A430B1D1A60027911440A6803681A4373
:1014F0000A60184A0832126803689A43154B083389
:101500001A601A1D126803689A43124B0C331A6052
:101510004279102A0ED11A1F126803681A430D4B24
:1015200008331A601A1D126803681A43094B0C33FA
:101530001A600DE00749427911440A6803681A43AA
:101540000A6005E0027911440A6803689A430A6058
:10155000704700000004014010B503A0FEF716FF1D
:1015600003200849086010BD75736220656E7465BC
:1015700072206C6F7720706F776572206D6F646575
:101580000D0A00004C02002051B18200A2F1C042BD
:10159000126842F001038200A2F1C042136009E028
:1015A0008200A2F1C0421268034B1A408300A3F1EB
:1015B000C0431A6070470000FEFF0F00D0E901121F
:1015C0001143C268114302691143426911438269A0
:1015D0001143C2691143026A1143426A1143826A8C
:1015E0001143C26A1143026B114302689200A2F1D7
:1015F000C0421160816808290BD101688900A1F1FE
:10160000C041096841F0400201688900A1F1C04170
:101610000A60416B0968426B526841EA0211426BF1
:10162000926841EA0221426B928941EA0241426B8F
:10163000128A41EA0251426B127D41EA0261426B19
:10164000926911430268521C9200A2F1C0421160DB
:10165000C16AB1F5804F1BD1816B0968826B5268FA
:1016600041EA0211826B926841EA0221826B128A7E
:1016700041EA0251826B127D41EA0261826B9269FA
:10168000114302689200A2F1C042C2F8041107E0BF
:101690006FF0704201688900A1F1C041C1F80421D6
:1016A000704700002DE9FC4107460D460026002446
:1016B00000200090019008205B49086010204860DD
:1016C000402088600020C8604FF4806008610846B0
:1016D00005F0C4FC1020FFF727FB044614B1204698
:1016E000BDE8FC815148008800044F49086037205C
:1016F0004860402088600020C8604FF48060086126
:10170000084605F0ABFC3720FFF70EFB04460CB192
:101710002046E5E74FF0FF30454908600820486063
:10172000302088600220C8600020086101204861E4
:10173000084605F033FC00203B4908603320486030
:10174000402088600020C8604FF48060086108462F
:1017500005F084FC3320FFF7E7FA04460CB120467D
:10176000BEE70CE04FF4001005F042FC38B105F084
:101770006FFC4DF82600761C022E00D306E02D48A3
:10178000406B40F22A6108400028EBD000BF0820DF
:1017900005F02EFC20B1082005F0E4FB04209FE7B3
:1017A000022005F025FC20B1022005F0DBFB022021
:1017B00096E7202005F01CFC20B1202005F0D2FB8C
:1017C00006208DE74FF4007005F012FC28B14FF4AD
:1017D000007005F0C7FB072082E740F2FF5005F0DC
:1017E000C1FB00980006009901F47F4140EA012006
:1017F000009901F47F0140EA1120009940EA11604C
:10180000686001980006019901F47F4140EA0120D7
:10181000019901F47F0140EA1120019940EA116029
:10182000286020465CE70000801200202000002095
:1018300094120020008001402DE9F041024600256D
:101840000026002000230024002791F803C00CF09C
:101850000F0591F803C00CF0100CBCF1000F03D081
:1018600091F802C04CEA050591F800C0BCF1000FE8
:1018700031D0146800202BE04FF0010C0CFA00F37B
:10188000B1F800C00CEA03069E4220D183004FF05D
:101890000F0C0CFA03F7BC4305FA03FC4CEA0404F2
:1018A00091F803C0BCF1280F06D14FF0010C0CFADF
:1018B00000FCC2F814C00AE091F803C0BCF1480F64
:1018C00005D14FF0010C0CFA00FCC2F810C0401C0E
:1018D0000828D1D31460B1F800C0BCF1FF0F34DD8B
:1018E000546800202EE000F1080C4FF0010808FABF
:1018F0000CF3B1F800C00CEA03069E4221D183002C
:101900004FF00F0C0CFA03F7BC4305FA03FC4CEA4A
:10191000040491F803C0BCF1280F05D100F1080CB4
:1019200008FA0CF8C2F8148091F803C0BCF1480F13
:1019300007D100F1080C4FF0010808FA0CF8C2F8C2
:101940001080401C0828CED35460BDE8F0810161AE
:101950007047000001460548006880B200EBC100F6
:10196000001D034A32F8100080B27047505C0040FE
:101970000060004001460648006880B200EBC100EC
:10198000801D044A32F81000C0F3090070470000BF
:10199000505C0040006000400146044A02EB8100B8
:1019A000D0F8000C00F44050704700000050004098
:1019B00001460548006880B200EBC100034A32F8D6
:1019C000100080B270470000505C00400060004092
:1019D000014629B90120034A12681082002070478D
:1019E0000148FCE770000020BC01002070B50A48E7
:1019F0000468001D0568001D0668344454B10822BF
:101A00000649204600F04AF80422044910312846CD
:101A100000F044F870BD0000E8F7FF1F66010020E9
:101A200000BFFEE772B6704762B6704710B518483F
:101A30000068047A022C01D0042C05D1FFF728FBA2
:101A400013480068047A1CE0062C19D1104800687D
:101A5000407805280ED10E480068007800F07F001D
:101A600040B90B490968C87806F092FF094909682E
:101A7000086A80470849096888688047082400E0A8
:101A80000824034909680C7204F0F2FD10BD00003F
:101A9000700000207C0000207400002030B50B4650
:101AA000002100BF16E00A24B4EB107F05D93024D2
:101AB00004EB107403F8114005E0412404EB1074AA
:101AC0000A3C03F81140000100254C00641C1D5520
:101AD0004C1CE1B29142E6DB30BD00001CB504466F
:101AE00000200190009021480088000420490860EF
:101AF0000D204860402088600020C8604FF480605E
:101B00000861084605F0AAFA1A48406B009002E006
:101B10001848406B0090009800F045000028F7D06E
:101B2000012005F065FA20B1012005F01BFA012023
:101B30001CBD042005F05CFA20B1042005F012FA67
:101B40000320F5E70B4800690D2801D01020EFE7CE
:101B500040F2FF5005F006FA0648406901900198EE
:101B6000C0F3432020700020E2E7000020000020A6
:101B7000801200200080014070B5044600261748FE
:101B80000588408845431548808846F60401884208
:101B900016D112488079012812D100200F4988718E
:101BA0002A2048812B2088810021084603F08EFFDF
:101BB00001200A4988712B2048812A20888103E06E
:101BC0000021084603F082FF04F07EF9002602E0BF
:101BD00003480480761CAE42FAD370BD5802002040
:101BE0000008006C10B50446002C66D16C49887161
:101BF000F02008804FF4A07048800846808849F2A1
:101C0000413188420BD06648808846F604018842FC
:101C100005D06348808845F2103188421AD12C20C3
:101C20005F4908812A2048812B20888108468088C6
:101C300046F60401884205D05948808845F21031A3
:101C4000884206D14FF4A070554908804FF4F070D7
:101C50004880A1E05248808845F21051884210D156
:101C60004FF430504E4908814FF4285048814FF4CA
:101C70002C5088814FF4F07008804FF448704880F1
:101C80008AE04748808841F6631188420DD12C20B4
:101C9000434908812B2048812A2088814FF4F07025
:101CA00008804FF44870488076E022203C49088143
:101CB00020204881212088816EE0012038498871E8
:101CC0004FF4A0700880F02048800846808849F2D0
:101CD0004131884205D03248808845F2103188422F
:101CE00007D12C202E4908812A2048812B20888169
:101CF0003FE02B48808846F60401884207D12C201B
:101D0000274908812B2048812A20888131E02448F6
:101D1000808845F21051884210D14FF4305020494C
:101D200008814FF4285048814FF42C5088814FF49B
:101D3000487008804FF4F07048801AE01848808896
:101D400041F6631188420DD12C20154908812A20C3
:101D500048812B2088814FF4487008804FF4F07040
:101D6000488006E022200E49088121204881202059
:101D700088810B48808846F60401884205D00848CF
:101D8000808845F21031884206D14FF4F070044942
:101D900008804FF4A0704880002003F021FD10BDA2
:101DA0005802002070B504460D4616465A488088F1
:101DB00049F24131884205D05748808845F21031B8
:101DC000884214D15449488904F072F8201204F072
:101DD00063F8E0B204F060F84F49888904F068F8CD
:101DE000281204F059F8E8B204F056F88CE04A489A
:101DF000808845F21051884220D14749488904F033
:101E000057F8201204F048F843494989491C88B220
:101E100004F04EF8E0B204F03FF83F49888904F03E
:101E200047F8281204F038F83B498989491C88B2E0
:101E300004F03EF8E8B204F02FF865E036488088F8
:101E400041F66311884228D13348807920B932485D
:101E50000088401E001B84B22F49488904F028F8EE
:101E6000201204F019F8E0B204F016F8201204F081
:101E700013F8E0B204F010F82749888904F018F844
:101E8000281204F009F8E8B204F006F8281204F069
:101E900003F8E8B204F000F836E01F48808846F600
:101EA000040188421DD11C488079012804D11A48B8
:101EB0000088401E001B84B21749488903F0F8FFD0
:101EC000201203F0E9FFE0B203F0E6FF124988892F
:101ED00003F0EEFF281203F0DFFFE8B203F0DCFFAF
:101EE00012E00D488079012804D10B480088401E7B
:101EF000001B84B208494889214603F0EFFF0649D8
:101F00008889294603F0EAFF0348008903490880CD
:101F1000881C068070BD000058020020FE07006C7F
:101F20002DE9FC4F05460E4617469846DDF82C90E5
:101F3000002001902748808846F60401884229D174
:101F400024488079012825D1AB46354621480088B0
:101F5000C01B401E86B247461E480088A0EB0B00FF
:101F6000401E1FFA80F800201A4988712A204881F3
:101F70002B20888143463A4631462846CDF80090CA
:101F8000FFF7CEFF0120134988712B2048812A20BA
:101F900088811CE0781B401C80B20190344614E01C
:101FA0002146284603F092FD03F08EFF4FF0000A11
:101FB00006E00948A0F800900AF101001FFA80FA33
:101FC00001988245F5DB601C84B24445E8DDBDE83C
:101FD000FC8F0000580200200008006C00B59FB084
:101FE0000121080204F088FB01214FF4B47004F0D1
:101FF000A3FB0120ADF8780010208DF87B000320B2
:102000008DF87A001EA9FE48FFF716FC4CF23370DB
:10201000ADF8780018208DF87B0003208DF87A0049
:102020001EA9F848FFF708FC4FF68070ADF878005D
:1020300018208DF87B0003208DF87A001EA9F24845
:10204000FFF7FAFB41F20100ADF8780018208DF897
:102050007B0003208DF87A001EA9EC48FFF7ECFB0B
:1020600001200890002009900F200A9000200B907A
:102070000C900D900E900190029003200390002090
:10208000049005900690079006200F900020109075
:10209000119010201290002013901590149016901B
:1020A00017904FF480501890002019904FF4804002
:1020B0001A9000201B9008A81C9001A81D900FA842
:1020C000FFF77CFA01210620FFF75EFA322007F0C5
:1020D00049FE002003F04EFBCD49888008468088E9
:1020E000FF280ADB084680884FF6FF71884204D03B
:1020F000C7488088B0F5134F7ED1D32003F0D8FEB7
:1021000003F02EFBC249888003F02AFBC049888077
:1021100003F026FBBE498880084680884FF6FF7191
:1021200001EA0020BA49888003F01AFBB84989887F
:102130000843B74988800846808849F2413188427F
:102140005AD0BF2003F0B4FE03F00AFBB0498880E8
:1021500003F006FBAE49888003F002FBAC4988809F
:1021600003F0FEFAAA498880084680884FF6FF717E
:1021700001EA0020A649888003F0F2FAA449898880
:102180000843A34988800846808846F604018842AF
:102190007AD0D42003F08CFE03F0E2FA9C498880C8
:1021A00003F0DEFA9A49888003F0DAFA98498880C9
:1021B000084680884FF6FF7101EA00209449888024
:1021C00003F0CEFA924989880843914988800846ED
:1021D000808845F21031884256D04FF45A4003F0BF
:1021E00067FE03F0BDFA8A4988804FF45B4003F034
:1021F0005FFE03F0B5FA00E046E0854988800846B6
:1022000080884FF6FF7101EA0020814988804FF4F1
:102210005C4003F04DFE03F0A3FA7D498988084332
:102220007B49888008468088B0F5004F02D145F28E
:10223000105088807648808845F21051884223D01B
:10224000A12003F035FE03F08BFA7149888003F07A
:1022500087FA6F498880084680884FF6FF7101EA47
:1022600000206B49888003F07BFA6949898808431C
:10227000674988800846808845F26171884203D1A9
:1022800041F66310624988806148818861A0FEF749
:102290007DF85F48808849F2413188427ED1CF2065
:1022A00003F006FE002003F0F7FDC12003F0F4FD6B
:1022B000302003F0F1FDED2003F0FAFD642003F07F
:1022C000EBFD032003F0E8FD122003F0E5FD812083
:1022D00003F0E2FDE82003F0EBFD852003F0DCFDD8
:1022E000102003F0D9FD7A2003F0D6FDCB2003F0B7
:1022F000DFFD392003F0D0FD2C2003F0CDFD0020C0
:1023000003F0CAFD342003F0C7FD022003F0C4FD32
:10231000F72003F0CDFD202003F0BEFDEA2003F0FE
:10232000C7FD002003F0B8FD002003F0B5FDC0207C
:1023300003F0BEFD1B2003F0AFFDC12003F0B8FD8C
:10234000012003F0A9FDC52003F0B2FD302003F009
:10235000A3FD302003F0A0FDC72003F0A9FDB720A6
:1023600003F09AFD362003F0A3FD482003F094FD0E
:102370003A2003F09DFD552003F08EFDB12003F0BF
:1023800097FD002003F088FD1A2003F085FDB6209C
:1023900003F08EFD0A2003F07FFD00E0AAE0A220FA
:1023A00003F07AFDF22003F083FD002003F074FDBA
:1023B000262003F07DFD012003F06EFDE02003F0F8
:1023C00077FD0F2003F068FD2A2003F065FD28202B
:1023D00003F062FD082003F05FFD0E2003F05CFDBA
:1023E000082003F059FD542003F056FDA92003F006
:1023F00053FD432003F050FD0A2003F04DFD11E092
:10240000000C014000140140001801400020014070
:1024100058020020204C43442049443A25780D0AB4
:10242000000000000F2003F037FD002003F034FD12
:10243000002003F031FD002003F02EFD002003F00A
:102440002BFDE12003F034FD002003F025FD1520D5
:1024500003F022FD172003F01FFD072003F01CFDF1
:10246000112003F019FD062003F016FD2B2003F0C8
:1024700013FD562003F010FD3C2003F00DFD052058
:1024800003F00AFD102003F007FD0F2003F004FD08
:102490003F2003F001FD3F2003F0FEFC0F2003F07E
:1024A000FBFC2B2003F004FD002003F0F5FC0020D2
:1024B00003F0F2FC012003F0EFFC3F2003F0ECFC02
:1024C0002A2003F0F5FC002003F0E6FC002003F0D6
:1024D000E3FC002003F0E0FCEF2003F0DDFC112022
:1024E00003F0E6FC782007F03DFC292003F0E0FC37
:1024F00003F01AB9FE48808846F6040188427CD170
:10250000112003F0D5FC142007F02CFCD02003F0A0
:10251000CFFC072003F0C0FC422003F0BDFC1D20CF
:1025200003F0BAFCD12003F0C3FC002003F0B4FC9C
:102530001A2003F0B1FC092003F0AEFCD22003F016
:10254000B7FC012003F0A8FC222003F0A5FCC0206A
:1025500003F0AEFC102003F09FFC3B2003F09CFC3A
:10256000002003F099FC022003F096FC112003F0F8
:1025700093FCC52003F09CFC032003F08DFCC820D5
:1025800003F096FC002003F087FC252003F084FC78
:10259000212003F081FC052003F07EFC002003F0E5
:1025A0007BFC0A2003F078FC652003F075FC2520F5
:1025B00003F072FC772003F06FFC502003F06CFCFA
:1025C0000F2003F069FC002003F066FCF82003F004
:1025D0006FFC012003F060FCFE2003F069FC00208A
:1025E00003F05AFC022003F057FC202003F060FCAB
:1025F000362003F05DFC082000E02CE003F04CFCEA
:102600003A2003F055FC552003F046FC2B2003F044
:102610004FFC002003F040FC002003F03DFC0120B3
:1026200003F03AFC3F2003F037FC2A2003F040FC83
:10263000002003F031FC002003F02EFC012003F009
:102640002BFCDF2003F028FC782007F08BFB2920EF
:1026500003F02EFC4CE7A648808845F210318842F2
:1026600040F07C87ED2003F023FC012003F014FCF4
:10267000FE2003F011FCEE2003F01AFCDE2003F034
:102680000BFC212003F008FCF12003F011FC0120D9
:1026900003F002FCDF2003F00BFC102003F0FCFB36
:1026A000C42003F005FC8F2003F0F6FBC62003F0E6
:1026B000FFFB002003F0F0FBE22003F0EDFBE22043
:1026C00003F0EAFBE22003F0E7FBBF2003F0F0FB9E
:1026D000AA2003F0E1FBB02003F0EAFB0D2003F099
:1026E000DBFB002003F0D8FB0D2003F0D5FB00201E
:1026F00003F0D2FB112003F0CFFB002003F0CCFB52
:10270000192003F0C9FB002003F0C6FB212003F0D1
:10271000C3FB002003F0C0FB2D2003F0BDFB002015
:1027200003F0BAFB3D2003F0B7FB002003F0B4FB3D
:102730005D2003F0B1FB002003F0AEFB5D2003F051
:10274000ABFB002003F0A8FBB12003F0B1FB80201D
:1027500003F0A2FB002003F09FFB8B2003F09CFB07
:10276000002003F099FB962003F096FB002003F075
:1027700093FBB22003F09CFB002003F08DFB0020B4
:1027800003F08AFB022003F087FB002003F084FBA8
:10279000032003F081FB002003F07EFBB32003F055
:1027A00087FB002003F078FB002003F075FB00207E
:1027B00003F072FB002003F06FFB002003F06CFBC2
:1027C000002003F069FB002003F066FB002003F00B
:1027D00063FB002003F060FB002003F05DFB0020A2
:1027E00003F05AFB002003F057FB002003F054FBDA
:1027F000002003F051FB002003F04EFB002003F00B
:102800004BFB002003F048FB002003F045FB0020B9
:1028100003F042FB002003F03FFB002003F03CFBF1
:10282000002003F039FB002003F036FB002003F00A
:1028300033FBB42003F03CFB8B2003F02DFB002086
:1028400003F02AFB962003F027FB002003F024FB73
:10285000A12003F021FB002003F01EFBB52003F0B4
:1028600027FB022003F018FB002003F015FB0320D8
:1028700003F012FB002003F00FFB042003F00CFB1D
:10288000002003F009FBB62003F012FB002003F048
:1028900003FB002003F000FBB72003F009FB00203E
:1028A00003F0FAFA002003F0F7FA3F2003F0F4FAFD
:1028B000002003F0F1FA5E2003F0EEFA002003F0AE
:1028C000EBFA642003F0E8FA002003F0E5FA8C202C
:1028D00003F0E2FA002003F0DFFAAC2003F0DCFAA8
:1028E000002003F0D9FADC2003F0D6FA002001E042
:1028F0005802002003F0D0FA702003F0CDFA002037
:1029000003F0CAFA902003F0C7FA002003F0C4FADB
:10291000EB2003F0C1FA002003F0BEFADC2003F044
:10292000BBFA002003F0B8FAB82003F0C1FA002087
:1029300003F0B2FA002003F0AFFA002003F0ACFA83
:10294000002003F0A9FA002003F0A6FA002003F00B
:10295000A3FA002003F0A0FA002003F09DFABA20A9
:1029600003F0A6FA242003F097FA002003F094FA6B
:10297000002003F091FA002003F08EFAC12003F04A
:1029800097FA202003F088FA002003F085FA5420FB
:1029900003F082FA002003F07FFAFF2003F07CFAB4
:1029A000002003F079FAC22003F082FA0A2003F033
:1029B00073FA002003F070FA042003F06DFA00208F
:1029C00003F06AFAC32003F073FA3C2003F064FAC0
:1029D000002003F061FA3A2003F05EFA002003F0D1
:1029E0005BFA392003F058FA002003F055FA37203B
:1029F00003F052FA002003F04FFA3C2003F04CFAA7
:102A0000002003F049FA362003F046FA002003F0D4
:102A100043FA322003F040FA002003F03DFA2F2061
:102A200003F03AFA002003F037FA2C2003F034FACE
:102A3000002003F031FA292003F02EFA002003F0E1
:102A40002BFA262003F028FA002003F025FA242090
:102A500003F022FA002003F01FFA242003F01CFAEE
:102A6000002003F019FA232003F016FA002003F0E7
:102A700013FA3C2003F010FA002003F00DFA362080
:102A800003F00AFA002003F007FA322003F004FAF8
:102A9000002003F001FA2F2003F0FEF9002003F0DC
:102AA000FBF92C2003F0F8F9002003F0F5F92920B8
:102AB00003F0F2F9002003F0EFF9262003F0ECF91F
:102AC000002003F0E9F9242003F0E6F9002003F0E8
:102AD000E3F9242003F0E0F9002003F0DDF92320DE
:102AE00003F0DAF9002003F0D7F9C42003F0E0F98D
:102AF000622003F0D1F9002003F0CEF9052003F0A5
:102B0000CBF9002003F0C8F9842003F0C5F90020B8
:102B100003F0C2F9F02003F0BFF9002003F0BCF984
:102B2000182003F0B9F9002003F0B6F9A42003F04F
:102B3000B3F9002003F0B0F9182003F0ADF900203C
:102B400003F0AAF9502003F0A7F9002003F0A4F93C
:102B50000C2003F0A1F9002003F09EF9172003F0E8
:102B60009BF9002003F098F9952003F095F90020D7
:102B700003F092F9F32003F08FF9002003F08CF9B1
:102B8000E62003F089F9002003F086F9C52003F060
:102B90008FF9322003F080F9002003F07DF9442002
:102BA00003F07AF9002003F077F9652003F074F957
:102BB000002003F071F9762003F06EF9002003F095
:102BC0006BF9882003F068F9002003F065F9C6204E
:102BD00003F06EF9202003F05FF9002003F05CF9A8
:102BE000172003F059F9002003F056F9012003F0F3
:102BF00053F9002003F050F9C72003F059F90020E1
:102C000003F04AF9002003F047F9002003F044F9EB
:102C1000002003F041F9C82003F04AF9002003F036
:102C20003BF9002003F038F9002003F035F90020CB
:102C300003F032F9C92003F03BF9002003F02CF92E
:102C4000002003F029F9002003F026F9002003F00A
:102C500023F9002003F020F9002003F01DF90020E3
:102C600003F01AF9002003F017F9002003F014F91B
:102C7000002003F011F9002003F00EF9002003F00A
:102C80000BF9002003F008F9002003F005F90020FB
:102C900003F002F9002003F0FFF8E02003F008F948
:102CA000162003F0F9F8002003F0F6F81C2003F0DA
:102CB000F3F8002003F0F0F8212003F0EDF80020F5
:102CC00003F0EAF8362003F0E7F8002003F0E4F818
:102CD000462003F0E1F8002003F0DEF8522003F074
:102CE000DBF8002003F0D8F8642003F0D5F80020CA
:102CF00003F0D2F87A2003F0CFF8002003F0CCF8EC
:102D00008B2003F0C9F8002003F0C6F8992003F0E7
:102D1000C3F8002003F0C0F8A82003F0BDF800209D
:102D200003F0BAF8B92003F0B7F8002003F0B4F8C4
:102D3000C42003F0B1F8002003F0AEF8CA2003F07D
:102D4000ABF8002003F0A8F8D22003F0A5F800208B
:102D500003F0A2F8D92003F09FF8002003F09CF8BC
:102D6000E02003F099F8002003F096F8F32003F038
:102D700093F8002003F090F8E12003F099F8162072
:102D800003F08AF8002003F087F81C2003F084F891
:102D9000002003F081F8222003F07EF8002003F0E9
:102DA0007BF8362003F078F8002003F075F8452012
:102DB00003F072F8002003F06FF8522003F06CF873
:102DC000002003F069F8642003F066F8002003F0A7
:102DD00063F87A2003F060F8002003F05DF88B20A0
:102DE00003F05AF8002003F057F8992003F054F844
:102DF000002003F051F8A82003F04EF8002003F063
:102E00004BF8B92003F048F8002003F045F8C4203F
:102E100003F042F8002003F03FF8CA2003F03CF82A
:102E2000002003F039F8D22003F036F8002003F038
:102E300033F8D82003F030F8002003F02DF8E0201C
:102E400003F02AF8002003F027F8F32003F024F819
:102E5000002003F021F8E22003F02AF8052003F017
:102E60001BF8002003F018F80B2003F015F80020E1
:102E700003F012F81B2003F00FF8002003F00CF809
:102E8000342003F009F8002003F006F8442003F092
:102E900003F8002003F000F84F2002F0FDFF0020AF
:102EA00002F0FAFF612002F0F7FF002002F0F4FFC9
:102EB000792002F0F1FF002002F0EEFF882002F0FE
:102EC000EBFF002002F0E8FF972002F0E5FF002072
:102ED00002F0E2FFA62002F0DFFF002002F0DCFF9C
:102EE000B72002F0D9FF002002F0D6FFC22002F086
:102EF000D3FF002002F0D0FFC72002F0CDFF00205A
:102F000002F0CAFFD12002F0C7FF002002F0C4FF88
:102F1000D62002F0C1FF002002F0BEFFDD2002F04B
:102F2000BBFF002002F0B8FFF32002F0B5FF002045
:102F300002F0B2FFE32002F0BBFF052002F0ACFF7D
:102F4000002002F0A9FF0A2002F0A6FF002002F0F4
:102F5000A3FF1C2002F0A0FF002002F09DFF332001
:102F600002F09AFF002002F097FF442002F094FF45
:102F7000002002F091FF502002F08EFF002002F0AE
:102F80008BFF622002F088FF002002F085FF78208E
:102F900002F082FF002002F07FFF882002F07CFF19
:102FA000002002F079FF972002F076FF002002F067
:102FB00073FFA62002F070FF002002F06DFFB72023
:102FC00002F06AFF002002F067FFC22002F064FFF7
:102FD000002002F061FFC72002F05EFF002002F037
:102FE0005BFFD12002F058FF002002F055FFD520F2
:102FF00002F052FF002002F04FFFDD2002F04CFFF4
:10300000002002F049FFF32002F046FF002002F00A
:1030100043FFE42002F04CFF012002F03DFF0020BE
:1030200002F03AFF012002F037FF002002F034FFE7
:10303000022002F031FF002002F02EFF2A2002F0D1
:103040002BFF002002F028FF3C2002F025FF00208B
:1030500002F022FF4B2002F01FFF002002F01CFFB5
:103060005D2002F019FF002002F016FF742002F02C
:1030700013FF002002F010FF842002F00DFF00205B
:1030800002F00AFF932002F007FF002002F004FF85
:10309000A22002F001FF002002F0FEFEB32002F0A9
:1030A000FBFE002002F0F8FEBE2002F0F5FE00203C
:1030B00002F0F2FEC42002F0EFFE002002F0ECFE6F
:1030C000CD2002F0E9FE002002F0E6FED32002F05F
:1030D000E3FE002002F0E0FEDD2002F0DDFE002035
:1030E00002F0DAFEF32002F0D7FE002002F0D4FE58
:1030F000E52002F0DDFE002002F0CEFE002002F00E
:10310000CBFE002002F0C8FE002002F0C5FE022027
:1031100002F0C2FE002002F0BFFE292002F0BCFE39
:10312000002002F0B9FE3C2002F0B6FE002002F0C2
:10313000B3FE4B2002F0B0FE002002F0ADFE5D2099
:1031400002F0AAFE002002F0A7FE742002F0A4FE06
:10315000002002F0A1FE842002F09EFE002002F07A
:103160009BFE932002F098FE002002F095FEA22024
:1031700002F092FE002002F08FFEB32002F08CFEDF
:10318000002002F089FEBE2002F086FE002002F040
:1031900083FEC42002F080FE002002F07DFECD20E0
:1031A00002F07AFE002002F077FED32002F074FED7
:1031B000002002F071FEDC2002F06EFE002002F022
:1031C0006BFEF32002F068FE002002F065FEE620B0
:1031D00002F06EFE112002F05FFE002002F05CFEA5
:1031E000342002F059FE002002F056FE562002F074
:1031F00053FE002002F050FE762002F04DFE00202B
:1032000002F04AFE772002F047FE002002F044FE62
:10321000662002F041FE002002F03EFE882002F00F
:103220003BFE002002F038FE992002F035FE00201F
:1032300002F032FEBB2002F02FFE002002F02CFE36
:10324000992002F029FE002002F026FE662002F0FE
:1032500023FE002002F020FE552002F01DFE00207B
:1032600002F01AFE552002F017FE002002F014FEB4
:10327000452002F011FE002002F00EFE432002F075
:103280000BFE002002F008FE442002F005FE0020A4
:1032900002F002FEE72002F00BFE322002F0FCFDFD
:1032A000002002F0F9FD552002F0F6FD002002F0AA
:1032B000F3FD762002F0F0FD002002F0EDFD662027
:1032C00002F0EAFD002002F0E7FD672002F0E4FDD5
:1032D000002002F0E1FD672002F0DEFD002002F098
:1032E000DBFD872002F0D8FD002002F0D5FD9920FB
:1032F00002F0D2FD002002F0CFFDBB2002F0CCFD99
:10330000002002F0C9FD992002F0C6FD002002F065
:10331000C3FD772002F0C0FD002002F0BDFD442077
:1033200002F0BAFD002002F0B7FD562002F0B4FD15
:10333000002002F0B1FD232002F0AEFD002002F0DB
:10334000ABFD332002F0A8FD002002F0A5FD4520D2
:1033500002F0A2FD002002F09FFDE82002F0A8FD8F
:10336000002002F099FD002002F096FD992002F065
:1033700093FD002002F090FD872002F08DFD0020DB
:1033800002F08AFD882002F087FD002002F084FD13
:10339000772002F081FD002002F07EFD662002F021
:1033A0007BFD002002F078FD882002F075FD0020F2
:1033B00002F072FDAA2002F06FFD002002F06CFD09
:1033C000BB2002F069FD002002F066FD992002F0AA
:1033D00063FD002002F060FD662002F05DFD00202C
:1033E00002F05AFD552002F057FD002002F054FD76
:1033F000552002F051FD002002F04EFD442002F065
:103400004BFD002002F048FD442002F045FD002065
:1034100002F042FD552002F03FFD002002F03CFD8D
:10342000E92002F045FDAA2002F036FD002002F05E
:1034300033FD002002F030FD002002F02DFD0020C1
:1034400002F036FDAA2002F027FDCF2002F030FD69
:10345000002002F021FD002002F01EFD002002F0FD
:103460001BFD002002F018FD002002F015FD0020D9
:1034700002F012FD002002F00FFD002002F00CFD12
:10348000002002F009FD002002F006FD002002F0FD
:1034900003FD002002F000FD002002F0FDFC0020F2
:1034A00002F0FAFC002002F0F7FC002002F0F4FC2D
:1034B000002002F0F1FCF02002F0FAFC002002F003
:1034C000EBFC502002F0E8FC002002F0E5FC0020BC
:1034D00002F0E2FC002002F0DFFCF32002F0E8FC46
:1034E000002002F0D9FCF92002F0E2FC062002F0F4
:1034F000D3FC102002F0D0FC292002F0CDFC0020EB
:1035000002F0CAFC3A2002F0D3FC552002F0C4FCC1
:10351000112002F0CDFC642006F024FC292002F0EA
:10352000C7FC352002F0C4FC002002F0B5FC51209D
:1035300002F0BEFCFF2002F0AFFC532002F0B8FC0A
:103540002C2002F0A9FC552002F0B2FC822002F0EF
:10355000A3FC2C2002F0ACFC02F0E6B8FE48808808
:1035600045F2105188427DD155214FF4704002F050
:10357000B5FCAA214FF2010002F0B0FC52214FF23B
:10358000020002F0ABFC08214FF2030002F0A6FC9F
:1035900001214FF2040002F0A1FC0D214FF4304054
:1035A00002F09CFC0D214BF2010002F097FC0D2172
:1035B0004BF2020002F092FC34214FF4364002F04C
:1035C0008DFC34214BF2016002F088FC34214BF277
:1035D000026002F083FC0D214FF4314002F07EFCCA
:1035E0000D214BF2011002F079FC0D214BF202107B
:1035F00002F074FC34214FF4374002F06FFC3421A8
:103600004BF2017002F06AFC34214BF2027002F0BE
:1036100065FC00214FF4324002F060FC00214BF2C7
:10362000012002F05BFC00214BF2022002F056FC6C
:1036300024214FF4384002F051FC24214BF60100C4
:1036400002F04CFC24214BF6020002F047FC012161
:103650004FF43F4002F042FC0F214FF4334002F0A0
:103660003DFC00E0FDE30F214BF2013002F036FC9F
:103670000F214BF2023002F031FC34214FF439407B
:1036800002F02CFC34214BF6011002F027FC34210F
:103690004BF6021002F022FC08214FF4354002F0F4
:1036A0001DFC08214BF2015002F018FC08214BF2DE
:1036B000025002F013FC03214FF4424002F00EFCD2
:1036C00024214FF43A4002F009FC24214BF601205A
:1036D00002F004FC24214BF6022002F0FFFB002143
:1036E0004FF43C4002F0FAFB78214BF6014002F027
:1036F000F5FB00214BF6024002F0F0FB00214FF4F5
:103700003D4002F0EBFB78214BF6015002F0E6FB66
:1037100000214BF6025002F0E1FB00214FF43E4045
:1037200002F0DCFB64214BF6016002F0D7FB0021C4
:103730004FF4514002F0D2FB33214DF2011002F060
:10374000CDFB00214DF2021002F0C8FB34214DF2F6
:10375000031002F0C3FB00214DF2041002F0BEFB87
:103760003A214DF2051002F0B9FB00214DF206108E
:1037700002F0B4FB4A214DF2071002F0AFFB00212A
:103780004DF2081002F0AAFB5C214DF2091002F084
:10379000A5FB00214DF20A1002F0A0FB81214DF2A1
:1037A0000B1002F09BFB00214DF20C1002F096FB77
:1037B000A6214DF20D1002F091FB00214DF20E10EA
:1037C00002F08CFBE5214DF20F1002F087FB012186
:1037D0004DF2101002F082FB13214DF2111002F095
:1037E0007DFB01214DF2121002F078FB54214DF2C5
:1037F000131002F073FB01214DF2141002F06EFB66
:1038000082214DF2151002F069FB01214DF21610D4
:1038100002F064FBCA214DF2171002F05FFB022197
:103820004DF2181002F05AFB00214DF2191002F06F
:1038300055FB02214DF21A1002F050FB01214DF20E
:103840001B1002F04BFB02214DF21C1002F046FB54
:1038500034214DF21D1002F041FB02214DF21E10E9
:1038600002F03CFB67214DF21F1002F037FB0221F2
:103870004DF2201002F032FB84214DF2211002F0B3
:103880002DFB02214DF2221002F028FBA4214DF263
:10389000231002F023FB02214DF2241002F01EFB44
:1038A000B7214DF2251002F019FB02214DF226102E
:1038B00002F014FBCF214DF2271002F00FFB022182
:1038C0004DF2281002F00AFBDE214DF2291002F021
:1038D00005FB02214DF22A1002F000FBF2214DF20D
:1038E0002B1002F0FBFA02214DF22C1002F0F6FA36
:1038F000FE214DF22D1002F0F1FA03214DF22E10AF
:1039000002F0ECFA10214DF22F1002F0E7FA032139
:103910004DF2301002F0E2FA33214DF2311002F094
:10392000DDFA03214DF2321002F0D8FA6D214DF28A
:10393000331002F0D3FA00214FF4524002F0CEFAD5
:1039400033214DF2012002F0C9FA00214DF202208C
:1039500002F0C4FA342101E0580200204DF20320A5
:1039600002F0BCFA00214DF2042002F0B7FA3A212D
:103970004DF2052002F0B2FA00214DF2062002F0CD
:10398000ADFA4A214DF2072002F0A8FA00214DF2CB
:10399000082002F0A3FA5C214DF2092002F09EFA01
:1039A00000214DF20A2002F099FA81214DF20B20FC
:1039B00002F094FA00214DF20C2002F08FFAA621B9
:1039C0004DF20D2002F08AFA00214DF20E2002F095
:1039D00085FAE5214DF20F2002F080FA01214DF227
:1039E000102002F07BFA13214DF2112002F076FA3A
:1039F00001214DF2122002F071FA54214DF21320F0
:103A000002F06CFA01214DF2142002F067FA8221D3
:103A10004DF2152002F062FA01214DF2162002F05B
:103A20005DFACA214DF2172002F058FA02214DF238
:103A3000182002F053FA00214DF2192002F04EFA3C
:103A400002214DF21A2002F049FA01214DF21B2009
:103A500002F044FA02214DF21C2002F03FFA342118
:103A60004DF21D2002F03AFA02214DF21E2002F022
:103A700035FA67214DF21F2002F030FA02214DF293
:103A8000202002F02BFA84214DF2212002F026FAA8
:103A900002214DF2222002F021FAA4214DF223202E
:103AA00002F01CFA02214DF2242002F017FAB7218D
:103AB0004DF2252002F012FA02214DF2262002F0EA
:103AC0000DFACF214DF2272002F008FA02214DF223
:103AD000282002F003FADE214DF2292002F0FEF93F
:103AE00002214DF22A2002F0F9F9F2214DF22B20A9
:103AF00002F0F4F902214DF22C2002F0EFF9FE2140
:103B00004DF22D2002F0EAF903214DF22E2002F0B1
:103B1000E5F910214DF22F2002F0E0F903214DF2DA
:103B2000302002F0DBF933214DF2312002F0D6F9DA
:103B300003214DF2322002F0D1F96D214DF23320F4
:103B400002F0CCF900214FF4534002F0C7F93321C1
:103B50004DF2013002F0C2F900214DF2023002F0C4
:103B6000BDF934214DF2033002F0B8F900214DF2D5
:103B7000043002F0B3F93A214DF2053002F0AEF90B
:103B800000214DF2063002F0A9F94A214DF207302A
:103B900002F0A4F900214DF2083002F09FF95C21F7
:103BA0004DF2093002F09AF900214DF20A3002F08C
:103BB00095F981214DF20B3002F090F900214DF280
:103BC0000C3002F08BF9A6214DF20D3002F086F98F
:103BD00000214DF20E3002F081F9E5214DF20F3057
:103BE00002F07CF901214DF2103002F077F9132137
:103BF0004DF2113002F072F901214DF2123002F053
:103C00006DF954214DF2133002F068F901214DF2A3
:103C1000143002F063F982214DF2153002F05EF9A2
:103C200001214DF2163002F059F9CA214DF2173038
:103C300002F054F902214DF2183002F04FF9002140
:103C40004DF2193002F04AF902214DF21A3002F019
:103C500045F901214DF21B3002F040F902214DF2ED
:103C60001C3002F03BF934214DF21D3002F036F9E0
:103C700002214DF21E3002F031F967214DF21F3062
:103C800002F02CF902214DF2203002F027F98421B4
:103C90004DF2213002F022F902214DF2223002F0E1
:103CA0001DF9A4214DF2233002F018F902214DF242
:103CB000243002F013F9B7214DF2253002F00EF94D
:103CC00002214DF2263002F009F9CF214DF22730C2
:103CD00002F004F902214DF2283002F0FFF8DE2153
:103CE0004DF2293002F0FAF802214DF22A3002F0AA
:103CF000F5F8F2214DF22B3002F0F0F802214DF2EE
:103D00002C3002F0EBF8FE214DF22D3002F0E6F8F7
:103D100003214DF22E3002F0E1F810214DF22F3048
:103D200002F0DCF803214DF2303002F0D7F83321F5
:103D30004DF2313002F0D2F803214DF2323002F070
:103D4000CDF86D214DF2333002F0C8F800214FF468
:103D5000544002F0C3F833214DF2014002F0BEF8A6
:103D600000214DF2024002F0B9F834214DF2034037
:103D700002F0B4F800214DF2044002F0AFF83A210D
:103D80004DF2054002F0AAF800214DF2064002F083
:103D9000A5F84A214DF2074002F0A0F800214DF2AB
:103DA000084002F09BF85C214DF2094002F096F8C1
:103DB00000214DF20A4002F091F881214DF20B40B2
:103DC00002F08CF800214DF20C4002F087F8A62199
:103DD0004DF20D4002F082F800214DF20E4002F04B
:103DE0007DF8E5214DF20F4002F078F801214DF207
:103DF000104002F073F813214DF2114002F06EF8FA
:103E000001214DF2124002F069F854214DF21340A5
:103E100002F064F801214DF2144002F05FF88221B3
:103E20004DF2154002F05AF801214DF2164002F011
:103E300055F8CA214DF2174002F050F802214DF218
:103E4000184002F04BF800214DF2194002F046F8FC
:103E500002214DF21A4002F041F801214DF21B40BF
:103E600000E006E302F03AF802214DF21C4002F0B5
:103E700035F834214DF21D4002F030F802214DF2A8
:103E80001E4002F02BF867214DF21F4002F026F889
:103E900002214DF2204002F021F884214DF2214010
:103EA00002F01CF802214DF2224002F017F8A42182
:103EB0004DF2234002F012F802214DF2244002F0AC
:103EC0000DF8B7214DF2254002F008F802214DF21D
:103ED000264002F003F8CF214DF2274001F0FEFF0B
:103EE00002214DF2284001F0F9FFDE214DF2294078
:103EF00001F0F4FF02214DF22A4001F0EFFFF22120
:103F00004DF22B4001F0EAFF02214DF22C4001F06E
:103F1000E5FFFE214DF22D4001F0E0FF03214DF2BF
:103F20002E4001F0DBFF10214DF22F4001F0D6FFB3
:103F300003214DF2304001F0D1FF33214DF23140E9
:103F400001F0CCFF03214DF2324001F0C7FF6D219B
:103F50004DF2334001F0C2FF00214FF4554001F013
:103F6000BDFF33214DF2015001F0B8FF00214DF2A9
:103F7000025001F0B3FF34214DF2035001F0AEFFC7
:103F800000214DF2045001F0A9FF3A214DF20550F5
:103F900001F0A4FF00214DF2065001F09FFF4A21DD
:103FA0004DF2075001F09AFF00214DF2085001F048
:103FB00095FF5C214DF2095001F090FF00214DF278
:103FC0000A5001F08BFF81214DF20B5001F086FF6A
:103FD00000214DF20C5001F081FFA6214DF20D5051
:103FE00001F07CFF00214DF20E5001F077FFE5213A
:103FF0004DF20F5001F072FF01214DF2105001F00F
:104000006DFF13214DF2115001F068FF01214DF2B7
:10401000125001F063FF54214DF2135001F05EFF86
:1040200001214DF2145001F059FF82214DF215503B
:1040300001F054FF01214DF2165001F04FFFCA214B
:104040004DF2175001F04AFF02214DF2185001F0D5
:1040500045FF00214DF2195001F040FF02214DF2C1
:104060001A5001F03BFF01214DF21B5001F036FFC9
:1040700002214DF21C5001F031FF34214DF21D5050
:1040800001F02CFF02214DF21E5001F027FF6721A5
:104090004DF21F5001F022FF02214DF2205001F09D
:1040A0001DFF84214DF2215001F018FF02214DF235
:1040B000225001F013FFA4214DF2235001F00EFF16
:1040C00002214DF2245001F009FFB7214DF2255095
:1040D00001F004FF02214DF2265001F0FFFECF2136
:1040E0004DF2275001F0FAFE02214DF2285001F066
:1040F000F5FEDE214DF2295001F0F0FE02214DF2D5
:104100002A5001F0EBFEF2214DF22B5001F0E6FEB9
:1041100002214DF22C5001F0E1FEFE214DF22D5016
:1041200001F0DCFE03214DF22E5001F0D7FE1021EC
:104130004DF22F5001F0D2FE03214DF2305001F02C
:10414000CDFE33214DF2315001F0C8FE03214DF276
:10415000325001F0C3FE6D214DF2335001F0BEFE2E
:1041600000214FF4564001F0B9FE33214DF20160B9
:1041700001F0B4FE00214DF2026001F0AFFE3421E7
:104180004DF2036001F0AAFE00214DF2046001F03F
:10419000A5FE3A214DF2056001F0A0FE00214DF28E
:1041A000066001F09BFE4A214DF2076001F096FE89
:1041B00000214DF2086001F091FE5C214DF2096092
:1041C00001F08CFE00214DF20A6001F087FE812192
:1041D0004DF20B6001F082FE00214DF20C6001F007
:1041E0007DFEA6214DF20D6001F078FE00214DF21A
:1041F0000E6001F073FEE5214DF20F6001F06EFEDE
:1042000001214DF2106001F069FE13214DF21160A1
:1042100001F064FE01214DF2126001F05FFE5421B5
:104220004DF2136001F05AFE01214DF2146001F0CD
:1042300055FE82214DF2156001F050FE01214DF234
:10424000166001F04BFECA214DF2176001F046FEE8
:1042500002214DF2186001F041FE00214DF219607B
:1042600001F03CFE02214DF21A6001F037FE0121FF
:104270004DF21B6001F032FE02214DF21C6001F094
:104280002DFE34214DF21D6001F028FE02214DF279
:104290001E6001F023FE67214DF21F6001F01EFE3B
:1042A00002214DF2206001F019FE84214DF22160BF
:1042B00001F014FE02214DF2226001F00FFEA42154
:1042C0004DF2236001F00AFE02214DF2246001F05C
:1042D00005FEB7214DF2256001F000FE02214DF2EE
:1042E000266001F0FBFDCF214DF2276001F0F6FDC5
:1042F00002214DF2286001F0F1FDDE214DF229602E
:1043000001F0ECFD02214DF22A6001F0E7FDF221FF
:104310004DF22B6001F0E2FD02214DF22C6001F024
:10432000DDFDFE214DF22D6001F0D8FD03214DF29F
:104330002E6001F0D3FD10214DF22F6001F0CEFD73
:1043400003214DF2306001F0C9FD33214DF231609F
:1043500001F0C4FD03214DF2326001F0BFFD6D217B
:104360004DF2336001F0BAFD55214FF4704001F079
:10437000B5FDAA214FF2010001F0B0FD52214FF22C
:10438000020001F0ABFD08214FF2030001F0A6FD91
:1043900000214FF2040001F0A1FDCC214FF4314087
:1043A00001F09CFD00214BF2011001F097FD052169
:1043B0004FF4364001F092FD70214FF4374001F088
:1043C0008DFD70214BF2017001F088FD01214FF449
:1043D000384001F083FD03214BF6010001F07EFD22
:1043E00003214BF6020001F079FD03214BF6030097
:1043F00001F074FD02214FF43C4001F06FFD0021FB
:104400004BF6014001F06AFD00214BF6024001F03D
:1044100065FDD0214FF4494001F060FD02214CF6CA
:10442000011001F05BFD50214CF6021001F056FD29
:1044300050214CF6031001F051FD50214CF60410B0
:1044400001F04CFD00214FF4545001F047FD55217F
:104450004FF4685001F042FD4FF4885001F028FD00
:10446000782005F0A5FC4FF4245001F021FD01F067
:104470005BB9FE48808849F2253188427ED147F6F3
:10448000F001E52001F02AFD4FF48071012001F0D8
:1044900025FD4FF4E061022001F020FD41F23001E2
:1044A000032001F01BFD0021042001F017FD40F264
:1044B0000221082001F012FD0021092001F00EFD6B
:1044C00000210A2001F00AFD00210C2001F006FD68
:1044D00000210D2001F002FD00210F2001F0FEFC63
:1044E0000021102001F0FAFC0721112001F0F6FC58
:1044F0000021122001F0F2FC0021132001F0EEFC5B
:104500000021072001F0EAFC41F29061102001F047
:10451000E5FC40F22721112001F0E0FC9D21122052
:1045200001F0DCFC4FF4C851132001F0D7FC252129
:10453000292001F0D3FC0D212B2001F0CFFC072115
:10454000302001F0CBFC40F20331312001F0C6FCF9
:104550000321322001F0C2FC40F20621352001F097
:10456000BDFC0821362001F0B9FC40F2064137209D
:1045700001F0B4FC4FF44171382000E057E001F045
:10458000ADFC0721392001F0A9FC40F202613C207A
:1045900001F0A4FC08213D2001F0A0FC00215020E6
:1045A00001F09CFCEF21512001F098FC00215220E9
:1045B00001F094FC40F23F11532001F08FFC4FF4C6
:1045C0002741602001F08AFC0121612001F086FC76
:1045D00000216A2001F082FC0021802001F07EFC95
:1045E0000021812001F07AFC0021822001F076FC7C
:1045F0000021832001F072FC0021842001F06EFC78
:104600000021852001F06AFC1021902001F066FC59
:104610004FF4C061922001F061FC40F23311072099
:1046200001F05CFC2221002001F058FC1FE78F48BC
:10463000808849F2283188427ED141F28F01EC20F6
:1046400001F04CFC41F23421EF2001F047FC4FF423
:104650008071012001F042FC4FF4E061022001F082
:104660003DFC41F23001032001F038FC0021042020
:1046700001F034FC40F20221082001F02FFC00215F
:10468000092001F02BFC00210A2001F027FC012168
:104690000C2001F023FC00210D2001F01FFC002163
:1046A0000F2001F01BFC0021102001F017FC072156
:1046B000112001F013FC0021122001F00FFC002159
:1046C000132001F00BFC0121072001F007FC322030
:1046D00005F048FB41F29041102001F0FFFB40F251
:1046E0002721112001F0FAFB322005F03BFB8A2143
:1046F000122001F0F3FB322005F034FB4FF4D051CF
:10470000132001F0EBFB0621292001F0E7FB0D212E
:104710002B2001F0E3FB322005F024FB00212020B8
:1047200001F0DCFB0021212001F0D8FB322005F054
:1047300019FB0021302000E074E001F0CFFB40F2D3
:104740000461312001F0CAFB40F20531322001F052
:10475000C5FB0021352001F0C1FB40F609413620A0
:1047600001F0BCFB4FF40171372001F0B7FB40F2C0
:104770000131382001F0B2FB40F20771392001F01D
:10478000ADFB00213C2001F0A9FB40F60A213D20B1
:1047900001F0A4FB322005F0E5FA0021502001F0E1
:1047A0009DFBEF21512001F099FB0021522001F0E7
:1047B00095FB40F23F11532001F090FB4FF427414D
:1047C000602001F08BFB0121612001F087FB0021BB
:1047D0006A2001F083FB0021802001F07FFB002193
:1047E000812001F07BFB0021822001F077FB00217A
:1047F000832001F073FB0021842001F06FFB002176
:10480000852001F06BFB1021902001F067FB4FF435
:10481000C061922001F062FB40F23311072001F0E9
:104820005DFB24E61148808849F2203188427DD121
:104830000021084601F052FB4FF48071012001F085
:104840004DFB4FF4E061022001F048FB41F23001E2
:10485000032001F043FB0021042001F03FFB40F264
:104860000221082001F03AFB002101E0580200205B
:10487000092001F033FB00210A2001F02FFB012168
:104880000C2001F02BFB00210D2001F027FB002163
:104890000F2001F023FB322005F064FA40F20111F1
:1048A000072001F01BFB322005F05CFA4FF4865123
:1048B000102001F013FB0721112001F00FFB4FF432
:1048C0008871122001F00AFB4FF43061132001F0CF
:1048D00005FB0021292001F001FB44F210012B20EF
:1048E00001F0FCFA0021502001F0F8FAEF215120EC
:1048F00001F0F4FA0021522001F0F0FA40F23F11E9
:10490000532001F0EBFA4FF41C51602001F0E6FA5D
:104910000121612001F0E2FA00216A2001F0DEFAB3
:104920000021802001F0DAFA002100E031E081204E
:1049300001F0D4FA0021822001F0D0FA0021832076
:1049400001F0CCFA0021842001F0C8FA0021852072
:1049500001F0C4FA1021902001F0C0FA0021922049
:1049600001F0BCFA0121932001F0B8FA4FF48871EC
:10497000952001F0B3FA0021972001F0AFFA002151
:10498000982001F0ABFA40F27311072001F0A6FA6B
:104990006DE5FE48808849F2313188427DD141F28F
:1049A0001401E72001F09AFA4FF48071012001F020
:1049B00095FA4FF40071022001F090FA41F23801AB
:1049C000032001F08BFA40F20221082001F086FA60
:1049D0000021092001F082FA00210A2001F07EFA6C
:1049E00000210C2001F07AFA00210D2001F076FA66
:1049F00000210F2001F072FA0021102001F06EFA60
:104A00000721112001F06AFA0021122001F066FA54
:104A10000021132001F062FAC82005F0A3F941F249
:104A20009061102001F05AFA40F22721112001F084
:104A300055FA322005F096F90C21122001F04EFAB9
:104A4000322005F08FF94FF40061132001F046FA8F
:104A50001121292001F042FA0B212B2001F03EFA0E
:104A6000322005F07FF90021202001F037FA40F2D2
:104A70003F11212001F032FA0021302001F02EFAFE
:104A80004FF48371312001F029FA0021322001F026
:104A900025FA4FF40171352000E064E001F01EFAC0
:104AA00041F20A61362001F019FA40F2077137200D
:104AB00001F014FA4FF48371382001F00FFA40F23C
:104AC0000771392001F00AFA40F202413C2001F05E
:104AD00005FA40F60F413D2001F000FA0021502078
:104AE00001F0FCF9EF21512001F0F8F900215220EA
:104AF00001F0F4F940F23F11532001F0EFF94FF4C7
:104B00001C51602001F0EAF90121612001F0E6F971
:104B100000216A2001F0E2F90021802001F0DEF995
:104B20000021812001F0DAF90021822001F0D6F97C
:104B30000021832001F0D2F90021842001F0CEF978
:104B40000021852001F0CAF91021902001F0C6F95A
:104B50004FF4C061922001F0C1F940F233110720F7
:104B600001F0BCF983E48948808845F20841884215
:104B70007ED14FF48071012001F0B0F94FF4E06173
:104B8000022001F0ABF941F23001032001F0A6F957
:104B90000021042001F0A2F940F20721082001F0D1
:104BA0009DF90021092001F099F900210A2001F066
:104BB00095F900210C2001F091F900210D2001F060
:104BC0008DF900210F2001F089F9142005F0CAF8B1
:104BD00041F2B061102001F081F90121112001F0B2
:104BE0007DF90121172001F079F94FF49C71122011
:104BF00001F074F94FF40061132001F06FF90921FD
:104C0000292001F06BF909212A2001F067F9002120
:104C1000A42001F063F90021502001F05FF9EF2199
:104C2000512001F05BF90021522001F057F940F2C8
:104C30003F11532001F052F94FF41C51602001F054
:104C40004DF90121612001F049F900216A2001F0AC
:104C500045F90021802001F041F90021812001F077
:104C60003DF90021822001F039F90021832000E084
:104C700023E001F033F90021842001F02FF9002115
:104C8000852001F02BF91321902001F027F9002154
:104C9000922001F023F90321932001F01FF94FF432
:104CA0008871952001F01AF940F27311072001F084
:104CB00015F9322005F056F8B8E43448808841F2FE
:104CC000055188427ED10021072001F007F93220EA
:104CD00005F048F84FF48E71122001F0FFF8012121
:104CE000A42001F0FBF80F21082001F0F7F80821BB
:104CF0000A2001F0F3F808210D2001F0EFF840F24E
:104D00000771302001F0EAF80721312001F0E6F8C0
:104D100040F20361322001F0E1F84FF4E06133200A
:104D200001F0DCF840F20221342001F0D7F8022132
:104D3000352001F0D3F841F60F71362001F0CEF89E
:104D400040F20771372001F0C9F80021382001F046
:104D5000C5F80021392001F0C1F840F207713A206E
:104D600001F0BCF800213B2001F0B8F807213C20FD
:104D700001F0B4F800213D2001F0B0F8322004F039
:104D8000F1FF0121072001F0A9F801E058020020FD
:104D90000121172001F0A2F8322004F0E3FF4FF4C4
:104DA000BD51102001F09AF840F21721112001F0B6
:104DB00095F84FF48F71122001F090F84FF4706164
:104DC000132000E097E001F089F800212A2001F08B
:104DD00085F80A21292001F081F84FF49F711220F3
:104DE00001F07CF80021502001F078F8EF215120EB
:104DF00001F074F80021522001F070F840F23F11E8
:104E0000532001F06BF84FF41C51602001F066F85C
:104E10000121612001F062F800216A2001F05EF8B2
:104E20000021802001F05AF80021812001F056F87D
:104E30000021822001F052F80021832001F04EF879
:104E40000021842001F04AF80021852001F046F875
:104E50001321902001F042F84FF44071922001F0AC
:104E60003DF80521932001F039F80021952001F04B
:104E700035F80021972001F031F80021982001F049
:104E80002DF84FF48071012001F028F84FF4E06113
:104E9000022001F023F841F23801032001F01EF84E
:104EA0000021042001F01AF800210C2001F016F86E
:104EB00000210F2001F012F80021202001F00EF84F
:104EC0000021212001F00AF82121072001F006F835
:104ED000142004F047FF6121072000F0FFFF142099
:104EE00004F040FF40F27311072000F0F7FF142098
:104EF00004F038FF95E4FE4880884BF20551884263
:104F00007ED10021084600F0E9FF0021084600F0AC
:104F1000E5FF0021084600F0E1FF0021084600F00F
:104F2000DDFF0121A42000F0D9FF142004F01AFFB6
:104F30004FF41C51602000F0D1FF40F20221082004
:104F400000F0CCFF4FF40571302000F0C7FF43F2B2
:104F50001571312000F0C2FF40F20461322000F0F0
:104F6000BDFF40F61661332000F0B8FF42F2112178
:104F7000342000F0B3FF4FF4A851352000F0AEFF0D
:104F800048F20751362000F0A9FF41F207413720CF
:104F900000F0A4FF41F20341382000F09FFF2021E0
:104FA000392000F09BFF1A21902000F097FF00218C
:104FB000102000F093FF0721112000F08FFF002147
:104FC000122000F08BFF0021132000F087FF142037
:104FD00004F0C8FE4FF4E661102000F07FFF40F2BD
:104FE0003711112000F07AFF142004F0BBFE4FF4BB
:104FF000DC71122000F072FF142004F0B3FE00E018
:1050000083E04FF47061132000F068FF80212A20B4
:1050100000F064FF4821292000F060FF142004F014
:10502000A1FE4FF48071012000F058FF4FF4E061C1
:10503000022000F053FF41F23801032000F04EFF40
:1050400040F20221082000F049FF00210A2000F070
:1050500045FF00210C2000F041FF00210D2000F051
:105060003DFF30210E2000F039FF0021502000F0DC
:1050700035FFEF21512000F031FF0021522000F0D8
:105080002DFF40F23F11532000F028FF4FF41C5138
:10509000602000F023FF0121612000F01FFF0021AC
:1050A0006A2000F01BFF1121902000F017FF4FF441
:1050B000C061922000F012FF40F20241932000F004
:1050C0000DFF0221942000F009FF142004F04AFE95
:1050D0000121072000F002FF142004F043FE6121AB
:1050E000072000F0FBFE40F27311072000F0F6FEEF
:1050F0000021202000F0F2FE0021212000F0EEFE31
:105100002221002000F0EAFE0EE3794880884CF26C
:10511000055188427ED10021084600F0DFFE0021C3
:10512000084600F0DBFE142004F01CFE00210846B7
:1051300000F0D4FE0021084600F0D0FE0021084611
:1051400000F0CCFE0021084600F0C8FE0121A4209A
:1051500000F0C4FE142004F005FE4FF41C51602042
:1051600000F0BCFE40F60601082000F0B7FE40F259
:105170000371302000F0B2FE0121312000F0AEFEBC
:105180000421322000F0AAFE4FF48171332000F098
:10519000A5FE4FF44071342000F0A0FE40F2031150
:1051A000352000F09BFE1F21362000F097FE40F2D4
:1051B0000371372000F092FE0121382000F08EFEAE
:1051C0000421392000F08AFE1521902000F086FE8F
:1051D0004FF48261102000F081FE40F2472111203F
:1051E00000F07CFE4FF4DE71122000F077FE4FF4E9
:1051F0006061132000F072FE782004F0B3FD4FF4DC
:105200008071012000F06AFE4FF40071022000F06E
:1052100065FE00E050E041F23001032000F05EFE48
:1052200008210A2000F05AFE00210C2000F056FE52
:1052300020210E2000F052FE00210F2000F04EFE33
:105240000021202000F04AFE0021212000F046FE2F
:105250003D212A2000F042FE142004F083FD2D2180
:10526000292000F03BFE0021502000F037FE4DF2D7
:10527000EF01512000F032FE0021522000F02EFEFE
:1052800040F23F11532000F029FE0021612000F080
:1052900025FE00216A2000F021FE4FF4407192208B
:1052A00000F01CFE0521932000F018FE4FF48071E1
:1052B000072000F013FE37E20D48808844F2315198
:1052C00088427CD10121002000F008FE0A2004F071
:1052D00049FD41F22861102000F000FE0E2112204D
:1052E00000F0FCFD40F63921132000F0F7FD01E04D
:1052F000580200200A2004F035FD4021112000F062
:10530000EDFD5021152000F0E9FD0A2004F02AFDF2
:105310001E21122000F0E2FD0A2004F023FD4FF4CC
:10532000B151102000F0DAFD42F63921132000F0CF
:10533000D5FD0A2004F016FD4FF48071012000F025
:10534000CDFD4FF44071022000F0C8FD41F238015C
:10535000032000F0C3FD40F20221082000F0BEFD52
:1053600008210A2000F0BAFD0021302000F0B6FD2F
:1053700040F20241312000F0B1FD4FF48371322040
:1053800000F0ACFD40F20351332000F0A7FD4FF4D4
:105390008271342000F0A2FD40F20131352000F08E
:1053A0009DFD40F20771362000F098FD40F2053176
:1053B000372000F093FD4FF40271382000E040E008
:1053C00000F08CFD40F60B71392000F087FD0221C2
:1053D000412000F083FD4FF41C51602000F07EFD61
:1053E0000121612000F07AFD4FF40471902000F05B
:1053F00075FD4FF48571922000F070FD042193201B
:1054000000F06CFD4FF48071A02000F067FD0121D9
:10541000072000F063FD2121072000F05FFD23211C
:10542000072000F05BFD3321072000F057FD40F21C
:105430003311072000F052FD0021A02000F04EFDA6
:1054400072E1BF48808844F2355188427ED13021D4
:10545000152000F043FD10219A2000F03FFD20218F
:10546000112000F03BFD43F22841102000F036FDF2
:105470000221122000F032FD41F23801132000F029
:105480002DFD282004F06EFC1221084600F026FDB8
:10549000282004F067FC43F22041102000F01EFD9C
:1054A00043F23801132000F019FD462004F05AFCA5
:1054B0000021302000F012FD40F20241312000F0C6
:1054C0000DFD40F20731322000F008FD4FF441712C
:1054D000332000F003FD0421342000F0FFFC40F2F3
:1054E0000141352000F0FAFC40F20771362000F04F
:1054F000F5FC40F20531372000F0F0FC4FF4C261BA
:10550000382000F0EBFC4FF4C261392000F0E6FCDB
:105510004FF48071012000F0E1FC4FF44071022053
:1055200000F0DCFC41F23001032000F0D7FC40F633
:105530000801082000F0D2FC08210A2000F0CEFC6F
:105540004FF41C51602000F0C9FC00E031E0012163
:10555000612000F0C3FC4FF49F71902000F0BEFC6E
:105560004FF48071922000F0B9FC4FF480719320C9
:1055700000F0B4FC4FF44051A02000F0AFFC10212B
:10558000A32000F0ABFC0121072000F0A7FC2121A3
:10559000072000F0A3FC2321072000F09FFC33210B
:1055A000072000F09BFC40F23311072000F096FC2E
:1055B000BAE06348808841F663118842F8D1E2205E
:1055C00000F076FC232000F067FC022000F064FC71
:1055D000042000F061FC642004F0EAFBE02000F00D
:1055E00067FC012000F058FC0A2004F0BBFBE0201F
:1055F00000F05EFC032000F04FFC0C2004F0B2FB36
:10560000012000F055FC0A2004F0ACFBE62000F07D
:105610004FFC032000F040FCFF2000F03DFCFF2089
:1056200000F03AFCB02000F043FC202000F034FCF5
:10563000002000F031FC032000F02EFC40F21F306F
:1056400000F02AFC012000F027FC40F2DF1000F0FF
:1056500023FC002000F020FCB42000F029FC0420F2
:1056600000F01AFC40F21F4000F016FC002000F091
:1056700013FCD22000F010FC002000F00DFC0020F4
:1056800000F00AFC002000F007FC002000F004FC01
:10569000B62000F00DFC022000F0FEFB4FF403707A
:1056A00000F0FAFB002000F0F7FB222000F0F4FBF2
:1056B000092000F0F1FB002000F0EEFB002000F0DC
:1056C000EBFBF02000F0F4FB032000F0E5FB2920C9
:1056D00000F0EEFBD02000F0EBFB002000F0DCFB44
:1056E000BE2000F0E5FB052000F0D6FBFE2000F018
:1056F000D3FB012000F0D0FBFF2000F0CDFB002009
:1057000000F0CAFBB82000F0D3FB0F2000F0C4FB70
:10571000012000F0C1FBBA2000F0CAFB012000F01C
:10572000BBFB642000F032F80020FCF75BFA01209C
:10573000044908604FF6FF70FCF71EFA1FB000BD69
:10574000580200208081214210B50246012000E06D
:1057500050430B00A1F10104E1B2F9D110BD0000EA
:1057600008B5034800880090BDF8000008BD00009F
:105770000008006C01B5BDF8000000F099FB0520A1
:1057800004F016FBFFF7ECFF08BD00002DE9F04721
:105790000446BE2000F08CFB052000F07DFB204677
:1057A00004F093FE07464FF066320C4B04F0A0FE67
:1057B000054604F05DFE1FFA80F9484600F06CFBD8
:1057C000012000F069FBFF2000F066FB002000F0E4
:1057D00063FB002000F060FBBDE8F08766660440D4
:1057E000F0B5054600240027B748807901280BD181
:1057F000B548808846F60401884205D0B2488088C2
:1058000041F66311884208D1AF488079F0B9AE48BB
:10581000808841F66311884218D1082D15D2DFE83F
:1058200005F00406080A0C0E101206250DE00725E7
:105830000BE0042509E0052507E0012505E000252A
:1058400003E0032501E0022500BF00BF9E488088D9
:1058500049F24131884217D09B48808846F60401BE
:10586000884211D09848808845F2103188420BD088
:105870009548808845F21051884205D0924880882A
:1058800041F6631188427DD1082D1CD2DFE805F076
:105890000406090C0F12151800BF14E044F0800430
:1058A00011E044F040040EE044F0C0040BE044F08A
:1058B000200408E044F0600405E044F0A00402E0A5
:1058C00044F0E00400BF00BF7F48808845F21051DB
:1058D000884202D14FF4585700E036277A48808832
:1058E00045F2103188420DD07748808845F210513A
:1058F000884207D07448808841F66311884201D0FD
:1059000044F008047048808846F60401884201D1BA
:1059100044F002042146384600F0E0FA6A488088E4
:1059200041F6631188421DD004F0200068B166483A
:10593000008865494988884214DA634806884088A7
:1059400061490880084646800CE05F4800885E494F
:105950004988884206DD5C48068840885A490880A4
:10596000084646805848808845F21051884254D1F4
:105970005549488900F09CFA002000F08DFA524900
:10598000498900E078E0491C88B200F091FA0020D3
:1059900000F082FA4C494989891C88B200F088FAE3
:1059A00049490988491EC1F30F2000F075FA46499C
:1059B0004989C91C88B200F07BFA43490978491E1D
:1059C000C8B200F069FA4049888900F071FA0020F5
:1059D00000F062FA3C498989491C88B200F068FAF3
:1059E000002000F059FA38498989891C88B200F0F2
:1059F0005FFA35494988491EC1F30F2000F04CFA7F
:105A000031498989C91C88B200F052FA2E49897837
:105A1000491EC8B200F040FA55E02B49488900F011
:105A200047FA002000F038FA002000F035FA264945
:105A30000988491EC1F30F2000F02EFA2249097887
:105A4000491EC8B200F028FA1F49888900F030FAD0
:105A5000002000F021FA002000F01EFA1A494988BF
:105A6000491EC1F30F2000F017FA17498978491E23
:105A7000C8B200F011FA26E0082D1CD2DFE805F0CC
:105A800004070A0D0F12151844F0300413E044F017
:105A9000100410E044F020040DE000BF0BE044F0DF
:105AA000380408E044F0280405E044F0180402E05B
:105AB00044F0080400BF00BF032744F4805421468B
:105AC000384600F00BFAF0BD5802002030B504460D
:105AD0000D466748808849F24131884205D06448C4
