:020000040800F2
:1000000088C600202D020008BB4D000839130008E7
:10001000B94D0008790A0008F96F000800000000D7
:10002000000000000000000000000000EF68000871
:10003000570D000800000000B34F0008036B0008D4
:10004000470200084702000847020008470200086C
:100050004702000847020008590D0008470200083F
:10006000910D0008C90D0008010E000847020008A4
:10007000470200084702000847020008470200083C
:10008000470200084702000847020008470200082C
:100090004702000847020008470200087D0E0008DA
:1000A000470200084702000847020008470200080C
:1000B00047020008556B0008896B000847020008DA
:1000C00047020008470200084702000847020008EC
:1000D000470200085D6E000847020008470200085A
:1000E00047020008470200084702000847020008CC
:1000F00047020008470200084702000847020008BC
:100100004702000875540008C56B00084702000844
:1001100047020008470200084D6C0008470200082B
:10012000470200084702000847020008470200088B
:1001300000F002F800F06BF80AA090E8000C82448E
:100140008344AAF10107DA4501D100F060F8AFF26B
:10015000090EBAE80F0013F0010F18BFFB1A43F0A5
:10016000010318472CF600004CF600000A444FF03B
:10017000000C10F8013B13F0070408BF10F8014B06
:100180001D1108BF10F8015B641E05D010F8016B4B
:10019000641E01F8016BF9D113F0080F1EBF10F8AF
:1001A000014BAD1C0C1B09D16D1E58BF01F801CBD2
:1001B000FAD505E014F8016B01F8016B6D1EF9D555
:1001C0009142D6D37047000000230024002500266A
:1001D000103A28BF78C1FBD8520728BF30C148BFAA
:1001E0000B607047642900F0D780752900F0D48037
:1001F000782900F00D81632900F09F83732900F0B6
:10020000A483002070471FB51FBD10B510BD00F0BE
:10021000E9FB1146FFF7F7FF0AF05CFA00F007FC74
:1002200003B4FFF7F2FF03BC07F053F80948804717
:1002300009480047FEE7FEE7FEE7FEE7FEE7FEE7C8
:10024000FEE7FEE7FEE7FEE704480549054A064BE0
:1002500070470000056B00083101000888C00020CD
:1002600088C6002088C2002088C20020704710B5D0
:100270004C1084EA530404D54042C1F1000138BF58
:10028000491E1B4204D55242C3F1000338BF5B1E16
:1002900000F05CFA14F0804F04D04042C1F100013C
:1002A00038BF491E14F0004F04D05242C3F100037E
:1002B00038BF5B1E10BD00000FB4044910B503AA7F
:1002C000029800F047FB10BC5DF814FB38000020DA
:1002D0000FB41CB5074B06AA7B44694600900598ED
:1002E00000F009FB0020694600F018FB1CBC5DF81B
:1002F00014FB00004106000070B5044685690068E3
:10030000C10601D5302600E02026C00707D070BD09
:10031000D4E9012130469047206A401C20626D1EBE
:10032000F6D570BD70B5044685690078C00707D161
:1003300070BDD4E9012120209047206A401C206232
:100340006D1EF6D570BD70B50C460546012A05D068
:100350002878800600D5EA69002302E0012305E041
:100360005B1C934202D2E05C0028F9D1A869E61830
:10037000C01AA861286A184428622846FFF7BCFF03
:1003800004E0D5E9012114F8010B9047B442F8D3F9
:100390002846FFF7C7FF70BD2DE9F041064600244F
:1003A00010687529314616A510D0AFF300800028DB
:1003B00002DA404213A507E031688A0701D512A589
:1003C00002E0490704D511A5012401E0AFF3008044
:1003D00000210A2206F1240709E0B0FBF2FCB0FB81
:1003E000F2F302FB1C00303078541846491C0028F8
:1003F000F3D123462A463046BDE8F04100F01DBA4D
:10040000000000002D0000002B0000002000000074
:1004100070B504460D4621461068AFF30080218870
:10042000090502D50F4A7A4402E00E4A7A440E3298
:10043000002104F1240305E000F00F060009965D99
:100440005E54491C0028F7D120780023000704D50A
:10045000702D02D009B1022311322046BDE8704050
:1004600000F0EBB95AF100002DE9F05F894604462F
:100470004FF0000ADFF874B1FB44C0F820A020461A
:10048000E1688847002874D0252806D0D4E90121E6
:100490009047206A401C2062F1E700265F46204614
:1004A000E16888472028054607DB312D05D27819F9
:1004B00010F8200C08B10643F1E7B00701D526F08B
:1004C0000406C4F81CA00027C4F818A02A2D09D0DF
:1004D000284606F0F7FE38B304EB8708303DC8F82D
:1004E000185019E059F8041B204604EB870291616B
:1004F000E1688847012F054618D1E069002820DA15
:1005000026F020061DE0D8F8180000EB800005EB6F
:1005100040003038C8F818002046E1688847054692
:1005200006F0D0FE0028EED1012F0AD02E2D08D1E2
:100530002046E16888477F1C0546022F46F02006CA
:10054000C4DBA069002803DA404246F00106A0613E
:10055000F00701D026F010066C2D0BD0682D09D0C5
:100560004C2D39D06A2D35D0742D35D07A2D33D01D
:1005700016E038E0E1682F4620468847B842054635
:1005800009D16C2F26D04FF48060E16806432046E5
:100590008847054604E06C2F1AD04FF4807006435C
:1005A0000DB3A5F14100192802D8203546F40066A4
:1005B0004A462946204626604E46FFF713FE80B184
:1005C00001280BD0F61D26F0070000F1080956E7B8
:1005D0004020E4E78020D8E70020D6E706F10409B0
:1005E0004DE7284652E7206ABDE8F09F30F1000051
:1005F00040EA0103024630B59B0710D14FF00134A9
:1006000000E008C208C91D1B9D4315EAC41FF8D0AD
:1006100013F0FF0102F8011B0DD01B0AF8E711F8D7
:10062000013B002B02F8013B05D011F8013B002BE8
:1006300002F8013BF3D130BD032A40F2308010F0C4
:10064000030C00F0158011F8013BBCF1020F62446D
:1006500098BF11F801CB00F8013B38BF11F8013BFE
:10066000A2F1040298BF00F801CB38BF00F8013BAB
:1006700011F0030300F08081083AC0F0088051F8BF
:10068000043B083A51F804CBA0E80810F5E7121D26
:100690005CBF51F8043B40F8043BAFF30080D20745
:1006A00024BF11F8013B11F801CB48BF11F8012B11
:1006B00024BF00F8013B00F801CB48BF00F8012B34
:1006C000704700004FF0013C50F8042B51F8043BF8
:1006D0009A4221D1A2EB0C03934313EACC1317D116
:1006E00050F8042B51F8043B9A4215D1A2EB0C03AD
:1006F000934313EACC130BD150F8042B51F8043B6D
:100700009A4209D1A2EB0C03934313EACC13DBD03A
:100710004FF00000704700BFD01A01BAB1FA81F162
:1007200001F0180122FA01F0CB40C1F12001DBB247
:10073000C0B2C01A2CFA01F3D11A914311EAC311C5
:10074000E6D17047704770477047704753EA020C14
:1007500000F069802DE9F04B4FF00006002B1FBF21
:10076000B3FA83F503FA05F424FA05F65E4012BFE6
:100770001643B2FA82F502FA05F4C5F120051EBF50
:1007800022FA05FC44EA0C04203556EA044C4FEAF0
:10079000144418BF641C4FF000084FF00009904249
:1007A00071EB030C39D3002919BFB1FA81F701FAB3
:1007B00007F6B0FA80F700FA07F6C7F120071EBF68
:1007C00020FA07FC46EA0C062037B6FBF4FCA7EB40
:1007D0000507103F07F01F0BCBF120060CFA0BFBAF
:1007E0002CFA06F644BFB3460026202FA4BF5E466F
:1007F0004FF0000B5BEA060C08BF4FF0010B19EB42
:100800000B09ABFB027C48EB0608C01B06FB02CCC5
:100810000BFB03CC71EB0C01C1E70B4602464146D2
:100820004846BDE8F08B13B54FF000004FF00001D3
:10083000AFF30080BDE81C4070472DE9F0470D463E
:1008400099469246044600F124080168880604D5BA
:10085000E06921F01001216000E00120A84201DDE3
:10086000471B00E00027A1697A1902EB0900081A6A
:10087000A0612078C00602D42046FFF73DFD002687
:1008800008E0D4E901211AF806009047206A401CCC
:10089000761C20624E45F4DB2078C0060AD520463F
:1008A000FFF72AFD06E0D4E9012130209047206AB5
:1008B000401C2062381EA7F10107F4DC07E0D4E9F0
:1008C000012118F805009047206A401C2062281E6C
:1008D000A5F10105F3DC2046FFF724FD2078000692
:1008E00002D50220BDE8F0870120FBE701694A1C20
:1008F00002610878704700B58FB0CDE90131002161
:10090000059105497944CDE9031011466846FFF782
:10091000ABFD0FB000BD0000E5FFFFFF0A6802F865
:10092000010B0A60704710B5436913B1AFF3008043
:1009300001E0FFF708FD012010BD127800F124014D
:100940000A7000224A700122EDE711684FF0FF3271
:10095000E9E70000074B70B50D467B44FFF7CBFF7E
:100960000446284600F03AF810B14FF0FF3070BD51
:10097000204670BDAB89000010B5203AC0F00B8056
:10098000B1E81850203AA0E81850B1E81850A0E893
:100990001850BFF4F5AF5FEA027C24BFB1E81850ED
:1009A000A0E8185044BF18C918C0BDE810405FEA5D
:1009B000827C24BF51F8043B40F8043B08BF7047D9
:1009C000D20728BF31F8023B48BF11F8012B28BFDE
:1009D00020F8023B48BF00F8012B7047007B00F075
:1009E00080007047754600F029F8AE46050069465C
:1009F000534620F00700854618B020B5FFF724FCC9
:100A0000BDE820404FF000064FF000074FF000080F
:100A10004FF0000B21F00701AC46ACE8C009ACE890
:100A2000C009ACE8C009ACE8C0098D46704704466F
:100A3000AFF300802046FFF7F3FB0000004870474B
:100A400024C000200948816941F0080181610848FB
:100A5000016821F00F010160016841F003010160AC
:100A600004490020C1F8A0017047000000100240B6
:100A7000040C014000802142FEE770B500254FF4D0
:100A8000803405E0802004F0E3FC08B144B101E0CB
:100A9000641EF7D240F2FF5004F096FC284670BD69
:100AA000032070BD70B5124C0546616B11F0450F07
:100AB000FBD0042004F0CCFC20B1042004F084FC22
:100AC000032070BD012004F0C3FC20B1012004F01C
:100AD0007BFC012070BD2069A84201D0102070BDB0
:100AE00040F2FF50A063606900F0080070BD000094
:100AF0000080014010B500244FF480310E4809E019
:100B0000426B12F0450F05D009B1500705D50324FB
:100B100004200CE0491EF3D2F7E7012004F098FC12
:100B200018B10124204604F04FFC40F2FF5004F0BD
:100B30004BFC204610BD00000080014010B50A4962
:100B4000486B10F0450FFBD0042004F081FC20B16D
:100B5000042004F039FC032010BD40F2FF5004F0E3
:100B600033FC002010BD0000008001402DE9F04161
:100B70001B4C0E4607460025606B10F0450FFBD05E
:100B8000042004F065FC28B1042004F01DFC0320BF
:100B9000BDE8F081012004F05BFC20B1012004F0ED
:100BA00013FC0120F4E72069B84210D140F2FF5055
:100BB00004F00AFC626912F4604F03D0900404D57B
:100BC0001320E5E7100C308007E0500401D5102019
:100BD000DEE7100401D50F20DAE72846D8E7000049
:100BE0000080014010B500244FF480320B4809E02A
:100BF000416B11F0450F05D00AB1480705D5032414
:100C0000042006E0521EF3D2F7E7480603D500247D
:100C1000402004F0D9FB204610BD000000800140B8
:100C20000029016802D041F0010102E04FF6FE7296
:100C3000114001607047000001684FF6FE721140DC
:100C400001600021016041608160C1603149314A29
:100C50000839904203D1486840F00F0006E02D4A61
:100C60001432904204D1486840F0F0004860704768
:100C7000284A2832904203D1486840F47060F5E772
:100C8000244A3C32904203D1486840F47040EDE77A
:100C9000204A5032904203D1486840F47020E5E782
:100CA0001C4A6432904203D1486840F47000DDE78A
:100CB000184A7832904203D1486840F07060D5E716
:100CC000154A111F904203D1086840F00F0006E05A
:100CD000114A1432904204D1086840F0F0000860D4
:100CE00070470D4A2832904203D1086840F4706082
:100CF000F5E7094A3C32904203D1086840F470405D
:100D0000EDE7054A50329042EAD1086840F470207D
:100D1000E5E70000080002400804024030B5026820
:100D200047F6F0739A430C6A8B682343D1E9044574
:100D30002C4323438C692343CC6923434C6A2343CC
:100D40008C6A234313430360CA6842600A68826066
:100D50004968C16030BD704710B50A2007F062F8DD
:100D60000121094800F098FA012806D10749D1F875
:100D7000A00138B10020C1F8A001BDE81040012059
:100D800000F09EB80120F6E70008014000802142F3
:100D900010B50A2007F046F80421094800F07CFA53
:100DA00030B90849D1F8940138B10020C1F8940154
:100DB000BDE81040042000F083B80120F6E70000F1
:100DC000001801400080214210B50A2007F02AF8DF
:100DD0000821094800F060FA30B90849D1F89401B7
:100DE00038B10020C1F89401BDE81040082000F09F
:100DF00067B80120F6E70000001801400000234218
:100E000010B50A2007F00EF81021094800F044FA46
:100E100030B90849D1F8940138B10020C1F89401E3
:100E2000BDE81040102000F04BB80120F6E70000AC
:100E300000180140008021423EB50821002000F04A
:100E40009DF94FF48070002400908DF80440082034
:100E50008DF8050001258DF80650684600F046F82B
:100E600017208DF808008DF809408DF80A408DF89C
:100E70000B5002A803F0A2FF3EBD000010B54FF4D6
:100E80008074204600F022F801280DD1094A002084
:100E9000C2F898010121C2F898110748C0F88C11D6
:100EA00006480178491C01702046BDE8104000F05A
:100EB00007B8000000802242008021422C00002060
:100EC000014908607047000014040140064A0146C9
:100ED00000201268044B0A4014331B680B4202D0F6
:100EE000002A00D0012070470004014030B51A4AA2
:100EF0008379016853B313688B431360111D0B682A
:100F00000468A3430B60017911440B680468234310
:100F10000B60114B083319680468A14319601C1D4C
:100F200021680568A94321604179102905D0114441
:100F30000A68006802430A6030BD196802681143FC
:100F40001960216800680143216030BD00791044B8
:100F500002688A43026030BD000401408000A0F1B5
:100F6000C0400029016802D041F0010101E0024ABD
:100F70001140016070470000FEFF0F0010B5D0E97E
:100F800001121143D0E903231A431143426911436B
:100F900082691143C2691143026A1143426A1143D3
:100FA000826A1143C26A1143026B114302689200C4
:100FB000A2F1C04211608168082907D10168890047
:100FC000A1F1C0410A6842F040020A60416BD1E9D8
:100FD000002342EA03128B688C891B0243EA044314
:100FE0001A430B8A42EA03520B7D896942EA036283
:100FF0000A4301688900A1F1C0414A60C16AB1F5A4
:10100000804F08D000686FF070418000A0F1C040B0
:10101000C0F8041110BD816BD1E9002342EA03122C
:101020008B680C8A1B0243EA04531A430B7D8969BF
:1010300042EA036200680A438000A0F1C040C0F8A1
:10104000042110BD2DE9FC470024494F00944FF0C6
:10105000080A019410204FF04009C7F800A0C7E922
:1010600001094FF48068C7E903480E462546384613
:1010700004F01EFA1020FFF715FD00284DD13D4861
:101080000089000438603720C7E90109C7E903581F
:10109000384604F00DFA3720FFF704FD00283CD154
:1010A000411E07F11400C0E9001A302181600221BD
:1010B000C0E903150121416104F0A2F93320C7F80A
:1010C0000890C7E90050C7E90358384604F0F0F922
:1010D0003320FFF7E7FC05001FD1DFF89C804FF4B9
:1010E000001A6F4640F22A69D8F8340010EA090F56
:1010F0000BD1504604F0ACF90028F5D004F0D2F939
:1011000047F82400641C022CEED3082004F0A0F958
:1011100028B1082004F058F90420BDE8FC8702201B
:1011200004F096F920B1022004F04EF90220F4E711
:10113000202004F08DF920B1202004F045F906208C
:10114000EBE74FF40074204604F082F920B120460A
:1011500004F03AF90720E0E740F2FF5004F034F9D8
:10116000009800BA7060019800BA30602846D4E751
:10117000101200201C0000200080014010B58A07DA
:1011800021F003040649120F21440F238C68934079
:101190009C438C608B68904003438B6010BD0000C3
:1011A00000000140F0B5CC78002204F00F03E40603
:1011B00001D58C7823430C784FF00F0C14F0FF0FFF
:1011C0004FF0010E1BD005680E880EFA02F426407F
:1011D000A64210D196000CFA06F725EA070703FA93
:1011E00006F5CE783D43282E02D0482E02D002E0EC
:1011F000446100E00461521C082AE5D305600A88B6
:10120000FF2A1CD94468002202F108060EFA06F5EE
:101210000E882E40AE420ED196000CFA06F7BC4363
:1012200003FA06F7CE783C43282E00D14561CE78EC
:10123000482E00D10561521C082AE5D34460F0BD58
:10124000F0B5144C002801DAE36900E06368450D4D
:101250002E0185B2C0F30157B540C0F30342032FFE
:1012600005D0C6020AD503269640B34307E023F013
:101270007062636823F07063636002E0AB4343F025
:10128000706201B12A43002801DAE261F0BD6260B8
:10129000F0BD0000000001400246002092680A42B2
:1012A00000D00120704701617047000030B40C4647
:1012B00001461546500700D0012000EBD5006843D9
:1012C000C2B208784B78812809D3402B07D3FF2B73
:1012D00005D0FF2803D07F2B0CD2403B0BE000232E
:1012E000184603E05B1C04F8010BDBB29342F9D310
:1012F00030BC7047413B8138D9B2C0B2C0EB40131B
:1013000003EB801001EB400050430A490C2D0AD03A
:10131000102D0BD0182DEBD1D1F819100144204617
:1013200030BC05F0C3BED1F80910F7E7D1F81110B1
:10133000F4E70000C4BF0020FEE772B6704762B653
:10134000704700007CB5054600211E4800910191C0
:10135000008902041C4802600D2242604022C0E95C
:1013600002211101016104F0A3F8184C606B019097
:10137000014601E0616B019111F0450FFAD00120A7
:1013800004F066F820B1012004F01EF801207CBDB5
:10139000042004F05DF820B1042004F015F80320C7
:1013A0007CBD20690D2801D010207CBD40F2FF508B
:1013B00004F00AF860690090C0F343202870002010
:1013C0007CBD00001C0000201012002000800140A5
:1013D00008B50121442003F005FE1C20ADF80000F3
:1013E00048208DF8030069460648FFF7DBFE012020
:1013F000ADF8000028208DF8030069460248FFF789
:10140000D1FE08BD00180140000801402DE9F0415F
:101410002E4C2F4F2F4D012608B1267001E0207869
:10142000A0B110212846FFF737FFB0B108212846A8
:10143000FFF732FF88B104212846FFF72DFF60B186
:1014400001213846FFF728FF012806D01021284641
:10145000FFF722FF012824D035E00A2006F0E2FC45
:101460000020207010212846FFF716FF80B10821C8
:101470002846FFF711FF70B104212846FFF70CFF43
:1014800058B101213846FFF707FF012807D01AE0BD
:101490000120BDE8F0810220FBE70320F9E70420EA
:1014A000F7E708212846FFF7F7FE01280BD10421B2
:1014B0002846FFF7F1FE012805D101213846FFF744
:1014C000EBFE00B926700020E3E7000014000020C6
:1014D0000008014000180140C0F34511C20AC002D3
:1014E00000EB4110104480B2704700002DE9F0433A
:1014F000174F0646002438887D884543B888A0F5F4
:10150000D041043902D1B879012807D0002108461A
:1015100003F026FA03F016FC0E4815E00020B8711F
:101520004FF02A09A7F80A904FF02B08A7F80C8073
:10153000014603F015FA0120B871A7F80A80A7F850
:101540000C90E7E70680641CAC42FBD3BDE8F08357
:10155000E40100200008006C2DE9F04F4A492A23DD
:101560002B24898845F2105A4FF4305B4FF4285EE3
:101570004FF448754FF0F00C49F241394FF4A07721
:1015800045F210364FF4F07280B13F484FF0010839
:10159000494580F806800780A0F802C001D0B1421A
:1015A0003ED12C2505814381848157E036484FF098
:1015B0000008494580F80680A0F800C0478006D0A2
:1015C000A1F5D04CBCF1040C01D0B1420CD12C25BA
:1015D00005814381A1F5D0438481043B01D0B14210
:1015E00044D10780428041E0514507D1A0F808B0BE
:1015F000A0F80AE04FF42C5181810EE0A1F5C85605
:10160000633E06D022210181202141812121818157
:101610002CE02C210181448183810280458025E0DA
:10162000A1F5D04CBCF1040C09D051450BD1A0F868
:1016300008B0A0F80AE04FF42C53838121E02C2558
:101640000581448109E0A1F5C85CBCF1630C12D0AE
:10165000222303812123438120238381A1F5D043C9
:10166000043B01D0B14201D102804780BDE8F04F78
:10167000002003F0A1B84FF02C0CA0F808C0438163
:10168000848105804280E9E7E40100202DE9F04FE4
:10169000DFF80C81934642460B46B8F804500C0A1A
:1016A000DFF800A19189060A5289A5F513470AF1CE
:1016B0000209413F18D0A5F5A647103F14D0B7F551
:1016C00000771CD04746A5F5C85CBE793F883F1A15
:1016D0007F1EBCF1630C27D0A5F5D04CBCF1040CE7
:1016E0003AD0012E4AD04AE0AAF800204A46A9F88A
:1016F0000060C0B2A9F80000AAF800103AE0AAF809
:101700000020A9F80060521CAAF80020C0B2A9F875
:101710000000AAF80010A9F80040491CAAF800101F
:10172000D8B2A9F8000033E006B9B8B2AAF8002090
:10173000050A4A46A9F80050C7B2A9F80070A9F8EE
:101740000050C0B2A9F80000AAF80010A9F80040A3
:10175000D8B2A9F800000DE0012E00D1B8B2AAF865
:101760000020050A4A46A9F80050C0B2A9F80000B6
:10177000AAF800101480D8B2108009E0B8B201466F
:10178000104603F0E9FAB8F80C00194603F0E4FA41
:10179000B8F80810AAF80010A9F800B0BDE8F08F5A
:1017A000E4010020FE07006C2DE9F8431F4D1F46A1
:1017B0008046AB88089EA3F5D040043802D1A879B2
:1017C000012807D0A2EB0800401C85B20C46DFF8C8
:1017D000609028E02B880846991A0024AC713A469C
:1017E0002A24A3EB08036C812B27491E5B1EAF81C3
:1017F00089B29BB20096FFF7D7FF0120A8716F81D5
:10180000AC81BDE8F8832146404603F0A9F803F017
:1018100099FA0020494602E00E80401C80B2A8429E
:10182000FAD3641CA4B2BC42EDD9EAE7E40100207B
:101830000008006C2DE9F04F01210E029FB03046E8
:1018400003F0B8FB01214FF4B47003F0CBFB012788
:10185000ADF83C704FF010088DF83F8003248DF8F0
:101860003E400FA9FE48FFF79DFC4CF23370ADF8E7
:101870003C0018258DF83F508DF83E400FA9F948DF
:10188000FFF790FC4FF68070ADF83C008DF83F50AC
:101890008DF83E400FA9F448FFF784FC41F20100A7
:1018A000ADF83C008DF83F508DF83E400FA9EF4851
:1018B000FFF778FC00200F21CDE918011A901B904A
:1018C0001C901D901090CDE91104CDE916071490DD
:1018D00006211590CDE90010CDE90208139004907F
:1018E0003101CDE908010690059007908900CDE906
:1018F0000A010C9017A80D9010A80E906846FFF7EB
:101900003DFB01210620FFF729FB322006F08AFA71
:10191000002002F027FFD64DD64C49F24139A8806D
:1019200046F6040A45F2103B45F210574FF6FF7891
:10193000FF2804D3404502D0B0F5134F70D1D32017
:10194000208002F081FEA88002F07EFEA88002F0D6
:101950007BFE08EA00204146A88002F075FEAA88B6
:101960001043A88048455BD0BF20208002F06CFE69
:10197000A88002F069FEA88002F066FEA88002F04E
:1019800063FE01EA0020A88002F05EFEAA881043F0
:10199000A880504544D0D420208002F055FEA88075
:1019A00002F052FEA88002F04FFE01EA0020A8805B
:1019B00002F04AFEAA881043A880584530D04FF460
:1019C0005A40208002F040FEA8804FF45B40208007
:1019D00002F03AFE01EA0020A8804FF45C4020802B
:1019E00002F032FEAA881043A880B0F5004F7DD0E7
:1019F000B84215D0A120208002F026FEA88002F077
:101A000023FE01EA0020A88002F01EFEA9880843F8
:101A1000A0F5AE41A880613902D141F66310A880DB
:101A2000A98895A0FEF748FCA888924DAD1C4845B2
:101A30007ED1CF20208000202880C1202880302027
:101A40002880ED2020806420288003202880122018
:101A5000288081202880E820208085202880102070
:101A600028807A202880CB202080392028802C20B4
:101A70002880002028803420288002202880F72019
:101A8000208020202880EA202080002028802880B4
:101A9000C02020801B202880C12020800120288099
:101AA000C5202080302028802880C7202080B720B3
:101AB000288036202080482028803A202080552009
:101AC0002880B1202080002028801A202880B6207D
:101AD00020800A202880A2202880F2202080002058
:101AE0002880262020800120288000E051E0E0208E
:101AF00020800F2028802A20288028202880082065
:101B000028800E2028800820288054202880A920A2
:101B10002880432028800A2028800F202880002049
:101B20002880288028802880E1202080002000E074
:101B300031E0288015202880172028800720288061
:101B400011202880062028802B20288056202880DD
:101B50003C20288005202880102028800F20288005
:101B60003F20288028800F2028802B2020800020E4
:101B700028802880012028803F2028802A2020805B
:101B80000020288028802880EF20288011202080B5
:101B900084E0AF8044E7504576D1112020801420A6
:101BA00006F040F9D020208007202880422028809D
:101BB0001D202880D1202080002028801A20288005
:101BC00009202880D22020800120288022202880FF
:101BD000C0202080102028803B20288000202880E2
:101BE0000220288011202880C52020800320288002
:101BF000C8202080002028802520288021202880BF
:101C000005202880002028800A2028806520288040
:101C10002520288077202880502028800F202880A9
:101C200000202880F820208001202880FE202080AD
:101C3000002028800220288020202080362020803C
:101C4000082028803A202080552028802B202080C2
:101C5000002028802880012028803F20288014E050
:101C6000000C014000140140001801400020014018
:101C7000E4010020FE07006C204C43442049443A14
:101C800025780D0A000000000EE02A2020800020A8
:101C90002880288001202880DF202880782006F0F6
:101CA000C1F8292001F02DBC58457DD1ED202080C0
:101CB00001202880FE202880EE202080DE20288041
:101CC00021202880F120208001202880DF20208012
:101CD00010202880C42020808F202880C6202080CB
:101CE00000202880E220288028802880BF202080B3
:101CF000AA202880B02020800D2028800020288065
:101D00000D20288000202880112028800020288095
:101D10001920288000202880212028800020288069
:101D20002D202880002028803D2028800020288029
:101D30005D202880002028805D20288000202880C9
:101D4000B120208080202880002028808B202880BF
:101D5000002028809620288000202880B220208023
:101D6000002028802880022028800020288003204E
:101D7000288000202880B320208000202880288010
:101D80002880288028802880288028802880288013
:101D90002880288028802880288028802880288003
:101DA00028802880288000E0FEE328802880288082
:101DB000B42020808B202880002028809620288036
:101DC00000202880A120288000202880B5202080A5
:101DD00002202880002028800320288000202880DE
:101DE0000420288000202880B62020800020288021
:101DF0002880B72020800020288028803F2028804D
:101E0000002028805E2028800020288064202880F0
:101E1000002028808C20288000202880AC2028806A
:101E200000202880DC202880002028807020288046
:101E3000002028809020288000202880EB20288007
:101E400000202880DC20288000202880B8202080E6
:101E500000202880288028802880288028802880CA
:101E60002880BA20208024202880002028802880F4
:101E70002880C12020802020288000202880542015
:101E8000288000202880FF20288000202880C22071
:101E900020800A202880002028800420288000201C
:101EA0002880C32020803C202880002028803A20E1
:101EB0002880002028803920288000202880372092
:101EC0002880002028803C20288000202880362080
:101ED00028800020288032202880002028802F2081
:101EE0002880002028802C2028800020288029207D
:101EF0002880002028802620288000202880242078
:101F0000288000202880242028800020288023206A
:101F10002880002028803C2028800020288036202F
:101F200028800020288032202880002028802F2030
:101F30002880002028802C2028800020288029202C
:101F40002880002028802620288000202880242027
:101F5000288000202880242028800020288023201A
:101F6000288000202880C420208062202880002033
:101F700028800520288000202880842028800020B8
:101F80002880F02028800020288018202880002029
:101F90002880A42028800020288018202880002065
:101FA000288050202880002028800C2028800020B5
:101FB0002880172028800020288095202880002055
:101FC0002880F320288000202880E6202880002018
:101FD0002880C520208032202880002028804420AE
:101FE00028800020288065202880002028807620F6
:101FF0002880002028808820288000202880C62073
:102000002080202028800020288017202880002081
:1020100028800120288000202880C72020800020E0
:102020002880288028802880C820208000202880C0
:10203000288028802880C9202080002028802880AF
:102040002880288028802880288028802880288050
:10205000288028802880288028802880E0202080F0
:1020600016202880002028801C202880002028801E
:1020700021202880002028803620288000202880E9
:102080004620288000202880522028800020288098
:1020900064202880002028807A2028800020288042
:1020A0008B202880002028809920288000202880EC
:1020B000A820288000202880B9202880002028809F
:1020C000C420288000202880CA2028800020288062
:1020D000D220288000202880D92028800020288035
:1020E000E020288000202880F320288000202880FD
:1020F000E120208016202880002028801C202880B5
:102100000020288022202880002028803620288057
:102110000020288045202880002028805220288008
:102120000020288064202880002028807A202880B1
:10213000002028808B20288000202880992028805B
:1021400000202880A820288000202880B92028800E
:1021500000202880C420288000202880CA202880D1
:1021600000202880D220288000202880D8202880A5
:1021700000202880E020288000202880F32028806C
:1021800000202880E2202080052028800020288050
:102190000B202880002028801B20288000202880F9
:1021A0003420288000202880442028800020288097
:1021B0004F2028800020288061202880002028804F
:1021C00079202880002028808820288000202880EE
:1021D0009720288000202880A620288000202880A2
:1021E000B720288000202880C22028800020288056
:1021F000C720288000202880D12028800020288027
:10220000D620288000202880DD20288000202880FB
:10221000F320288000202880E320208005202880CB
:10222000002028800A202880002028801C20288068
:102230000020288033202880002028804420288007
:1022400000202880502028800020288062202880BC
:10225000002028807820288000202880882028805E
:10226000002028809720288000202880A620288011
:1022700000202880B720288000202880C2202880C5
:1022800000202880C720288000202880D120288096
:1022900000202880D520288000202880DD2028806C
:1022A00000202880F320288000202880E42020803F
:1022B00001202880002028800120288000202880FC
:1022C00002202880002028802A20288000202880C2
:1022D0003C202880002028804B2028800020288057
:1022E0005D202880002028807420288000202880FD
:1022F00084202880002028809320288000202880A7
:10230000A220288000202880B32028800020288058
:10231000BE20288000202880C4202880002028801B
:10232000CD20288000202880D320288000202880ED
:10233000DD20288000202880F320288000202880AD
:10234000E520208000202880288028802880022006
:1023500028800020288029202880002028803C20F8
:102360002880002028804B202880002028805D20A5
:102370002880002028807420288000202880842045
:102380002880002028809320288000202880A220F8
:10239000288000202880B320288000202880BE20AC
:1023A000288000202880C420288000202880CD207C
:1023B000288000202880D320288000202880DC204E
:1023C000288000202880F320288000202880E62014
:1023D00020801120288000202880342028800020A0
:1023E0002880562028800020288076202880002001
:1023F00028807720288000202880662028800020E0
:10240000288088202880002028809920288000208B
:102410002880BB2028800020288099202880002048
:1024200028806620288000202880552028800020D1
:1024300028805520288000202880452028800020E2
:1024400028804320288000202880442028800020E5
:102450002880E720208032202880002028805520F6
:102460002880002028807620288000202880662070
:10247000288000202880672028800020288067206E
:10248000288000202880872028800020288099200C
:10249000288000202880BB202880002028809920C8
:1024A0002880002028807720288000202880442051
:1024B0002880002028805620288000202880232083
:1024C0002880002028803320288000202880452074
:1024D000288000202880E820208000202880288074
:1024E00099202880002028808720288000202880AC
:1024F00088202880002028807720288000202880BD
:1025000066202880002028808820288000202880BD
:10251000AA20288000202880BB2028800020288036
:10252000992028800020288066202880002028808C
:1025300055202880002028805520288000202880D1
:1025400044202880002028804420288000202880E3
:102550005520288000202880E9202080AA2028807B
:1025600000202880288028802080AA202880CF2052
:1025700020800020288028802880288028802880AB
:10258000288028802880288028802880288028800B
:10259000288028802880F02020800020288050205B
:1025A00028800020288000E02CE028802880F3206C
:1025B000208000202880F9202080062028801020FC
:1025C000288029202880002028803A20208055203B
:1025D000288011202080642005F024FC2920208000
:1025E000352020800020288051202080FF20288056
:1025F000532020802C202880552020808220288075
:102600002C20FCE3B8427DD14FF47043552118468D
:1026100002F0A2FB4FF20105AA21284602F09CFB22
:102620006E1C5221304602F097FBAF1C0821384641
:1026300002F092FB4FF204090121484602F08CFBA4
:102640000D214FF4304002F087FB0D214BF20100C9
:1026500002F082FB0D214BF2020002F07DFB4FF4F1
:10266000364A3421504602F077FB34214BF20160A8
:1026700002F072FB34214BF2026002F06DFB4FF46A
:10268000314B0D21584602F067FB0D214BF2011032
:1026900002F062FB0D214BF2021002F05DFB3421CF
:1026A0004FF4374002F058FB34214BF2017002F036
:1026B00053FB34214BF2027002F04EFB00214FF429
:1026C000324002F049FB00214BF2012002F044FBB2
:1026D00000214BF2022002F03FFB24214FF438404E
:1026E00002F03AFB24214BF6010002F035FB2421D5
:1026F0004BF6020002F030FB01214FF43F4002F0A4
:102700002BFB00E0FEE30F214FF4334002F024FBEB
:102710000F214BF2013002F01FFB0F214BF2023070
:1027200002F01AFB34214FF4394002F015FB34213A
:102730004BF6011002F010FB34214BF6021002F0B0
:102740000BFB08214FF4354002F006FB08214BF249
:10275000015002F001FB08214BF2025002F0FCFA9A
:1027600003214FF4424002F0F7FA24214FF43A409B
:1027700002F0F2FA24214BF6012002F0EDFA2421B6
:102780004BF6022002F0E8FA00214FF43C4002F040
:10279000E3FA78214BF6014002F0DEFA00214BF615
:1027A000024002F0D9FA00214FF43D4002F0D4FA81
:1027B00078214BF6015002F0CFFA00214BF602507F
:1027C00002F0CAFA00214FF43E4002F0C5FA64213B
:1027D0004BF6016002F0C0FA00214FF4514002F0C4
:1027E000BBFA33214DF2011002F0B6FA00214DF28E
:1027F000021002F0B1FA34214DF2031002F0ACFAEB
:1028000000214DF2041002F0A7FA3A214DF2051012
:1028100002F0A2FA00214DF2061002F09DFA4A21C0
:102820004DF2071002F098FA00214DF2081002F064
:1028300093FA5C214DF2091002F08EFA00214DF25C
:102840000A1002F089FA81214DF20B1002F084FA8D
:1028500000214DF20C1002F07FFAA6214DF20D106E
:1028600002F07AFA00214DF20E1002F075FAE5211D
:102870004DF20F1002F070FA01214DF2101002F02B
:102880006BFA13214DF2111002F066FA01214DF29C
:10289000121002F061FA54214DF2131002F05CFAAA
:1028A00001214DF2141002F057FA82214DF2151059
:1028B00002F052FA01214DF2161002F04DFACA212F
:1028C0004DF2171002F048FA02214DF2181002F0F2
:1028D00043FA00214DF2191002F03EFA02214DF2A6
:1028E0001A1002F039FA01214DF21B1002F034FAED
:1028F00002214DF21C1002F02FFA34214DF21D106E
:1029000002F02AFA02214DF21E1002F025FA672188
:102910004DF21F1002F020FA02214DF2201002F0B9
:102920001BFA84214DF2211002F016FA02214DF219
:10293000221002F011FAA4214DF2231002F00CFA39
:1029400002214DF2241002F007FAB7214DF22510B2
:1029500002F002FA02214DF2261002F0FDF9CF2119
:102960004DF2271002F0F8F902214DF2281002F082
:10297000F3F9DE214DF2291002F0EEF902214DF2B9
:102980002A1002F0E9F9F2214DF22B1002F0E4F9DD
:1029900002214DF22C1002F0DFF9FE214DF22D1034
:1029A00002F0DAF903214DF22E1002F0D5F91021D0
:1029B0004DF22F1002F0D0F903214DF2301002F049
:1029C000CBF933214DF2311002F0C6F903214DF25B
:1029D000321002F0C1F96D214DF2331002F0BCF952
:1029E00000214FF4524002F0B7F933214DF201209B
:1029F00002F0B2F900214DF2022002F0ADF93421CB
:102A00004DF2032002F0A8F900214DF2042002F05B
:102A1000A3F93A214DF2052002F09EF900214DF272
:102A2000062002F099F94A214DF2072002F094F9AC
:102A300000214DF2082002F08FF95C214DF20920AF
:102A400002F08AF900214DF20A2002F085F9812175
:102A50004DF20B2002F080F900214DF20C2002F023
:102A60007BF9A6214DF20D2002F076F900214DF2FE
:102A70000E2002F071F9E5214DF20F2002F06CF901
:102A800001214DF2102002F067F913214DF21120BF
:102A900002F062F901214DF2122002F05DF9542199
:102AA0004DF2132002F058F901214DF2142002F0EA
:102AB00053F982214DF2152002F04EF901214DF219
:102AC000162002F049F9CA214DF2172002F044F90C
:102AD00002214DF2182002F03FF900214DF2192099
:102AE00002F03AF902214DF21A2002F035F90121E3
:102AF0004DF21B2002F030F902214DF21C2002F0B1
:102B00002BF934214DF21D2002F026F902214DF25D
:102B10001E2002F021F967214DF21F2002F01CF95E
:102B200002214DF2202002F017F984214DF22120DC
:102B300002F012F902214DF2222002F00DF9A42137
:102B40004DF2232002F008F902214DF2242002F078
:102B500003F9B7214DF2252002F0FEF802214DF2D3
:102B6000262002F0F9F8CF214DF2272002F0F4F8E8
:102B700002214DF2282002F0EFF8DE214DF229204B
:102B800002F0EAF802214DF22A2002F0E5F8F221E3
:102B90004DF22B2002F0E0F802214DF22C2002F041
:102BA000DBF8FE214DF22D2002F0D6F803214DF284
:102BB0002E2002F0D1F810214DF22F2002F0CCF897
:102BC00003214DF2302002F0C7F833214DF23120BD
:102BD00002F0C2F803214DF2322002F0BDF86D215F
:102BE0004DF2332002F0B8F800214FF4534002F0C8
:102BF000B3F833214DF2013002F0AEF800214DF26E
:102C0000023002F0A9F834214DF2033002F0A4F8AA
:102C100000214DF2043002F09FF83A214DF20530C8
:102C200002F09AF800214DF2063002F095F84A21A0
:102C30004DF2073002F090F800214DF2083002F01A
:102C40008BF85C214DF2093002F086F800214DF23C
:102C50000A3002F081F881214DF20B3002F07CF84D
:102C600000214DF20C3002F077F8A6214DF20D3024
:102C700002F072F800214DF20E3002F06DF8E521FD
:102C80004DF20F3002F068F801214DF2103002F0E1
:102C900063F813214DF2113002F05EF801214DF27C
:102CA000123002F059F854214DF2133002F054F86A
:102CB00001214DF2143002F04FF882214DF215300F
:102CC00002F04AF801214DF2163002F045F8CA210F
:102CD0004DF2173002F040F802214DF2183002F0A8
:102CE0003BF800214DF2193002F036F802214DF286
:102CF0001A3002F031F801214DF21B3002F02CF8AD
:102D000002214DF21C3002F027F834214DF21D3023
:102D100002F022F802214DF21E3002F01DF8672168
:102D20004DF21F3002F018F802214DF2203002F06F
:102D300013F884214DF2213002F00EF802214DF2F9
:102D4000223002F009F8A4214DF2233002F004F8F9
:102D500002214DF2243001F0FFFFB7214DF2253062
:102D600001F0FAFF02214DF2263001F0F5FFCF21EC
:102D70004DF2273001F0F0FF02214DF2283001F032
:102D8000EBFFDE214DF2293001F0E6FF02214DF28A
:102D90002A3001F0E1FFF2214DF22B3001F0DCFF8F
:102DA00002214DF22C3001F0D7FFFE214DF22D30E3
:102DB00001F0D2FF03214DF22E3001F0CDFF1021A2
:102DC0004DF22F3001F0C8FF03214DF2303001F0F9
:102DD000C3FF33214DF2313001F0BEFF03214DF22C
:102DE000323001F0B9FF6D214DF2333001F0B4FF04
:102DF00000214FF4544001F0AFFF332100E080E3A5
:102E00004DF2014001F0A8FF00214DF2024001F017
:102E1000A3FF34214DF2034001F09EFF00214DF24B
:102E2000044001F099FF3A214DF2054001F094FF72
:102E300000214DF2064001F08FFF4A214DF207407C
:102E400001F08AFF00214DF2084001F085FF5C216E
:102E50004DF2094001F080FF00214DF20A4001F0DF
:102E60007BFF81214DF20B4001F076FF00214DF2F6
:102E70000C4001F071FFA6214DF20D4001F06CFFF6
:102E800000214DF20E4001F067FFE5214DF20F40A9
:102E900001F062FF01214DF2104001F05DFF1321AE
:102EA0004DF2114001F058FF01214DF2124001F0A6
:102EB00053FF54214DF2134001F04EFF01214DF21A
:102EC000144001F049FF82214DF2154001F044FF0A
:102ED00001214DF2164001F03FFFCA214DF217408B
:102EE00001F03AFF02214DF2184001F035FF0021B8
:102EF0004DF2194001F030FF02214DF21A4001F06D
:102F00002BFF00E0FFE201214DF21B4001F024FF06
:102F100002214DF21C4001F01FFF34214DF21D40F3
:102F200001F01AFF02214DF21E4001F015FF67214A
:102F30004DF21F4001F010FF02214DF2204001F040
:102F40000BFF84214DF2214001F006FF02214DF2DA
:102F5000224001F001FFA4214DF2234001F0FCFECC
:102F600002214DF2244001F0F7FEB7214DF2254039
:102F700001F0F2FE02214DF2264001F0EDFECF21DC
:102F80004DF2274001F0E8FE02214DF2284001F009
:102F9000E3FEDE214DF2294001F0DEFE02214DF27A
:102FA0002A4001F0D9FEF2214DF22B4001F0D4FE6F
:102FB00002214DF22C4001F0CFFEFE214DF22D40BA
:102FC00001F0CAFE03214DF22E4001F0C5FE102192
:102FD0004DF22F4001F0C0FE03214DF2304001F0D0
:102FE000BBFE33214DF2314001F0B6FE03214DF21C
:102FF000324001F0B1FE6D214DF2334001F0ACFEE4
:1030000000214FF4554001F0A7FE33214DF201504D
:1030100001F0A2FE00214DF2025001F09DFE34218C
:103020004DF2035001F098FE00214DF2045001F0E2
:1030300093FE3A214DF2055001F08EFE00214DF233
:10304000065001F089FE4A214DF2075001F084FE3E
:1030500000214DF2085001F07FFE5C214DF2095035
:1030600001F07AFE00214DF20A5001F075FE812137
:103070004DF20B5001F070FE00214DF20C5001F0AA
:103080006BFEA6214DF20D5001F066FE00214DF2BF
:103090000E5001F061FEE5214DF20F5001F05CFE93
:1030A00001214DF2105001F057FE13214DF2115045
:1030B00001F052FE01214DF2125001F04DFE54215B
:1030C0004DF2135001F048FE01214DF2145001F071
:1030D00043FE82214DF2155001F03EFE01214DF2DA
:1030E000165001F039FECA214DF2175001F034FE9E
:1030F00002214DF2185001F02FFE00214DF219501F
:1031000001F02AFE02214DF21A5001F025FE0121A4
:103110004DF21B5001F020FE02214DF21C5001F037
:103120001BFE34214DF21D5001F016FE02214DF21E
:103130001E5001F011FE67214DF21F5001F00CFEF0
:1031400002214DF2205001F007FE84214DF2215062
:1031500001F002FE02214DF2225001F0FDFDA421FA
:103160004DF2235001F0F8FD02214DF2245001F000
:10317000F3FDB7214DF2255001F0EEFD02214DF295
:10318000265001F0E9FDCF214DF2275001F0E4FD7A
:1031900002214DF2285001F0DFFDDE214DF22950D1
:1031A00001F0DAFD02214DF22A5001F0D5FDF221A5
:1031B0004DF22B5001F0D0FD02214DF22C5001F0C8
:1031C000CBFDFE214DF22D5001F0C6FD03214DF245
:1031D0002E5001F0C1FD10214DF22F5001F0BCFD29
:1031E00003214DF2305001F0B7FD33214DF2315043
:1031F00001F0B2FD03214DF2325001F0ADFD6D2121
:103200004DF2335001F0A8FD00214FF4564001F07B
:10321000A3FD33214DF2016001F09EFD00214DF22E
:10322000026001F099FD34214DF2036001F094FD3C
:1032300000214DF2046001F08FFD3A214DF205604E
:1032400001F08AFD00214DF2066001F085FD4A2162
:103250004DF2076001F080FD00214DF2086001F0A1
:103260007BFD5C214DF2096001F076FD00214DF2FD
:103270000A6001F071FD81214DF20B6001F06CFDDF
:1032800000214DF20C6001F067FDA6214DF20D60AA
:1032900001F062FD00214DF20E6001F05DFDE521BF
:1032A0004DF20F6001F058FD01214DF2106001F068
:1032B00053FD13214DF2116001F04EFD01214DF23D
:1032C000126001F049FD54214DF2136001F044FDFC
:1032D00001214DF2146001F03FFD82214DF2156095
:1032E00001F03AFD01214DF2166001F035FDCA21D1
:1032F0004DF2176001F030FD02214DF2186001F02F
:103300002BFD00214DF2196001F026FD02214DF246
:103310001A6001F021FD01214DF21B6001F01CFD3E
:1033200002214DF21C6001F017FD34214DF21D60A9
:1033300001F012FD02214DF21E6001F00DFD67212A
:103340004DF21F6001F008FD02214DF2206001F0F6
:1033500003FD84214DF2216001F0FEFC02214DF2BB
:10336000226001F0F9FCA4214DF2236001F0F4FC8D
:1033700002214DF2246001F0EFFCB7214DF22560EF
:1033800001F0EAFC02214DF2266001F0E5FCCF21BC
:103390004DF2276001F0E0FC02214DF2286001F0BF
:1033A000DBFCDE214DF2296001F0D6FC02214DF25A
:1033B0002A6001F0D1FCF2214DF22B6001F0CCFC2F
:1033C00002214DF22C6001F0C7FCFE214DF22D6070
:1033D00001F0C2FC03214DF22E6001F0BDFC102172
:1033E0004DF22F6001F0B8FC03214DF2306001F086
:1033F000B3FC33214DF2316001F0AEFC03214DF2FC
:10340000326001F0A9FC6D214DF2336001F0A4FCA3
:103410005521184601F0A0FCAA21284601F09CFC89
:103420005221304601F098FC0821384601F094FC06
:103430000021484601F090FCCC21584601F08CFC5C
:1034400000214BF2011001F087FC0521504601F0EC
:1034500083FC70214FF4374001F07EFC70214BF269
:10346000017001F079FC01214FF4384001F074FC47
:1034700003214BF6010001F06FFC03214BF6020023
:1034800001F06AFC03214BF6030001F065FC022108
:103490004FF43C4001F060FC00214BF6014001F08C
:1034A0005BFC00214BF6024001F056FCD0214FF4AA
:1034B000494001F051FC02214CF6011001F04CFC96
:1034C00050214CF6021001F047FC50214CF603103D
:1034D00001F042FC50214CF6041001F03DFC0021AB
:1034E0004FF4545001F038FC55214FF4685001F06E
:1034F00033FC4FF488502080782004F0ADFC4FF46A
:1035000024502080FEE3A0F513414FF4E06940F21F
:103510003F1A4FF4274B253924D040F20777C91EB4
:103520007DD04FF4887B08317AD0113979D0A0F55D
:10353000A841083976D0A0F5A8514FF4407B053951
:1035400071D0B1F520416FD0B1F580516DD0A0F5AB
:103550008A4131396AD0091F69D0A0F5C851633951
:1035600066D0CFE747F6F001E52001F0F5FB3146E4
:10357000012001F0F1FB4946022001F0EDFB41F290
:103580003001032001F0E8FB0021042001F0E4FBFE
:1035900040F20221082001F0DFFB0021092001F0A8
:1035A000DBFB00210A2001F0D7FB00210C2001F0F9
:1035B000D3FB00210D2001F0CFFB00210F2001F0F3
:1035C000CBFB0021102001F0C7FB0721112001F0E7
:1035D000C3FB0021122001F0BFFB0021132001F0EA
:1035E000BBFB0021072001F0B7FB41F290611020E6
:1035F00001F0B2FB40F22721112001F0ADFB9D212B
:10360000122001F0A9FB4FF4C851132001F0A4FBD4
:103610002521292001F0A0FB0D212B2009E078E0D5
:1036200034E1D9E1AFE24AE3FEE3FEE3FEE3FEE389
:10363000FEE301F091FB0721302001F08DFB40F209
:103640000331312001F088FB0321322001F084FB9B
:1036500040F20621352001F07FFB0821362001F0E1
:103660007BFB40F20641372001F076FB4FF44171BD
:10367000382001F071FB0721392001F06DFB40F289
:1036800002613C2001F068FB08213D2001F064FB51
:103690000021502001F060FBEF21512001F05CFB84
:1036A0000021522001F058FB5146532001F054FBF9
:1036B0005946602001F050FB0121612001F04CFBD4
:1036C00000216A2001F048FB0021802001F044FB2A
:1036D0000021812001F040FB0021822001F03CFB11
:1036E0000021832001F038FB0021842001F034FB0D
:1036F0000021852001F030FB1021902001F02CFBEF
:103700004FF4C061922001F027FB40F233110720F3
:10371000FEE341F28F01EC2001F01EFB41F2342167
:10372000EF2001F019FB3146012001F015FB49465D
:10373000022001F011FB41F23001032001F00CFBEB
:103740000021042001F008FB40F20221082001F0D2
:1037500003FB0021092001F0FFFA00210A2001F0FB
:10376000FBFA01210C2001F0F7FA00210D2001F0F5
:10377000F3FA00210F2001F0EFFA0021102001F0F0
:10378000EBFA0721112001F0E7FA0021122001F0E5
:10379000E3FA0021132001F0DFFA0121072001F0F4
:1037A000DBFA322004F03EFB41F29041102001F0A0
:1037B000D3FA40F22721112001F0CEFA322004F092
:1037C00031FB8A21122001F0C7FA322004F02AFBD3
:1037D0004FF4D051132001F0BFFA0621292001F047
:1037E000BBFA0D212B2001F0B7FA322004F01AFBAE
:1037F0000021202001F0B0FA0021212001F0ACFAD4
:10380000322004F00FFB0021302001F0A5FA40F235
:103810000461312001F0A0FA40F20531322001F0BC
:103820009BFA0021352001F097FA40F60941362035
:1038300001F092FA4FF40171372001F08DFA40F255
:103840000131382001F088FA3946392001F084FA34
:1038500000213C2001F080FA40F60A213D2001F0D1
:103860007BFA322004F0DEFA0021502001F074FAD5
:10387000EF21512001F070FA0021522001F06CFA82
:103880005146532001F068FA594651E1002108469B
:1038900001F062FA3146012001F05EFA4946022049
:1038A00001F05AFA41F23001032001F055FA0021EB
:1038B000042001F051FA40F20221082001F04CFAF4
:1038C0000021092001F048FA00210A2001F044FA01
:1038D00001210C2001F040FA00210D2001F03CFAFA
:1038E00000210F2001F038FA322004F09BFA40F258
:1038F0000111072001F030FA322004F093FA4FF45E
:103900008651102001F028FA0721112001F024FA35
:103910005B465946122001F01FFA4FF43061132024
:1039200001F01AFA0021292001F016FA44F21001E0
:103930002B2001F011FA0021502001F00DFAEF21A7
:10394000512001F009FA0021522001F005FA5146F8
:10395000532001F001FA4FF41C51602001F0FCF9F2
:103960000121612001F0F8F900216A2001F0F4F949
:103970000021802001F0F0F90021812001F0ECF914
:103980000021822001F0E8F90021832001F0E4F910
:103990000021842001F0E0F90021852001F0DCF90C
:1039A0001021902001F0D8F90021922001F0D4F9E3
:1039B0000121932001F0D0F91946952001F0CCF9AE
:1039C0000021972001F0C8F90021982001F0C4F9E6
:1039D00040F27311072084E341F21401E72001F063
:1039E000BBF93146012001F0B7F94FF40071022014
:1039F00001F0B2F941F23801032001F0ADF940F2D3
:103A00000221082001F0A8F90021092001F0A4F901
:103A100000210A2001F0A0F900210C2001F09CF9FE
:103A200000210D2001F098F900210F2001F094F9F8
:103A30000021102001F090F90721112001F08CF9EC
:103A40000021122001F088F90021132001F084F9EF
:103A5000C82004F0E7F941F29061102001F07CF9F0
:103A600040F22721112001F077F9322004F0DAF931
:103A70000C21122001F070F9322004F0D3F94FF438
:103A80000061132001F068F91121292001F064F987
:103A90000B212B2001F060F9322004F0C3F9002142
:103AA000202001F059F953465146212001F054F9E4
:103AB0000021302001F050F94FF483742146312069
:103AC00001F04AF90021322001F046F94FF401716A
:103AD000352001F041F941F20A61362001F03CF94C
:103AE0003946372001F038F92146382001F034F901
:103AF0003946392001F030F940F202413C2001F012
:103B00002BF940F60F413D2001F026F9002150200D
:103B100001F022F9EF21512001F01EF9002152207D
:103B200001F01AF91946532001F016F94FF41C510F
:103B3000602001F011F90121612001F00DF900214F
:103B40006A2001F009F90021802001F005F9002127
:103B5000812001F001F90021822001F0FDF800210F
:103B6000832001F0F9F80021842001F0F5F800210C
:103B7000852001F0F1F81021902001F0EDF84FF4CC
:103B8000C0619220FEE33146012001F0E5F849468C
:103B9000022001F0E1F841F23001032001F0DCF8ED
:103BA0000021042001F0D8F840F20721082001F09C
:103BB000D3F80021092001F0CFF800210A2001F0FC
:103BC000CBF800210C2001F0C7F800210D2001F0F6
:103BD000C3F800210F2001F0BFF8142004F022F9EF
:103BE00041F2B061102001F0B7F80121112001F07D
:103BF000B3F80121172001F0AFF84FF49C711220A7
:103C000001F0AAF84FF40061132001F0A5F8092192
:103C1000292001F0A1F809212A2001F09DF80021B6
:103C2000A42001F099F80021502001F095F8EF212F
:103C3000512001F091F80021522001F08DF85146F9
:103C4000532001F089F84FF41C51602001F084F8F2
:103C50000121612001F080F800216A2001F07CF848
:103C60000021802001F078F80021812001F074F813
:103C70000021822001F070F80021832001F06CF80F
:103C80000021842001F068F80021852001F064F80B
:103C90001321902001F060F80021922001F05CF8DF
:103CA0000321932001F058F85946952001F054F86B
:103CB00040F27311072001F04FF8322010E100218B
:103CC000072001F049F8322004F0ACF84FF48E716F
:103CD000122001F041F80121A42001F03DF80F214C
:103CE000082001F039F808210A2001F035F80821F0
:103CF0000D2001F031F83946302001F02DF8072170
:103D0000312000E06EE301F027F840F20361322039
:103D100001F022F84C464946332001F01DF840F2EC
:103D20000221342001F018F80221352001F014F8A6
:103D300041F60F71362001F00FF83946372001F0B7
:103D40000BF80021382001F007F80021392001F09C
:103D500003F839463A2000F0FFFF00213B2000F035
:103D6000FBFF07213C2000F0F7FF00213D2000F081
:103D7000F3FF322004F056F80121072000F0ECFF99
:103D80000121172000F0E8FF322004F04BF84FF437
:103D9000BD51102000F0E0FF40F21721112000F08B
:103DA000DBFF4FF48F71122000F0D6FF4FF47061EB
:103DB000132000F0D1FF00212A2000F0CDFF0A21BE
:103DC000292000F0C9FF4FF49F71122000F0C4FFBA
:103DD0000021502000F0C0FFEF21512000F0BCFF77
:103DE0000021522000F0B8FF5146532000F0B4FFEC
:103DF0004FF41C51602000F0AFFF0121612000F062
:103E0000ABFF00216A2000F0A7FF0021802000F016
:103E1000A3FF0021812000F09FFF0021822000F0FD
:103E20009BFF0021832004E05DE05BE123E2DAE216
:103E300081E300F091FF0021842000F08DFF00213C
:103E4000852000F089FF1321902000F085FF59465E
:103E5000922000F081FF0521932000F07DFF0021DA
:103E6000952000F079FF0021972000F075FF0021D8
:103E7000982000F071FF3146012000F06DFF2146CF
:103E8000022000F069FF41F23801032000F064FFD6
:103E90000021042000F060FF00210C2000F05CFFF6
:103EA00000210F2000F058FF0021202000F054FFD7
:103EB0000021212000F050FF2121072000F04CFFBD
:103EC000142003F0AFFF6121072000F045FF14200C
:103ED00003F0A8FF40F27311072000F03DFF14200B
:103EE00003F0A0FFA1E30021084600F035FF002108
:103EF000084600F031FF0021084600F02DFF0021A8
:103F0000084600F029FF0121A42000F025FF00E071
:103F1000E3E0142003F086FF4FF41C542146602098
:103F200000F01AFF40F202252946082000F014FF95
:103F30004FF40571302000F00FFF43F2157131206E
:103F400000F00AFF40F20461322000F005FF40F665
:103F50001661332000F000FF42F21121342000F0FE
:103F6000FBFE4FF4A851352000F0F6FE48F2075151
:103F7000362000F0F1FE41F20741372000F0ECFE60
:103F800041F20341382000F0E7FE2021392000F003
:103F9000E3FE1A21902000F0DFFE0021102000F047
:103FA000DBFE0721112000F0D7FE0021122000F0D7
:103FB000D3FE0021132000F0CFFE142003F032FFC7
:103FC0004FF4E661102000F0C7FE40F237111120D7
:103FD00000F0C2FE142003F025FF4FF4DC71122024
:103FE00000F0BAFE142003F01DFF4FF4706113209F
:103FF00000F0B2FE80212A2000F0AEFE48212920E8
:1040000000F0AAFE142003F00DFF3146012000F05D
:10401000A3FE4946022000F09FFE41F23801032032
:1040200000F09AFE2946082000F096FE00210A20A2
:1040300000F092FE00210C2000F08EFE00210D20E9
:1040400000F08AFE30210E2000F086FE0021502074
:1040500000F082FEEF21512000F07EFE0021522070
:1040600000F07AFE5146532000F076FE2146602093
:1040700000F072FE0121612000F06EFE00216A2036
:1040800000F06AFE1121902000F066FE4FF4C0613E
:10409000922000F061FE40F20241932000F05CFEAD
:1040A0000221942000F058FE142003F0BBFE0121F1
:1040B000072000F051FE142003F0B4FE6121072018
:1040C00000F04AFE40F27311072000F045FE002187
:1040D000202000F041FE0021212000F03DFE2221A1
:1040E00000207DE10021084600F036FE0021084650
:1040F00000F032FE142003F095FE0021084600F087
:104100002BFE0021084600F027FE0021084600F0A3
:1041100023FE0021084600F01FFE0121A42000F02C
:104120001BFE142003F07EFE4FF41C51602000F0B3
:1041300013FE40F60601082000F00EFE40F2037365
:104140001946302000F008FE0121312000F004FE65
:104150000421322000F000FE4FF48171332000F082
:10416000FBFD5C465946342000F0F6FD40F2031199
:10417000352000F0F1FD1F21362000F0EDFD19463D
:10418000372000F0E9FD0121382000F0E5FD042191
:10419000392000F0E1FD1521902000F0DDFD4FF405
:1041A0008261102000F0D8FD40F24721112000F07C
:1041B000D3FD4FF4DE71122000F0CEFD4FF46061AC
:1041C000132000F0C9FD782003F02CFE31460120B9
:1041D00000F0C2FD4FF40071022000F0BDFD41F27D
:1041E0003001032000F0B8FD08210A2000F0B4FDE2
:1041F00000210C2000F0B0FD20210E2000F0ACFDCD
:1042000000210F2000F0A8FD0021202000F0A4FDD7
:104210000021212000F0A0FD3D212A2000F09CFD7E
:10422000142003F0FFFD2D21292000F095FD002131
:10423000502000F091FD4DF2EF01512000F08CFD77
:104240000021522000F088FD5146532000F084FDEB
:104250000021612000F080FD00216A2000F07CFD3B
:104260002146922000F078FD0521932000F074FD96
:104270003146FFF7AFBB0121002000F06DFD0A20A1
:1042800003F0D0FD41F22861102000F065FD0E2101
:10429000122000F061FD40F63921132000F05CFD92
:1042A0000A2003F0BFFD4021112000F055FD5021F0
:1042B000152000F051FD0A2003F0B4FD1E2112204C
:1042C00000F04AFD0A2003F0ADFD4FF4B15110207B
:1042D00000F042FD42F63921132000F03DFD0A2096
:1042E00003F0A0FD3146012000F036FD59460220C2
:1042F00000F032FD41F23801032000F02DFD40F2C4
:104300000221082000F028FD08210A2000F024FDE9
:104310000021302000F020FD40F20241312000F069
:104320001BFD4FF48371322000F016FD40F2035163
:10433000332000F011FD4FF48271342000F00CFDA9
:1043400040F20131352000F007FD3946362000F0FB
:1043500003FD40F20531372000F0FEFC4FF40271FE
:10436000382000F0F9FC40F60B71392000F0F4FC25
:104370000221412000F0F0FC4FF41C51602000F0BD
:10438000EBFC00E0D2E00121612000F0E5FC4FF4FD
:104390000471902000F0E0FC4FF48571922000F051
:1043A000DBFC0421932000F0D7FC3146A02000F074
:1043B000D3FC0121072000F0CFFC2121072000F0D1
:1043C000CBFC2321072000F0C7FC3321072000F09D
:1043D000C3FC40F23311072000F0BEFC0021A020F6
:1043E00000F0BAFC21E13021152000F0B5FC1021CD
:1043F0009A2000F0B1FC2021112000F0ADFC43F226
:104400002841102000F0A8FC0221122000F0A4FC9A
:1044100041F23801132000F09FFC282003F002FD38
:104420001221084600F098FC282003F0FBFC43F220
:104430002041102000F090FC43F23801132000F0DE
:104440008BFC462003F0EEFC0021302000F084FCC1
:1044500040F20241312000F07FFC40F2073132206F
:1044600000F07AFC4FF44171332000F075FC042118
:10447000342000F071FC40F20141352000F06CFC6A
:104480003946362000F068FC40F20531372000F054
:1044900063FC4FF4C2631946382000F05DFC1946F6
:1044A000392000F059FC3146012000F055FC5946F6
:1044B000022000F051FC41F23001032000F04CFCDE
:1044C00040F60801082000F047FC08210A2000F00F
:1044D00043FC4FF41C51602000F03EFC01216120A0
:1044E00000F03AFC4FF49F71902000F035FC31460B
:1044F000922000F031FC3146932000F02DFC4FF467
:104500004051A02000F028FC1021A32000F024FC42
:104510000121072000F020FC2121072000F01CFCD5
:104520002321072000F018FC3321072000F014FCA1
:1045300040F233119DE6E2202080232028800220D3
:10454000288004202880642003F086FCE02020805E
:10455000012028800A2003F065FCE0202080032051
:1045600028800C2003F05EFC012020800A2003F04C
:1045700059FCE620208003202880FF202880288006
:10458000B020208020202880002028800320288040
:1045900040F21F3028800120288040F2DF10288060
:1045A00000202880B42020800420288040F21F4072
:1045B000288000202880D220288000202880288081
:1045C00028802880B6202080022028804FF40370A5
:1045D0002880002028802220288009202880002090
:1045E00028802880F0202080032028802920208017
:1045F000D020208000202880BE2020800520288018
:10460000FE20288001202880FF202880002028808C
:10461000B82020800F20288001202880BA20208008
:1046200001202880642000F0A9F80020FCF794FF06
:1046300004490120C1F880014046FCF757FF1FB034
:10464000BDE8F08F00802142034808B50088ADF82E
:104650000000BDF8000008BD0008006C2DE9F04125
:104660003E4E002425463288824202D972888A4210
:1046700002D80020BDE8F08100F072F9B08849F25C
:104680004138374B41F6631745F2103145F210526D
:10469000404508D0A0F5D04CBCF1040C03D08842B2
:1046A00001D0B84202D14FF02E0C06E0904202D168
:1046B0004FF4385C01E04FF0220CA3F800C0A0F5E5
:1046C0001343203B03D10220401EC0B2FCD2FFF7AF
:1046D000BBFFB388BB42CDD00220401EC0B2FCD28B
:1046E000FFF7B2FF0746B088404503D0884201D0AB
:1046F00090420BD10220401EC0B2FCD2FFF7A4FFB3
:104700000546F8B24FF6FF7303EA0024B088A0F51F
:104710001343253B1AD0A0F58A43353B16D01B1D09
:1047200014D0A0F53543053B10D0B3F580530DD020
:10473000404503D0884201D0904209D1F80AC00216
:10474000A10A40EA411040EAD52093E7384691E7B4
:104750003846BDE8F041FCF7BFBE0000E401002090
:10476000FE07006C044910B50880052003F074FBB7
:10477000BDE81040FFF768BFFE07006C0C4A10B59B
:10478000BE211180941C0521218008F0F8F84FF01B
:104790006632084B08F006F908F0C4F820800120C2
:1047A0002080FF20208000202080208010BD00007D
:1047B000FE07006C66660440F0B5674E0023314684
:1047C000B279898846F6040741F66314012A01D0BC
:1047D0002AB11DE0B9421BD0A14202D118E0A1428A
:1047E00016D1082814D2DFE800F00406080A0C0EDF
:1047F000101206200CE007200AE0042008E0052043
:1048000006E0012004E0002002E0032000E0022096
:10481000A1F5134C45F2103245F21055BCF1410C94
:1048200007D0B94205D0914203D0A94201D0A1429C
:1048300075D1082812D2DFE800F0110406080A0C2E
:104840000E1080230AE0402308E0C02306E0202366
:1048500004E0602302E0A02300E0E023A94202D1AB
:104860004FF4585000E03620914205D0A94203D0C1
:10487000A14201D043F00803B94201D143F0020341
:10488000194600F069FAB288A2420AD09806308828
:10489000718802D5884202D303E0884201D9318071
:1048A00070802E48811CAA427289028021D1002387
:1048B0000B80531C038000230B80931C03803388E0
:1048C0005B1E1C0A0C80D21C0280DAB20A80B289FC
:1048D000028000230B80531C038000230B80931C59
:1048E000038073885B1E1C0A0C80D21C0280D8B225
:1048F00012E000220A800A803288521E130A0B80BE
:10490000D2B20A80B28902800020088008807088B4
:10491000401E020A0A80C0B20880F0BDFFE70828E6
:1049200012D2DFE800F0040608110A0C0E10302342
:104930000AE0102308E0202306E0382304E02823BF
:1049400002E0182300E00823BDE8F040032043F410
:10495000805100F001BA0000E4010020FE07006C65
:104960002DE9F04F4E4F0B463A46BD880C0ADFF852
:1049700034B191895289A5F513464FEA102C0BF1F9
:10498000020A413E1DD0A5F5A646103E19D03E466E
:10499000BE4696F806903688A5F5D047A6EB0008E7
:1049A000A8F10108043F17D0A5F5C857633F28D0E8
:1049B000A5F5AA477646103F51D0B9F1010F63D053
:1049C00064E0ABF800205246AAF800C0C0B2AAF8D2
:1049D0000000ABF800100FE0B9F1010F01D11FFA90
:1049E00088F0ABF80020050A5246AAF80050C0B281
:1049F000AAF80000ABF800101480D8B21080BDE80F
:104A0000F08FB9F1000F1BD0ABF800205246AAF886
:104A100000C0C0B2AAF80000761E300AAAF8000052
:104A2000F0B21080ABF8001011461480D8B210809C
:104A3000BEF80200401E020A0A80C0B20880DEE70B
:104A40001FFA88F0ABF8002000265246AAF8006052
:104A5000AAF80060060AAAF80060C0B2E1E7ABF865
:104A60000020AAF800C0521CABF80020C0B2AAF87F
:104A70000000ABF80010AAF80040491CABF8001089
:104A8000D8B2AAF80000BAE71FFA88F0014610462B
:104A900000F062F9B089BDE8F04F194600F05CB94A
:104AA000E4010020FE07006C2DE9FC4F044691460E
:104AB0004844401E86B2C818401E83B2009004EBE2
:104AC0000900401EC0F3072EDFF850C100980D46C4
:104AD000C0F3072B6046BCF804204FEA11288189F7
:104AE0004089A2F513474FEA142A413F10D0A2F59E
:104AF000A647103F0CD0A2F5D047043F08D09CF841
:104B0000067041F6631C0197012F13D1624511D144
:104B1000434F3880B81CA0F800A0E2B20280A0F891
:104B200000E0F2B202803980A0F80080E9B2018092
:104B300059461CE0394F62453F881DD1A7EB090259
:104B4000121B374C009B92B29BB22080160AA01C0D
:104B50000680D6B206804A44521E160A0680D2B299
:104B600002802180A0F80080E9B20180190A01804A
:104B7000D9B20180BDE8FC8FA2F5A04CBCF5A26CB7
:104B80001FD0019801283FD0B04621462E46502024
:104B90004FF0510A4FF05209532700F0DDF841461B
:104BA000504600F0D9F83146484600F0D5F819468D
:104BB000384600F0D1F829462046BDE8FC4FFFF703
:104BC000CFBE174A1080971CA7F800A000F1010C77
:104BD000A2F800C0E4B23C80841C1480A7F800E076
:104BE000C01C1080F0B238801180A7F80080481CEB
:104BF0001080E8B23880881C1080A7F800B0C91C6B
:104C00001180D8B23880B5E7B81B401E86B2381B79
:104C10009846401E294683B2B9E70000E40100200F
:104C2000FE07006C2DE9F84F82461F460C468B4666
:104C3000580700D0012000EBD70079084843203AFC
:104C4000C0B202F0FF090026009041E00C2F10D006
:104C5000102F12D0182F3ED1204909EBC90001EBCB
:104C600080004FF00008855D28060AD51C480288A0
:104C70000BE009EB49001B49F1E71B4901EB091067
:104C8000EFE70A9828B91648428821465046FCF7B3
:104C9000FDFC6806050E1548641CA4B24088A042BD
:104CA00019D9A4EB0B00B84209D10AF101001FFA8F
:104CB00080FA0E485C46018851450CD906E008F19F
:104CC000010000F0FF08B8F1080FCDD3761CF6B252
:104CD00000988642BAD3BDE8F88F0000A2DC000835
:104CE000160000203ED20008B2D60008E4010020E1
:104CF0002DE9F84F044600F0FF0810190D46DDE9D4
:104D00000A761FFA80FA58191FFA80F94FF0000B43
:104D100011E0544502D3E819444685B24D450FD2FF
:104D20003B4629462046CDF800B0FFF77BFF04EB59
:104D3000570084B2761C3278A2F120005E28E8D9B0
:104D4000BDE8F88F024803490089088070470000D9
:104D5000E4010020FE07006C024A1080901C0180D4
:104D600070470000FE07006C38B50121482000F0B4
:104D700039F92024ADF8004010208DF803000320FD
:104D80000B4D8DF8020069462846FCF70BFA2021EE
:104D90002846FCF788FAADF80040064C69462046E4
:104DA000FCF700FA20212046FCF77DFA38BD000010
:104DB000000C014000180140FEE7704730B50F239A
:104DC000C27801780125F2B1144A126801F1E0219C
:104DD00002F4E062C2F5E062120AC2F10404D340B8
:104DE0004278A24084781C401443220181F80024B8
:104DF000007800F01F018D404009800000F1E020A4
:104E0000C0F8005130BD01F01F0085404809800006
:104E100000F1E020C0F8805130BD00000CED00E052
:104E20000249084302490860704700000000FA0583
:104E30000CED00E0F8B50024012140F23D1000F037
:104E4000D1F84FF48075ADF8005048268DF8036016
:104E50000320354F8DF8020069463846FCF7A2F969
:104E600029463846FCF71FFA1820ADF800002F4FEE
:104E700010258DF8035069463846FCF793F9182140
:104E80003846FCF710FAFF20ADF800008DF80360FB
:104E900069462748FCF786F94020ADF80000254E0A
:104EA0008DF8035069463046FCF77CF940213046C6
:104EB000FCF7F9F94FF44046ADF800608DF8035067
:104EC0001D4D69462846FCF76DF931462846FCF72A
:104ED000EAF901211948FCF7B3F900F0D9F880216B
:104EE000122000F00BFA08B10120F8BD322002F0C8
:104EF00099FF0B2000F05EF9732804D10A2000F01E
:104F000059F9762801D00220F8BD0D4D05EB44007B
:104F1000417815F8140000F0F1F9641CA4B2A82C33
:104F2000F4D30020F8BD000000080140000C01404F
:104F30000010014000140140002001400002300038
:104F4000FEE900082DE9F041054600EB420086B27B
:104F500001EB430084B20F46B4F5447F02D9A4F5B7
:104F60004474A4B2032000F025F906F00302294698
:104F700000F0F00062F39F010143032000F0BEF94E
:104F8000C5F38701192000F0B9F9C6F387011A208B
:104F900000F0B4F9322000F00DF9C7F3C701172073
:104FA00000F0ACF9C4F3C701BDE8F041182000F0EF
:104FB000A5B97047044A0029516901D0014300E0B6
:104FC000814351617047000000100240044A0029EB
:104FD000D16901D0014300E08143D16170470000F5
:104FE00000100240044A0029916901D0014300E009
:104FF00081439161704700000010024030B5204AA3
:105000005168204B11F00C0103D0042901D008296C
:1050100001D0036012E05168536801F470114FF041
:10502000020413F4803F04EB914102D053689B03C8
:1050300001D5154B00E0134B5943016051680F2314
:1050400003EA1111114B5C5C0168E1404160546856
:10505000072505EA14241C5D21FA04F484605468D1
:1050600005EAD4241B5DD940C1605268032303EADA
:105070009232064B1B1F9A5CB1FBF2F1016130BD0D
:105080000010024000127A0000093D00400000209C
:1050900038B501214FF49070FFF7A4FF4FF400558D
:1050A000ADF8005048208DF803000320114C8DF816
:1050B000020069462046FCF775F829462046FCF7B1
:1050C000F2F80820ADF8000010200B4D8DF8030019
:1050D00069462846FCF766F808212846FCF7E3F8FD
:1050E000606820F470006060606840F440106060A8
:1050F00038BD0000002001400014014070B532208E
:1051000002F0AAFE0C4D0120C5F8B4010B4EC6F802
:105110008C01322005F5DA7506F5C67602F09CFEA4
:1051200000243460322002F097FE2C60BDE870400D
:10513000322002F091BE0000000024420080224292
:105140002DE9F047184F0024786820F4700078604B
:10515000786840F400007860DFF85090144E08251D
:105160004FF00108A246322002F076FEC6F88C818C
:105170006006040ED9F8340108B1641CE4B2322090
:1051800002F06AFEC6F88CA16D1E15F0FF05EAD18B
:10519000786820F470007860786840F44010786097
:1051A0002046BDE8F08700000020014000002442B6
:1051B0000080224210B5044600F022F8422000F0A0
:1051C00055F8642002F048FE204600F04FF86420B5
:1051D00002F042FE00F02EF8642002F03DFE00F0E6
:1051E0000FF8432000F042F8642002F035FEFFF78C
:1051F000A7FF0446FFF782FF00F01CF8204610BD11
:1052000070B50A4E0120C6F8B401094DC5F88C01ED
:10521000322005F5C67506F5DA7602F01DFE00248B
:105220003460322002F018FE2C6070BD0000244271
:105230000080224270B50B4C0020C4F8B40132202B
:1052400004F5DA7402F008FE07480125C0F88C5115
:10525000322002F001FE2560BDE87040322002F0ED
:10526000FBBD000000002442008022422DE9F047EF
:1052700000241F4E1F4F0546A0464FF00109280687
:1052800001D5484600E04046C6F8B4016806050E60
:10529000322002F0E1FDC7F88C91322002F0DCFDF3
:1052A000C7F88C81641CE4B2082CE8D3124C606807
:1052B00020F470006060606840F40000606032209C
:1052C00002F0CAFDC7F88C91322002F0C5FDD6F875
:1052D000340100B10120C7F88C81616821F47001AC
:1052E0006160616841F440116160BDE8F0870000D1
:1052F00000002442008022420020014070B50D468B
:1053000006460024FFF77CFF4220FFF7AFFF00B105
:105310000124642002F0A0FD3046FFF7A7FF00B192
:105320000124642002F098FD2846FFF79FFF00B19A
:105330000124FFF77FFF204670BD00002DE9FC41EE
:10534000002600963546019600B102251B484069AB
:10535000800102D50E20BDE8FC81194C69462089E8
:1053600080B2FBF76FFE0028F5D10198400322D5EB
:105370002089144C00044FF0400820603720C4E915
:1053800001084FF480672046C4E9036700F090F8F5
:105390003720FBF787FB0028DDD10620C4F8088002
:1053A000C4E90050C4E90367204600F081F80620F4
:1053B000FBF778FBCFE72520CDE700000080014018
:1053C0001C00002010120020014988637047000073
:1053D000008001400149C1F8A00070470000304240
:1053E000034A516821F0FF010143516070470000FA
:1053F0000080014001490860704700008C05304280
:1054000010B5094902684A6242688A62CA6AD0E9EC
:1054100002342343D0E90440044322F0F70223433B
:105420001343CB6210BD00000080014006480021FC
:10543000016041608160C16041628162C162034A72
:105440008263C1637047000000800140FF07C00015
:10545000034A01460020526B0A4200D001207047E7
:10546000008001400248006800F00300704700001F
:105470000080014000F06CBB30B5094B5A6847F61C
:10548000FF618A43017D8468C568214344682C43D9
:10549000214304680069214301431143596030BD31
:1054A000008001400148D0F8800070470080014032
:1054B00010B5084902688A60CA68D0E901342343FC
:1054C000D0E9034004436FF30A0223431343CB6044
:1054D00010BD00000080014004490A6822F0030268
:1054E0000A600A6802430A607047000000800140B9
:1054F0000149C1F88000704700800140F0B50F46B7
:1055000004468BB0154601210220FFF753FD114ED2
:105510003046FBF791FB00213046FBF781FB0E483C
:1055200080218DE83100B80803900020CDE9040106
:10553000890006918900CDE907108900CDE909109D
:1055400069463046FBF7EAFB00213046FBF768FB73
:105550000BB0F0BD440402408080014010B51049FA
:10556000044600200978032906D019B1012901D089
:10557000022902D1022C01D3272010BDE0B2FFF78F
:10558000DDFE0028F9D107494A6822F4C0524A607A
:105590004A68A3B242EAC3224A604A684A6010BD20
:1055A0001C000020008001402DE9F0478249DFF80F
:1055B0000CA24FF0000C0B7880F856300989A0F847
:1055C0005410DAF800104FF001090A0E9509057021
:1055D000C2F38305457002F0030282700A0CC270A8
:1055E0000A0A02714171DAF80420110E0C01C2F3AB
:1055F000074144EA111401F00F08C480C2F30721E7
:1056000080F80880CC094472C1F380148472C1F31D
:105610004014C472C1F300140473544680F80DC0E2
:10562000A468260EC4F30745C4F3072733B1012B42
:1056300004D0032B02D0022B30D03EE08907090DA5
:10564000D2B241EA820141EA9612C6F3C201026176
:10565000017506F00701417569098175C5F382017D
:10566000C175A9074B0F394643EAD1150576AD1C24
:1056700009FA05F3DE17521CA2FB03570CFB037358
:1056800002FB063309FA08F2A5FB0267026503FB79
:10569000027205FB0C22C0E912620EE09106890A33
:1056A00041EA06222A430261521C530BD204C0E98C
:1056B00012234FF4007239460265C1F3801242761C
:1056C00089064A0EE1B242EAD11200F81A2F01F01F
:1056D0007F014170DAF80C20110ECB098370C1F301
:1056E0004113C370C1F38203037189070B0FC2F327
:1056F000074143EA91134371C1F34013837180F86A
:1057000007C001F001010172C2F30721CB09437206
:10571000C1F380138372C1F34013C372C1F300134A
:105720000373C1F38103437301F003018173C2F377
:105730004601224AC173103280F8109011684B461E
:105740000C0E84740C0CC1F3072545EA04248482F2
:105750000C0651680D0E44EA0544C1F3074544EABE
:105760000524C1F307252C43C0F8164000F81A1F82
:1057700091680C0E44700C0CC1F30725240644EA12
:105780000544C9B244EA0124D16844EA1164C1F372
:1057900007424460047A44EA12140472C1F30724F5
:1057A000120744EA12524281C1F346010173437366
:1057B0006046BDE8F08700001C0000203C1200207D
:1057C0007CB501213020FFF70DFC012140F20240A1
:1057D000FFF7F0FB4FF4F850ADF8000018258DF8F6
:1057E000035003248DF8024069462948FBF7DAFC90
:1057F0000420ADF800008DF80350264D8DF80240CE
:1058000069462846FBF7CEFC8021ADF80010482001
:105810008DF803008DF8024069462846FBF7C2FC6C
:10582000FFF704FE31208DF8040000208DF80500FC
:105830008DF8060001208DF8070001A8FFF7BEFAD9
:1058400000F0B8F8144C80B900F02AF868B9204686
:10585000FFF7AAFE48B9B4F85400000400F05CFC5D
:1058600018B90120FFF77AFE18B10C49097803290D
:105870000AD194F8560040B1012806D00420FFF761
:10588000AFFD002000F05EFC7CBD0A20F7E70000C1
:105890000010014000140140601200201C00002094
:1058A0002DE9F84F0120ADF80000FFF7DBFD88B3CC
:1058B000DFF8F49099F80000042872D03B4C0220E5
:1058C0004FF0C00B0025C4F808B0C4E900504602F0
:1058D000C4E903562046FFF7EBFDFBF70BF9002860
:1058E0001AD1334F796904F13C000160B969416014
:1058F000F9698160396AC16099F800004FF0030AC4
:105900004FF0400850B1012808D0062806D00228E0
:1059100004D012E0FFE72520BDE8F88FC4F8088026
:10592000C4E9005AC4E903562048FFF7C1FD69469F
:105930000320FBF71BF90028EED199F8000003289B
:105940000FD1BDF80000C4F808800004C4E9000AC3
:10595000C4E903561548FFF7ABFDFBF7CBF8002869
:10596000DAD199F8000004281BD0BDF80000C9F86E
:105970000800000420600920C4E9010BC4E90356B3
:105980000A48FFF795FDFBF7B5F80028C4D17969FF
:1059900006482C300160B9694160F9698160396A53
:1059A000C1600020B8E700001C0000201012002099
:1059B000008001402DE9F05F00276048B2213E469B
:1059C0000175076047608760C7603C463D46B94641
:1059D000B8460761FFF750FD0320FFF77DFD01206A
:1059E000FFF7F8FCDFF854A14FF4806B0AF1180AB6
:1059F0005248CAF80080CAF80480CAF80880CAE988
:105A0000038B1830FFF754FDFBF737F828B17F1CE4
:105A1000FFB24A2FECD3BDE8F09F4FF4D570CAF81F
:105A2000000008205746CAF804004020C7E90208D1
:105A30000001CAF8100041481830FFF739FDFBF7A4
:105A4000D1F820B93E4901204FF080490870BA468C
:105A5000384641463722402780E88600C0F80C804F
:105A600036483901C3461830CAF81010FFF720FD38
:105A70003720FBF717F84FF6FF7888B3B94656463C
:105A8000304F4FF0010B4FF4806ABDB34DE05546E7
:105A90003720C5E900B04FF48068CAF81080274865
:105AA000C5E9027B5E461830FFF702FD3720FAF7A2
:105AB000F9FF0028AFD1244949EA010028602920D4
:105AC000C5E90107C5E903681C481830FFF7F0FC79
:105AD000FBF734F800289ED11A494E69F50F641C73
