:020000040800F2
:10000000F80600202D02000847440008770B00087E
:10001000454400085507000871550008000000001D
:100020000000000000000000000000002F4B00084E
:100030005707000800000000A5470008F14B000822
:10004000470200084702000847020008470200086C
:100050004702000847020008590700084702000845
:1000600091070008C90700080108000847020008B6
:10007000470200084702000847020008470200083C
:10008000470200084702000847020008470200082C
:100090004702000847020008470200087D080008E0
:1000A000470200084702000847020008470200080C
:1000B000470200082D4D0008614D00084702000866
:1000C00047020008470200084702000847020008EC
:1000D00047020008D55300084702000847020008FD
:1000E00047020008470200084702000847020008CC
:1000F00047020008470200084702000847020008BC
:1001000047020008470200081D4E00084702000889
:100110004702000847020008A54E000847020008F1
:10012000470200084702000847020008470200088B
:1001300000F002F800F06BF80AA090E8000C82448E
:100140008344AAF10107DA4501D100F060F8AFF26B
:10015000090EBAE80F0013F0010F18BFFB1A43F0A5
:100160000103184738860000588600000A444FF003
:10017000000C10F8013B13F0070408BF10F8014B06
:100180001D1108BF10F8015B641E05D010F8016B4B
:10019000641E01F8016BF9D113F0080F1EBF10F8AF
:1001A000014BAD1C0C1B09D16D1E58BF01F801CBD2
:1001B000FAD505E014F8016B01F8016B6D1EF9D555
:1001C0009142D6D37047000000230024002500266A
:1001D000103A28BF78C1FBD8520728BF30C148BFAA
:1001E0000B607047642900F0B180752900F0AE8083
:1001F000782900F0E780632900F05982732900F024
:100200005E82002070471FB51FBD10B510BD00F005
:1002100071FA1146FFF7F7FF05F092FA00F08FFA36
:1002200003B4FFF7F2FF03BC05F0AAF909488047C1
:1002300009480047FEE7FEE7FEE7FEE7FEE7FEE7C8
:10024000FEE7FEE7FEE7FEE704480549034A054BE3
:1002500070470000F54B000831010008F80200204B
:10026000F8060020F8020020704700000FB404498F
:1002700010B503AA029800F027FA10BC5DF814FB31
:100280005C0000200FB41CB5074B06AA7B446946EE
:100290000090059800F0E9F90020694600F0F8F9AF
:1002A0001CBC5DF814FB00000104000070B504469E
:1002B00085690068C10601D5302600E02026C00708
:1002C00007D070BDD4E9012130469047206A401C18
:1002D00020626D1EF6D570BD70B504468569007844
:1002E000C00707D170BDD4E9012120209047206AC2
:1002F000401C20626D1EF6D570BD70B50C460546DB
:10030000012A05D02878800600D5EA69002302E09A
:10031000012305E05B1C934202D2E05C0028F9D186
:10032000A869E618C01AA861286A184428622846F5
:10033000FFF7BCFF04E0D5E9012114F8010B904759
:10034000B442F8D32846FFF7C7FF70BD2DE9F0414E
:100350000646002410687529314616A510D0AFF363
:100360000080002802DA404213A507E031688A07BE
:1003700001D512A502E0490704D511A5012401E029
:10038000AFF3008000210A2206F1240709E0B0FB48
:10039000F2FCB0FBF2F302FB1C003030785418463C
:1003A000491C0028F3D123462A463046BDE8F041D7
:1003B00000F0FCB8000000002D0000002B00000041
:1003C0002000000070B504460D4621461068AFF3CA
:1003D00000802188090502D50F4A7A4402E00E4ABE
:1003E0007A440E32002104F1240305E000F00F06E8
:1003F0000009965D5E54491C0028F7D1207800233F
:10040000000704D5702D02D009B102231132204615
:10041000BDE8704000F0CAB8168200002DE9F05F18
:10042000894604464FF0000ADFF874B1FB44C0F877
:1004300020A02046E1688847002874D0252806D0EF
:10044000D4E901219047206A401C2062F1E7002690
:100450005F462046E16888472028054607DB312DA6
:1004600005D2781910F8200C08B10643F1E7B0075F
:1004700001D526F00406C4F81CA00027C4F818A073
:100480002A2D09D0284605F074F838B304EB870804
:10049000303DC8F8185019E059F8041B204604EB09
:1004A00087029161E1688847012F054618D1E0690C
:1004B000002820DA26F020061DE0D8F8180000EB0E
:1004C000800005EB40003038C8F818002046E1688D
:1004D0008847054605F04DF80028EED1012F0AD0D7
:1004E0002E2D08D12046E16888477F1C0546022F43
:1004F00046F02006C4DBA069002803DA404246F03B
:100500000106A061F00701D026F010066C2D0BD07B
:10051000682D09D04C2D39D06A2D35D0742D35D0A9
:100520007A2D33D016E038E0E1682F462046884720
:10053000B842054609D16C2F26D04FF48060E1689F
:10054000064320468847054604E06C2F1AD04FF436
:10055000807006430DB3A5F14100192802D820355B
:1005600046F400664A462946204626604E46FFF776
:1005700039FE80B101280BD0F61D26F0070000F1EE
:10058000080956E74020E4E78020D8E70020D6E7B6
:1005900006F104094DE7284652E7206ABDE8F09FBE
:1005A000EC81000070477047704770472DE9F047B5
:1005B0000D4699469246044600F1240801688806D3
:1005C00004D5E06921F01001216000E00120A8427B
:1005D00001DD471B00E00027A1697A1902EB090041
:1005E000081AA0612078C00602D42046FFF75EFEFC
:1005F000002608E0D4E901211AF806009047206A95
:10060000401C761C20624E45F4DB2078C0060AD5DB
:100610002046FFF74BFE06E0D4E901213020904749
:10062000206A401C2062381EA7F10107F4DC07E0B5
:10063000D4E9012118F805009047206A401C206287
:10064000281EA5F10105F3DC2046FFF745FE2078C2
:10065000000602D50220BDE8F0870120FBE700007C
:1006600001694A1C02610878704700B58FB0CDE976
:1006700001310021059105497944CDE90310114666
:100680006846FFF7CBFE0FB000BD0000E5FFFFFF9F
:100690000A6802F8010B0A60704710B5436913B18C
:1006A000AFF3008001E0FFF728FE012010BD1278B3
:1006B00000F124010A7000224A700122EDE711685E
:1006C0004FF0FF32E9E70000074B70B50D467B4461
:1006D000FFF7CBFF0446284600F008F810B14FF0B2
:1006E000FF3070BD204670BD57500000007B00F009
:1006F00080007047754600F029F8AE46050069464F
:10070000534620F00700854618B020B5FFF79CFD42
:10071000BDE820404FF000064FF000074FF0000802
:100720004FF0000B21F00701AC46ACE8C009ACE883
:10073000C009ACE8C009ACE8C0098D467047044662
:10074000AFF300802046FFF76BFD000000487047C4
:1007500094020020FEE7704710B50A2004F0B0FFB5
:100760000121094800F0FCF9012806D10749D1F818
:10077000A00138B10020C1F8A001BDE8104001205F
:1007800000F09EB80120F6E70008014000802142F9
:1007900010B50A2004F094FF0421094800F0E0F9A4
:1007A00030B90849D1F8940138B10020C1F894015A
:1007B000BDE81040042000F083B80120F6E70000F7
:1007C000001801400080214210B50A2004F078FF93
:1007D0000821094800F0C4F930B90849D1F894015A
:1007E00038B10020C1F89401BDE81040082000F0A5
:1007F00067B80120F6E7000000180140000023421E
:1008000010B50A2004F05CFF1021094800F0A8F997
:1008100030B90849D1F8940138B10020C1F89401E9
:10082000BDE81040102000F04BB80120F6E70000B2
:1008300000180140008021423EB50821002000F050
:1008400001F94FF48070002400908DF804400820D6
:100850008DF8050001258DF80650684600F046F831
:1008600017208DF808008DF809408DF80A408DF8A2
:100870000B5002A803F0E8FD3EBD000010B54FF498
:100880008074204600F022F801280DD1094A00208A
:10089000C2F898010121C2F898110748C0F88C11DC
:1008A00006480178491C01702046BDE8104000F060
:1008B00007B8000000802242008021424E00002044
:1008C000014908607047000014040140064A0146CF
:1008D00000201268044B0A4014331B680B4202D0FC
:1008E000002A00D0012070470004014030B51A4AA8
:1008F0008379016853B313688B431360111D0B6830
:100900000468A3430B60017911440B680468234316
:100910000B60114B083319680468A14319601C1D52
:1009200021680568A94321604179102905D0114447
:100930000A68006802430A6030BD19680268114302
:100940001960216800680143216030BD00791044BE
:1009500002688A43026030BD000401408000A0F1BB
:10096000C0400029016802D041F0010101E0024AC3
:100970001140016070470000FEFF0F0010B5D0E984
:1009800001121143D0E903231A4311434269114371
:1009900082691143C2691143026A1143426A1143D9
:1009A000826A1143C26A1143026B114302689200CA
:1009B000A2F1C04211608168082907D1016889004D
:1009C000A1F1C0410A6842F040020A60416BD1E9DE
:1009D000002342EA03128B688C891B0243EA04431A
:1009E0001A430B8A42EA03520B7D896942EA036289
:1009F0000A4301688900A1F1C0414A60C16AB1F5AA
:100A0000804F08D000686FF070418000A0F1C040B6
:100A1000C0F8041110BD816BD1E9002342EA031232
:100A20008B680C8A1B0243EA04531A430B7D8969C5
:100A300042EA036200680A438000A0F1C040C0F8A7
:100A4000042110BD10B58A0721F003040649120FD6
:100A500021440F238C6893409C438C608B689040AA
:100A600003438B6010BD000000000140F0B5CC785E
:100A7000002204F00F03E40601D58C7823430C78A0
:100A80004FF00F0C14F0FF0F4FF0010E1BD0056854
:100A90000E880EFA02F42640A64210D196000CFAF7
:100AA00006F725EA070703FA06F5CE783D43282E18
:100AB00002D0482E02D002E0446100E00461521CE2
:100AC000082AE5D305600A88FF2A1CD94468002259
:100AD00002F108060EFA06F50E882E40AE420ED13F
:100AE00096000CFA06F7BC4303FA06F7CE783C43AF
:100AF000282E00D14561CE78482E00D10561521CC8
:100B0000082AE5D34460F0BDF0B5144C002801DAA2
:100B1000E36900E06368450D2E0185B2C0F301571B
:100B2000B540C0F30342032F05D0C6020AD5032601
:100B30009640B34307E023F07062636823F070636C
:100B4000636002E0AB4343F0706201B12A430028C6
:100B500001DAE261F0BD6260F0BD0000000001401A
:100B60000246002092680A4200D00120704741618D
:100B7000704701617047FEE708B50121442003F08A
:100B80002BFE1C20ADF8000048208DF803006946BC
:100B90000648FFF76BFF0120ADF8000028208DF814
:100BA000030069460248FFF761FF08BD00180140D5
:100BB000000801402DE9F0412E4C2F4F2F4D01260A
:100BC00008B1267001E02078A0B110212846FFF777
:100BD000C7FFB0B108212846FFF7C2FF88B1042142
:100BE0002846FFF7BDFF60B101213846FFF7B8FF87
:100BF000012806D010212846FFF7B2FF012824D093
:100C000035E00A2004F05CFD002020701021284609
:100C1000FFF7A6FF80B108212846FFF7A1FF70B1BA
:100C200004212846FFF79CFF58B101213846FFF701
:100C300097FF012807D01AE00120BDE8F0810220CB
:100C4000FBE70320F9E70420F7E708212846FFF730
:100C500087FF01280BD104212846FFF781FF0128D7
:100C600005D101213846FFF77BFF00B9267000202F
:100C7000E3E70000440000200008014000180140A4
:100C80002DE9F043174F0646002438887D884543F8
:100C9000B888A0F5D041043902D1B879012807D02D
:100CA0000021084603F0A2F903F092FB0E4815E07C
:100CB0000020B8714FF02A09A7F80A904FF02B08CE
:100CC000A7F80C80014603F091F90120B871A7F84C
:100CD0000A80A7F80C90E7E70680641CAC42FBD3BF
:100CE000BDE8F083BC0100200008006C2DE9F04F46
:100CF0004A492A232B24898845F2105A4FF4305B45
:100D00004FF4285E4FF448754FF0F00C49F241392A
:100D10004FF4A07745F210364FF4F07280B13F489F
:100D20004FF00108494580F806800780A0F802C00E
:100D300001D0B1423ED12C2505814381848157E009
:100D400036484FF00008494580F80680A0F800C0FA
:100D5000478006D0A1F5D04CBCF1040C01D0B142C3
:100D60000CD12C2505814381A1F5D0438481043B1E
:100D700001D0B14244D10780428041E0514507D1C2
:100D8000A0F808B0A0F80AE04FF42C5181810EE0E1
:100D9000A1F5C856633E06D0222101812021418160
:100DA000212181812CE02C210181448183810280D9
:100DB000458025E0A1F5D04CBCF1040C09D051458B
:100DC0000BD1A0F808B0A0F80AE04FF42C538381AF
:100DD00021E02C250581448109E0A1F5C85CBCF126
:100DE000630C12D02223038121234381202383819A
:100DF000A1F5D043043B01D0B14201D1028047802C
:100E0000BDE8F04F002003F01DB84FF02C0CA0F807
:100E100008C04381848105804280E9E7BC0100204D
:100E20002DE9F04FDFF80C81934642460B46B8F8A7
:100E300004500C0ADFF800A19189060A5289A5F531
:100E400013470AF10209413F18D0A5F5A647103F04
:100E500014D0B7F500771CD04746A5F5C85CBE791D
:100E60003F883F1A7F1EBCF1630C27D0A5F5D04CFC
:100E7000BCF1040C3AD0012E4AD04AE0AAF8002076
:100E80004A46A9F80060C0B2A9F80000AAF800100C
:100E90003AE0AAF80020A9F80060521CAAF8002045
:100EA000C0B2A9F80000AAF80010A9F80040491C37
:100EB000AAF80010D8B2A9F8000033E006B9B8B219
:100EC000AAF80020050A4A46A9F80050C7B2A9F8B6
:100ED0000070A9F80050C0B2A9F80000AAF80010EC
:100EE000A9F80040D8B2A9F800000DE0012E00D109
:100EF000B8B2AAF80020050A4A46A9F80050C0B2C4
:100F0000A9F80000AAF800101480D8B2108009E0F7
:100F1000B8B20146104603F065FAB8F80C0019465D
:100F200003F060FAB8F80810AAF80010A9F800B0A9
:100F3000BDE8F08FBC010020FE07006C2DE9F843EE
:100F40001F4D1F468046AB88089EA3F5D04004384D
:100F500002D1A879012807D0A2EB0800401C85B275
:100F60000C46DFF8609028E02B880846991A002488
:100F7000AC713A462A24A3EB08036C812B27491E47
:100F80005B1EAF8189B29BB20096FFF7D7FF0120AD
:100F9000A8716F81AC81BDE8F8832146404603F01B
:100FA00025F803F015FA0020494602E00E80401CA7
:100FB00080B2A842FAD3641CA4B2BC42EDD9EAE7DD
:100FC000BC0100200008006C2DE9F04F01210E0249
:100FD0009FB0304603F0E8FB01214FF4B47003F0FA
:100FE000FBFB0127ADF83C704FF010088DF83F80F7
:100FF00003248DF83E400FA9FE48FFF737FD4CF261
:101000003370ADF83C0018258DF83F508DF83E4008
:101010000FA9F948FFF72AFD4FF68070ADF83C00A4
:101020008DF83F508DF83E400FA9F448FFF71EFDA4
:1010300041F20100ADF83C008DF83F508DF83E4084
:101040000FA9EF48FFF712FD00200F21CDE918018D
:101050001A901B901C901D901090CDE91104CDE9C1
:101060001607149006211590CDE90010CDE902086D
:10107000139004903101CDE9080106900590079086
:101080008900CDE90A010C9017A80D9010A80E90C8
:101090006846FFF773FC01210620FFF75FFC322052
:1010A00004F00EFB002002F0A3FED64DD64C49F210
:1010B0004139A88046F6040A45F2103B45F2105724
:1010C0004FF6FF78FF2804D3404502D0B0F5134F08
:1010D00070D1D320208002F081FEA88002F07EFE35
:1010E000A88002F07BFE08EA00204146A88002F0BA
:1010F00075FEAA881043A88048455BD0BF20208099
:1011000002F06CFEA88002F069FEA88002F066FE84
:10111000A88002F063FE01EA0020A88002F05EFED3
:10112000AA881043A880504544D0D420208002F0E3
:1011300055FEA88002F052FEA88002F04FFE01EAA0
:101140000020A88002F04AFEAA881043A8805845D3
:1011500030D04FF45A40208002F040FEA8804FF477
:101160005B40208002F03AFE01EA0020A8804FF4A4
:101170005C40208002F032FEAA881043A880B0F5BF
:10118000004F7DD0B84215D0A120208002F026FE6D
:10119000A88002F023FE01EA0020A88002F01EFED3
:1011A000A9880843A0F5AE41A880613902D141F673
:1011B0006310A880A98895A0FFF758F8A888924DD9
:1011C000AD1C48457ED1CF20208000202880C12042
:1011D000288030202880ED20208064202880032073
:1011E00028801220288081202880E82020808520E7
:1011F0002880102028807A202880CB202080392049
:1012000028802C202880002028803420288002205C
:101210002880F720208020202880EA2020800020BD
:1012200028802880C02020801B202880C12020808A
:1012300001202880C5202080302028802880C720D9
:101240002080B720288036202080482028803A201F
:10125000208055202880B1202080002028801A205E
:101260002880B62020800A202880A2202880F22012
:10127000208000202880262020800120288000E077
:1012800051E0E02020800F2028802A20288028207C
:101290002880082028800E202880082028805420BC
:1012A0002880A9202880432028800A2028800F2019
:1012B000288000202880288028802880E120208025
:1012C000002000E031E028801520288017202880A9
:1012D0000720288011202880062028802B202880A5
:1012E000562028803C202880052028801020288037
:1012F0000F2028803F20288028800F2028802B2046
:101300002080002028802880012028803F202880FD
:101310002A2020800020288028802880EF20288014
:101320001120208084E0AF8044E7504576D1112021
:101330002080142004F0C4F9D020208007202880C9
:10134000422028801D202880D12020800020288055
:101350001A20288009202880D2202080012028807F
:1013600022202880C0202080102028803B20288038
:10137000002028800220288011202880C52020807D
:1013800003202880C8202080002028802520288055
:101390002120288005202880002028800A202880FD
:1013A00065202880252028807720288050202880CC
:1013B0000F20288000202880F8202080012028800D
:1013C000FE202080002028800220288020202080ED
:1013D00036202080082028803A2020805520288030
:1013E0002B202080002028802880012028803F207A
:1013F000288014E0000C0140001401400018014056
:1014000000200140BC010020FE07006C204C43443A
:101410002049443A25780D0A000000000EE02A20F9
:10142000208000202880288001202880DF2028803C
:10143000782004F045F9292001F02DBC58457DD1D4
:10144000ED20208001202880FE202880EE202080B2
:10145000DE20288021202880F12020800120288083
:10146000DF20208010202880C42020808F2028802A
:10147000C620208000202880E22028802880288024
:10148000BF202080AA202880B02020800D20288026
:10149000002028800D20288000202880112028800E
:1014A00000202880192028800020288021202880E2
:1014B000002028802D202880002028803D202880A2
:1014C000002028805D202880002028805D20288042
:1014D00000202880B12020808020288000202880C3
:1014E0008B202880002028809620288000202880BB
:1014F000B220208000202880288002202880002020
:1015000028800320288000202880B320208000200D
:10151000288028802880288028802880288028808B
:10152000288028802880288028802880288028807B
:101530002880288028802880288000E0FEE32880FA
:1015400028802880B42020808B20288000202880BC
:101550009620288000202880A12028800020288034
:10156000B5202080022028800020288003202880A9
:10157000002028800420288000202880B620208099
:10158000002028802880B720208000202880288004
:101590003F202880002028805E202880002028808E
:1015A00064202880002028808C202880002028802B
:1015B000AC20288000202880DC2028800020288083
:1015C00070202880002028809020288000202880FB
:1015D000EB20288000202880DC2028800020288024
:1015E000B82020800020288028802880288028801B
:1015F000288028802880BA2020802420288000206D
:10160000288028802880C120208020202880002059
:1016100028805420288000202880FF202880002057
:101620002880C22020800A202880002028800420D2
:10163000288000202880C32020803C202880002093
:1016400028803A2028800020288039202880002007
:10165000288037202880002028803C2028800020F7
:1016600028803620288000202880322028800020F2
:1016700028802F202880002028802C2028800020EF
:1016800028802920288000202880262028800020EB
:1016900028802420288000202880242028800020E2
:1016A000288023202880002028803C2028800020BB
:1016B00028803620288000202880322028800020A2
:1016C00028802F202880002028802C20288000209F
:1016D000288029202880002028802620288000209B
:1016E0002880242028800020288024202880002092
:1016F00028802320288000202880C4202080622089
:101700002880002028800520288000202880842030
:10171000288000202880F0202880002028801820A1
:10172000288000202880A4202880002028801820DD
:1017300028800020288050202880002028800C202D
:1017400028800020288017202880002028809520CD
:10175000288000202880F320288000202880E62090
:10176000288000202880C52020803220288000206A
:1017700028804420288000202880652028800020A0
:10178000288076202880002028808820288000203B
:101790002880C62020802020288000202880172034
:1017A0002880002028800120288000202880C72051
:1017B000208000202880288028802880C820208041
:1017C00000202880288028802880C92020800020B0
:1017D00028802880288028802880288028802880C9
:1017E00028802880288028802880288028802880B9
:1017F000E020208016202880002028801C202880BF
:101800000020288021202880002028803620288061
:101810000020288046202880002028805220288010
:101820000020288064202880002028807A202880BA
:10183000002028808B202880002028809920288064
:1018400000202880A820288000202880B920288017
:1018500000202880C420288000202880CA202880DA
:1018600000202880D220288000202880D9202880AD
:1018700000202880E020288000202880F320288075
:1018800000202880E1202080162028800020288049
:101890001C202880002028802220288000202880EA
:1018A000362028800020288045202880002028809D
:1018B0005220288000202880642028800020288052
:1018C0007A202880002028808B20288000202880F3
:1018D0009920288000202880A820288000202880A7
:1018E000B920288000202880C4202880002028805B
:1018F000CA20288000202880D2202880002028802C
:10190000D820288000202880E020288000202880FF
:10191000F320288000202880E220208005202880D5
:10192000002028800B202880002028801B20288071
:10193000002028803420288000202880442028800F
:10194000002028804F2028800020288061202880C7
:101950000020288079202880002028808820288066
:10196000002028809720288000202880A62028801A
:1019700000202880B720288000202880C2202880CE
:1019800000202880C720288000202880D12028809F
:1019900000202880D620288000202880DD20288074
:1019A00000202880F320288000202880E320208049
:1019B00005202880002028800A20288000202880F8
:1019C0001C202880002028803320288000202880A8
:1019D0004420288000202880502028800020288053
:1019E00062202880002028807820288000202880FD
:1019F00088202880002028809720288000202880A8
:101A0000A620288000202880B72028800020288059
:101A1000C220288000202880C7202880002028801D
:101A2000D120288000202880D520288000202880F0
:101A3000DD20288000202880F320288000202880B6
:101A4000E420208001202880002028800120288098
:101A50000020288002202880002028802A2028803A
:101A6000002028803C202880002028804B202880CF
:101A7000002028805D202880002028807420288075
:101A8000002028808420288000202880932028801F
:101A900000202880A220288000202880B3202880D1
:101AA00000202880BE20288000202880C420288094
:101AB00000202880CD20288000202880D320288066
:101AC00000202880DD20288000202880F320288026
:101AD00000202880E5202080002028802880288081
:101AE00028800220288000202880292028800020AB
:101AF00028803C202880002028804B20288000203F
:101B000028805D20288000202880742028800020E4
:101B1000288084202880002028809320288000208E
:101B20002880A220288000202880B3202880002040
:101B30002880BE20288000202880C4202880002003
:101B40002880CD20288000202880D32028800020D5
:101B50002880DC20288000202880F3202880002096
:101B60002880E62020801120288000202880342032
:101B70002880002028805620288000202880762079
:101B80002880002028807720288000202880662058
:101B90002880002028808820288000202880992004
:101BA000288000202880BB202880002028809920C1
:101BB000288000202880662028800020288055204A
:101BC000288000202880552028800020288045205B
:101BD000288000202880432028800020288044205E
:101BE000288000202880E7202080322028800020C4
:101BF00028805520288000202880762028800020FA
:101C000028806620288000202880672028800020E7
:101C100028806720288000202880872028800020B6
:101C200028809920288000202880BB202880002040
:101C30002880992028800020288077202880002074
:101C400028804420288000202880562028800020DA
:101C5000288023202880002028803320288000200E
:101C600028804520288000202880E820208000202F
:101C7000288028809920288000202880872028809C
:101C80000020288088202880002028807720288035
:101C90000020288066202880002028808820288036
:101CA00000202880AA20288000202880BB202880AF
:101CB0000020288099202880002028806620288005
:101CC000002028805520288000202880552028804A
:101CD000002028804420288000202880442028805C
:101CE000002028805520288000202880E92020809E
:101CF000AA20288000202880288028802080AA20F0
:101D00002880CF20208000202880288028802880DC
:101D10002880288028802880288028802880288083
:101D200028802880288028802880F020208000209B
:101D30002880502028800020288000E02CE0288087
:101D40002880F320208000202880F9202080062091
:101D500028801020288029202880002028803A20F0
:101D600020805520288011202080642003F0A8FCCA
:101D700029202080352020800020288051202080AC
:101D8000FF202880532020802C2028805520208070
:101D9000822028802C20FCE3B8427DD14FF4704390
:101DA0005521184602F01EFB4FF20105AA212846D4
:101DB00002F018FB6E1C5221304602F013FBAF1CE0
:101DC0000821384602F00EFB4FF204090121484673
:101DD00002F008FB0D214FF4304002F003FB0D210F
:101DE0004BF2010002F0FEFA0D214BF2020002F06C
:101DF000F9FA4FF4364A3421504602F0F3FA34210E
:101E00004BF2016002F0EEFA34214BF2026002F074
:101E1000E9FA4FF4314B0D21584602F0E3FA0D2157
:101E20004BF2011002F0DEFA0D214BF2021002F02B
:101E3000D9FA34214FF4374002F0D4FA34214BF26E
:101E4000017002F0CFFA34214BF2027002F0CAFAAC
:101E500000214FF4324002F0C5FA00214BF201207C
:101E600002F0C0FA00214BF2022002F0BBFA24215A
:101E70004FF4384002F0B6FA24214BF6010002F08C
:101E8000B1FA24214BF6020002F0ACFA01214FF422
:101E90003F4002F0A7FA00E0FEE30F214FF4334089
:101EA00002F0A0FA0F214BF2013002F09BFA0F2151
:101EB0004BF2023002F096FA34214FF4394002F02E
:101EC00091FA34214BF6011002F08CFA34214BF6D2
:101ED000021002F087FA08214FF4354002F082FA2E
:101EE00008214BF2015002F07DFA08214BF202501A
:101EF00002F078FA03214FF4424002F073FA2421F1
:101F00004FF43A4002F06EFA24214BF6012002F021
:101F100069FA24214BF6022002F064FA00214FF402
:101F20003C4002F05FFA78214BF6014002F05AFA89
:101F300000214BF6024002F055FA00214FF43D40DB
:101F400002F050FA78214BF6015002F04BFA0021D2
:101F50004BF6025002F046FA00214FF43E4002F0E8
:101F600041FA64214BF6016002F03CFA00214FF483
:101F7000514002F037FA33214DF2011002F032FAEB
:101F800000214DF2021002F02DFA34214DF203101F
:101F900002F028FA00214DF2041002F023FA3A214F
:101FA0004DF2051002F01EFA00214DF2061002F06B
:101FB00019FA4A214DF2071002F014FA00214DF2ED
:101FC000081002F00FFA5C214DF2091002F00AFA33
:101FD00000214DF20A1002F005FA81214DF20B109A
:101FE00002F000FA00214DF20C1002F0FBF9A621DC
:101FF0004DF20D1002F0F6F900214DF20E1002F034
:10200000F1F9E5214DF20F1002F0ECF901214DF24A
:10201000101002F0E7F913214DF2111002F0E2F96D
:1020200001214DF2121002F0DDF954214DF213108E
:1020300002F0D8F901214DF2141002F0D3F98221F7
:102040004DF2151002F0CEF901214DF2161002F0FA
:10205000C9F9CA214DF2171002F0C4F902214DF25C
:10206000181002F0BFF900214DF2191002F0BAF970
:1020700002214DF21A1002F0B5F901214DF21B10A8
:1020800002F0B0F902214DF21C1002F0ABF934213C
:102090004DF21D1002F0A6F902214DF21E1002F0C1
:1020A000A1F967214DF21F1002F09CF902214DF2B7
:1020B000201002F097F984214DF2211002F092F9DC
:1020C00002214DF2221002F08DF9A4214DF22310CD
:1020D00002F088F902214DF2241002F083F9B721B1
:1020E0004DF2251002F07EF902214DF2261002F089
:1020F00079F9CF214DF2271002F074F902214DF247
:10210000281002F06FF9DE214DF2291002F06AF971
:1021100002214DF22A1002F065F9F2214DF22B1046
:1021200002F060F902214DF22C1002F05BF9FE2161
:102130004DF22D1002F056F903214DF22E1002F04F
:1021400051F910214DF22F1002F04CF903214DF2FC
:10215000301002F047F933214DF2311002F042F90C
:1021600003214DF2321002F03DF96D214DF2331092
:1021700002F038F900214FF4524002F033F93321D4
:102180004DF2012002F02EF900214DF2022002F062
:1021900029F934214DF2032002F024F900214DF2F7
:1021A000042002F01FF93A214DF2052002F01AF93D
:1021B00000214DF2062002F015F94A214DF20720C8
:1021C00002F010F900214DF2082002F00BF95C2119
:1021D0004DF2092002F006F900214DF20A2002F02A
:1021E00001F981214DF20B2002F0FCF800214DF2A3
:1021F0000C2002F0F7F8A6214DF20D2002F0F2F8C3
:1022000000214DF20E2002F0EDF8E5214DF20F20F5
:1022100002F0E8F801214DF2102002F0E3F813215A
:102220004DF2112002F0DEF801214DF2122002F0F1
:10223000D9F854214DF2132002F0D4F801214DF2C7
:10224000142002F0CFF882214DF2152002F0CAF8D6
:1022500001214DF2162002F0C5F8CA214DF21720D7
:1022600002F0C0F802214DF2182002F0BBF8002164
:102270004DF2192002F0B6F802214DF21A2002F0B8
:10228000B1F801214DF21B2002F0ACF802214DF211
:102290001C2002F0A7F834214DF21D2002F0A2F814
:1022A00002214DF21E2002F09DF867214DF21F2001
:1022B00002F098F802214DF2202002F093F88421D8
:1022C0004DF2212002F08EF802214DF2222002F080
:1022D00089F8A4214DF2232002F084F802214DF266
:1022E000242002F07FF8B7214DF2252002F07AF881
:1022F00002214DF2262002F075F8CF214DF2272061
:1023000002F070F802214DF2282002F06BF8DE2175
:102310004DF2292002F066F802214DF22A2002F047
:1023200061F8F2214DF22B2002F05CF802214DF20F
:102330002C2002F057F8FE214DF22D2002F052F829
:1023400003214DF22E2002F04DF810214DF22F20E6
:1023500002F048F803214DF2302002F043F8332117
:102360004DF2312002F03EF803214DF2322002F00E
:1023700039F86D214DF2332002F034F800214FF48A
:10238000534002F02FF833214DF2013002F02AF8C9
:1023900000214DF2023002F025F834214DF20330D5
:1023A00002F020F800214DF2043002F01BF83A212F
:1023B0004DF2053002F016F800214DF2063002F021
:1023C00011F84A214DF2073002F00CF800214DF2CD
:1023D000083002F007F85C214DF2093002F002F8F3
:1023E00000214DF20A3001F0FDFF81214DF20B304A
:1023F00001F0F8FF00214DF20C3001F0F3FFA621AF
:102400004DF20D3001F0EEFF00214DF20E3001F0E3
:10241000E9FFE5214DF20F3001F0E4FF01214DF21B
:10242000103001F0DFFF13214DF2113001F0DAFF1F
:1024300001214DF2123001F0D5FF54214DF213303D
:1024400001F0D0FF01214DF2143001F0CBFF8221C9
:102450004DF2153001F0C6FF01214DF2163001F0AA
:10246000C1FFCA214DF2173001F0BCFF02214DF22D
:10247000183001F0B7FF00214DF2193001F0B2FF22
:1024800002214DF21A3001F0ADFF01214DF21B3057
:1024900001F0A8FF02214DF21C3001F0A3FF34210E
:1024A0004DF21D3001F09EFF02214DF21E3001F071
:1024B00099FF67214DF21F3001F094FF02214DF288
:1024C000203001F08FFF84214DF2213001F08AFF8E
:1024D00002214DF2223001F085FFA4214DF223307C
:1024E00001F080FF02214DF2243001F07BFFB72183
:1024F0004DF2253001F076FF02214DF2263001F039
:1025000071FFCF214DF2273001F06CFF02214DF217
:10251000283001F067FFDE214DF2293001F062FF23
:1025200002214DF22A3001F05DFFF2214DF22B30F5
:1025300001F058FF02214DF22C3001F053FFFE2133
:102540004DF22D3001F04EFF03214DF22E3001F0FF
:1025500049FF10214DF22F3001F044FF03214DF2CD
:10256000303001F03FFF33214DF2313001F03AFFBE
:1025700003214DF2323001F035FF6D214DF2333041
:1025800001F030FF00214FF4544001F02BFF3321C4
:1025900000E080E34DF2014001F024FF00214DF204
:1025A000024001F01FFF34214DF2034001F01AFFF9
:1025B00000214DF2044001F015FF3A214DF2054093
:1025C00001F010FF00214DF2064001F00BFF4A21FF
:1025D0004DF2074001F006FF00214DF2084001F0E6
:1025E00001FF5C214DF2094001F0FCFE00214DF29B
:1025F0000A4001F0F7FE81214DF20B4001F0F2FE9E
:1026000000214DF20C4001F0EDFEA6214DF20D40EF
:1026100001F0E8FE00214DF20E4001F0E3FEE5215D
:102620004DF20F4001F0DEFE01214DF2104001F0AD
:10263000D9FE13214DF2114001F0D4FE01214DF2DB
:10264000124001F0CFFE54214DF2134001F0CAFEBA
:1026500001214DF2144001F0C5FE82214DF21540DA
:1026600001F0C0FE01214DF2164001F0BBFECA216F
:102670004DF2174001F0B6FE02214DF2184001F074
:10268000B1FE00214DF2194001F0ACFE02214DF2E5
:102690001A4001F0A7FE00E0FFE201214DF21B40CD
:1026A00001F0A0FE02214DF21C4001F09BFE3421FE
:1026B0004DF21D4001F096FE02214DF21E4001F048
:1026C00091FE67214DF21F4001F08CFE02214DF278
:1026D000204001F087FE84214DF2214001F082FE6E
:1026E00002214DF2224001F07DFEA4214DF2234053
:1026F00001F078FE02214DF2244001F073FEB72173
:102700004DF2254001F06EFE02214DF2264001F00F
:1027100069FECF214DF2274001F064FE02214DF207
:10272000284001F05FFEDE214DF2294001F05AFE03
:1027300002214DF22A4001F055FEF2214DF22B40CC
:1027400001F050FE02214DF22C4001F04BFEFE2123
:102750004DF22D4001F046FE03214DF22E4001F0D6
:1027600041FE10214DF22F4001F03CFE03214DF2BD
:10277000304001F037FE33214DF2314001F032FE9E
:1027800003214DF2324001F02DFE6D214DF2334018
:1027900001F028FE00214FF4554001F023FE3321C3
:1027A0004DF2015001F01EFE00214DF2025001F0E9
:1027B00019FE34214DF2035001F014FE00214DF2B8
:1027C000045001F00FFE3A214DF2055001F00AFECF
:1027D00000214DF2065001F005FE4A214DF207504E
:1027E00001F000FE00214DF2085001F0FBFD5C21DC
:1027F0004DF2095001F0F6FD00214DF20A5001F0B2
:10280000F1FD81214DF20B5001F0ECFD00214DF264
:102810000C5001F0E7FDA6214DF20D5001F0E2FD54
:1028200000214DF20E5001F0DDFDE5214DF20F507B
:1028300001F0D8FD01214DF2105001F0D3FD13211C
:102840004DF2115001F0CEFD01214DF2125001F078
:10285000C9FD54214DF2135001F0C4FD01214DF288
:10286000145001F0BFFD82214DF2155001F0BAFD68
:1028700001214DF2165001F0B5FDCA214DF217505D
:1028800001F0B0FD02214DF2185001F0ABFD002126
:102890004DF2195001F0A6FD02214DF21A5001F03F
:1028A000A1FD01214DF21B5001F09CFD02214DF2D2
:1028B0001C5001F097FD34214DF21D5001F092FDA6
:1028C00002214DF21E5001F08DFD67214DF21F5087
:1028D00001F088FD02214DF2205001F083FD84219A
:1028E0004DF2215001F07EFD02214DF2225001F007
:1028F00079FDA4214DF2235001F074FD02214DF227
:10290000245001F06FFDB7214DF2255001F06AFD12
:1029100002214DF2265001F065FDCF214DF22750E6
:1029200001F060FD02214DF2285001F05BFDDE2137
:102930004DF2295001F056FD02214DF22A5001F0CE
:1029400051FDF2214DF22B5001F04CFD02214DF2D0
:102950002C5001F047FDFE214DF22D5001F042FDBB
:1029600003214DF22E5001F03DFD10214DF22F506C
:1029700001F038FD03214DF2305001F033FD3321D9
:102980004DF2315001F02EFD03214DF2325001F095
:1029900029FD6D214DF2335001F024FD00214FF44B
:1029A000564001F01FFD33214DF2016001F01AFD88
:1029B00000214DF2026001F015FD34214DF203605B
:1029C00001F010FD00214DF2046001F00BFD3A21F1
:1029D0004DF2056001F006FD00214DF2066001F0A8
:1029E00001FD4A214DF2076001F0FCFC00214DF28F
:1029F000086001F0F7FC5C214DF2096001F0F2FC87
:102A000000214DF20A6001F0EDFC81214DF20B60D6
:102A100001F0E8FC00214DF20C6001F0E3FCA6217E
:102A20004DF20D6001F0DEFC00214DF20E6001F070
:102A3000D9FCE5214DF20F6001F0D4FC01214DF2EB
:102A4000106001F0CFFC13214DF2116001F0CAFCBF
:102A500001214DF2126001F0C5FC54214DF21360CA
:102A600001F0C0FC01214DF2146001F0BBFC822199
:102A70004DF2156001F0B6FC01214DF2166001F037
:102A8000B1FCCA214DF2176001F0ACFC02214DF2FD
:102A9000186001F0A7FC00214DF2196001F0A2FCC2
:102AA00002214DF21A6001F09DFC01214DF21B60E4
:102AB00001F098FC02214DF21C6001F093FC3421DE
:102AC0004DF21D6001F08EFC02214DF21E6001F0FE
:102AD00089FC67214DF21F6001F084FC02214DF258
:102AE000206001F07FFC84214DF2216001F07AFC2E
:102AF00002214DF2226001F075FCA4214DF2236009
:102B000001F070FC02214DF2246001F06BFCB72152
:102B10004DF2256001F066FC02214DF2266001F0C5
:102B200061FCCF214DF2276001F05CFC02214DF2E7
:102B3000286001F057FCDE214DF2296001F052FCC3
:102B400002214DF22A6001F04DFCF2214DF22B6082
:102B500001F048FC02214DF22C6001F043FCFE2103
:102B60004DF22D6001F03EFC03214DF22E6001F08C
:102B700039FC10214DF22F6001F034FC03214DF29D
:102B8000306001F02FFC33214DF2316001F02AFC5E
:102B900003214DF2326001F025FC6D214DF23360CE
:102BA00001F020FC5521184601F01CFCAA21284602
:102BB00001F018FC5221304601F014FC082138467F
:102BC00001F010FC0021484601F00CFCCC215846D5
:102BD00001F008FC00214BF2011001F003FC05217B
:102BE000504601F0FFFB70214FF4374001F0FAFB33
:102BF00070214BF2017001F0F5FB01214FF43840D8
:102C000001F0F0FB03214BF6010001F0EBFB032187
:102C10004BF6020001F0E6FB03214BF6030001F046
:102C2000E1FB02214FF43C4001F0DCFB00214BF6BC
:102C3000014001F0D7FB00214BF6024001F0D2FB2E
:102C4000D0214FF4494001F0CDFB02214CF6011098
:102C500001F0C8FB50214CF6021001F0C3FB5021DB
:102C60004CF6031001F0BEFB50214CF6041001F0AD
:102C7000B9FB00214FF4545001F0B4FB55214FF43F
:102C8000685001F0AFFB4FF488502080782002F0AC
:102C900031FD4FF424502080FEE3A0F513414FF4A2
:102CA000E06940F23F1A4FF4274B253924D040F217
:102CB0000777C91E7DD04FF4887B08317AD011394F
:102CC00079D0A0F5A841083976D0A0F5A8514FF4E5
:102CD000407B053971D0B1F520416FD0B1F58051FD
:102CE0006DD0A0F58A4131396AD0091F69D0A0F5AD
:102CF000C851633966D0CFE747F6F001E52001F00F
:102D000071FB3146012001F06DFB4946022001F0C4
:102D100069FB41F23001032001F064FB0021042033
:102D200001F060FB40F20221082001F05BFB002172
:102D3000092001F057FB00210A2001F053FB00217C
:102D40000C2001F04FFB00210D2001F04BFB002176
:102D50000F2001F047FB0021102001F043FB072169
:102D6000112001F03FFB0021122001F03BFB00216C
:102D7000132001F037FB0021072001F033FB41F263
:102D80009061102001F02EFB40F22721112001F06C
:102D900029FB9D21122001F025FB4FF4C85113207F
:102DA00001F020FB2521292001F01CFB0D212B2007
:102DB00009E078E034E1D9E1AFE24AE3FEE3FEE383
:102DC000FEE3FEE3FEE301F00DFB0721302001F0FE
:102DD00009FB40F20331312001F004FB03213220D2
:102DE00001F000FB40F20621352001F0FBFA08213A
:102DF000362001F0F7FA40F20641372001F0F2FAEE
:102E00004FF44171382001F0EDFA0721392001F02B
:102E1000E9FA40F202613C2001F0E4FA08213D2089
:102E200001F0E0FA0021502001F0DCFAEF215120FE
:102E300001F0D8FA0021522001F0D4FA5146532073
:102E400001F0D0FA5946602001F0CCFA012161204E
:102E500001F0C8FA00216A2001F0C4FA00218020A4
:102E600001F0C0FA0021812001F0BCFA002182208B
:102E700001F0B8FA0021832001F0B4FA0021842087
:102E800001F0B0FA0021852001F0ACFA1021902069
:102E900001F0A8FA4FF4C061922001F0A3FA40F2C9
:102EA00033110720FEE341F28F01EC2001F09AFA82
:102EB00041F23421EF2001F095FA3146012001F072
:102EC00091FA4946022001F08DFA41F230010320C7
:102ED00001F088FA0021042001F084FA40F2022176
:102EE000082001F07FFA0021092001F07BFA00217F
:102EF0000A2001F077FA01210C2001F073FA002179
:102F00000D2001F06FFA00210F2001F06BFA002173
:102F1000102001F067FA0721112001F063FA002167
:102F2000122001F05FFA0021132001F05BFA012169
:102F3000072001F057FA322002F0C2FB41F2904123
:102F4000102001F04FFA40F22721112001F04AFA37
:102F5000322002F0B5FB8A21122001F043FA322020
:102F600002F0AEFB4FF4D051132001F03BFA0621E2
:102F7000292001F037FA0D212B2001F033FA3220FD
:102F800002F09EFB0021202001F02CFA00212120DC
:102F900001F028FA322002F093FB0021302001F0EA
:102FA00021FA40F20461312001F01CFA40F20531AF
:102FB000322001F017FA0021352001F013FA40F613
:102FC0000941362001F00EFA4FF40171372001F06B
:102FD00009FA40F20131382001F004FA394639206B
:102FE00001F000FA00213C2001F0FCF940F60A2132
:102FF0003D2001F0F7F9322002F062FB0021502061
:1030000001F0F0F9EF21512001F0ECF900215220FC
:1030100001F0E8F95146532001F0E4F9594651E135
:103020000021084601F0DEF93146012001F0DAF90D
:103030004946022001F0D6F941F23001032001F0A7
:10304000D1F90021042001F0CDF940F2022108203D
:1030500001F0C8F90021092001F0C4F900210A207B
:1030600001F0C0F901210C2001F0BCF900210D2074
:1030700001F0B8F900210F2001F0B4F9322002F07C
:103080001FFB40F20111072001F0ACF9322002F0E1
:1030900017FB4FF48651102001F0A4F907211120ED
:1030A00001F0A0F95B465946122001F09BF94FF45C
:1030B0003061132001F096F90021292001F092F9E6
:1030C00044F210012B2001F08DF90021502001F075
:1030D00089F9EF21512001F085F90021522001F0FA
:1030E00081F95146532001F07DF94FF41C516020C5
:1030F00001F078F90121612001F074F900216A20C2
:1031000001F070F90021802001F06CF9002181208C
:1031100001F068F90021822001F064F90021832088
:1031200001F060F90021842001F05CF90021852084
:1031300001F058F91021902001F054F9002192205B
:1031400001F050F90121932001F04CF91946952026
:1031500001F048F90021972001F044F9002198205E
:1031600001F040F940F27311072084E341F21401A9
:10317000E72001F037F93146012001F033F94FF42F
:103180000071022001F02EF941F23801032001F014
:1031900029F940F20221082001F024F90021092038
:1031A00001F020F900210A2001F01CF900210C2077
:1031B00001F018F900210D2001F014F900210F2071
:1031C00001F010F90021102001F00CF90721112065
:1031D00001F008F90021122001F004F90021132068
:1031E00001F000F9C82002F06BFA41F29061102062
:1031F00001F0F8F840F22721112001F0F3F8322015
:1032000002F05EFA0C21122001F0ECF8322002F0FC
:1032100057FA4FF40061132001F0E4F8112129203E
:1032200001F0E0F80B212B2001F0DCF8322002F055
:1032300047FA0021202001F0D5F8534651462120BD
:1032400001F0D0F80021302001F0CCF84FF4837465
:103250002146312001F0C6F80021322001F0C2F8E9
:103260004FF40171352001F0BDF841F20A613620BA
:1032700001F0B8F83946372001F0B4F8214638207B
:1032800001F0B0F83946392001F0ACF840F20241C3
:103290003C2001F0A7F840F60F413D2001F0A2F8D4
:1032A0000021502001F09EF8EF21512001F09AF802
:1032B0000021522001F096F81946532001F092F8AF
:1032C0004FF41C51602001F08DF80121612001F0C4
:1032D00089F800216A2001F085F80021802001F0A2
:1032E00081F80021812001F07DF80021822001F089
:1032F00079F80021832001F075F80021842001F085
:1033000071F80021852001F06DF81021902001F066
:1033100069F84FF4C0619220FEE33146012001F0CC
:1033200061F84946022001F05DF841F230010320C6
:1033300001F058F80021042001F054F840F2072170
:10334000082001F04FF80021092001F04BF800217E
:103350000A2001F047F800210C2001F043F8002179
:103360000D2001F03FF800210F2001F03BF8142060
:1033700002F0A6F941F2B061102001F033F801210A
:10338000112001F02FF80121172001F02BF84FF444
:103390009C71122001F026F84FF40061132001F017
:1033A00021F80921292001F01DF809212A2001F026
:1033B00019F80021A42001F015F80021502001F097
:1033C00011F8EF21512001F00DF80021522001F0F9
:1033D00009F85146532001F005F84FF41C516020C4
:1033E00001F000F80121612000F0FCFF00216A20BB
:1033F00000F0F8FF0021802000F0F4FF0021812080
:1034000000F0F0FF0021822000F0ECFF002183207B
:1034100000F0E8FF0021842000F0E4FF0021852077
:1034200000F0E0FF1321902000F0DCFF002192204B
:1034300000F0D8FF0321932000F0D4FF59469520D7
:1034400000F0D0FF40F27311072000F0CBFF3220D4
:1034500010E10021072000F0C5FF322002F030F912
:103460004FF48E71122000F0BDFF0121A42000F066
:10347000B9FF0F21082000F0B5FF08210A2000F055
:10348000B1FF08210D2000F0ADFF3946302000F0DB
:10349000A9FF0721312000E06EE300F0A3FF40F216
:1034A0000361322000F09EFF4C464946332000F075
:1034B00099FF40F20221342000F094FF02213520D0
:1034C00000F090FF41F60F71362000F08BFF394677
:1034D000372000F087FF0021382000F083FF002113
:1034E000392000F07FFF39463A2000F07BFF0021B1
:1034F0003B2000F077FF07213C2000F073FF002104
:103500003D2000F06FFF322002F0DAF801210720A1
:1035100000F068FF0121172000F064FF322002F064
:10352000CFF84FF4BD51102000F05CFF40F217219E
:10353000112000F057FF4FF48F71122000F052FF5E
:103540004FF47061132000F04DFF00212A2000F09D
:1035500049FF0A21292000F045FF4FF49F711220F6
:1035600000F040FF0021502000F03CFFEF215120EF
:1035700000F038FF0021522000F034FF5146532064
:1035800000F030FF4FF41C51602000F02BFF0121B0
:10359000612000F027FF00216A2000F023FF0021B6
:1035A000802000F01FFF0021812000F01BFF002180
:1035B000822000F017FF0021832004E05DE05BE142
:1035C00023E2DAE281E300F00DFF0021842000F025
:1035D00009FF0021852000F005FF1321902000F055
:1035E00001FF5946922000F0FDFE0521932000F0D6
:1035F000F9FE0021952000F0F5FE0021972000F053
:10360000F1FE0021982000F0EDFE3146012000F08F
:10361000E9FE2146022000F0E5FE41F238010320D8
:1036200000F0E0FE0021042000F0DCFE00210C2070
:1036300000F0D8FE00210F2000F0D4FE0021202051
:1036400000F0D0FE0021212000F0CCFE2121072037
:1036500000F0C8FE142002F033F86121072000F0CA
:10366000C1FE142002F02CF840F27311072000F084
:10367000B9FE142002F024F8A1E30021084600F06E
:10368000B1FE0021084600F0ADFE0021084600F022
:10369000A9FE0021084600F0A5FE0121A42000F0AB
:1036A000A1FE00E0E3E0142002F00AF84FF41C54FD
:1036B0002146602000F096FE40F2022529460820AF
:1036C00000F090FE4FF40571302000F08BFE43F2C5
:1036D0001571312000F086FE40F20461322000F0C6
:1036E00081FE40F61661332000F07CFE42F211218B
:1036F000342000F077FE4FF4A851352000F072FE20
:1037000048F20751362000F06DFE41F207413720A4
:1037100000F068FE41F20341382000F063FE2021F2
:10372000392000F05FFE1A21902000F05BFE00219E
:10373000102000F057FE0721112000F053FE002159
:10374000122000F04FFE0021132000F04BFE142049
:1037500001F0B6FF4FF4E661102000F043FE40F2A6
:103760003711112000F03EFE142001F0A9FF4FF4A4
:10377000DC71122000F036FE142001F0A1FF4FF49E
:103780007061132000F02EFE80212A2000F02AFE16
:103790004821292000F026FE142001F091FF314637
:1037A000012000F01FFE4946022000F01BFE41F2FE
:1037B0003801032000F016FE2946082000F012FE12
:1037C00000210A2000F00EFE00210C2000F00AFE6D
:1037D00000210D2000F006FE30210E2000F002FE38
:1037E0000021502000F0FEFDEF21512000F0FAFDF5
:1037F0000021522000F0F6FD5146532000F0F2FD6A
:103800002146602000F0EEFD0121612000F0EAFD7C
:1038100000216A2000F0E6FD1121902000F0E2FD79
:103820004FF4C061922000F0DDFD40F20241932090
:1038300000F0D8FD0221942000F0D4FD142001F006
:103840003FFF0121072000F0CDFD142001F038FFDB
:103850006121072000F0C6FD40F27311072000F03F
:10386000C1FD0021202000F0BDFD0021212000F03D
:10387000B9FD222100207DE10021084600F0B2FDC3
:103880000021084600F0AEFD142001F019FF0021D0
:10389000084600F0A7FD0021084600F0A3FD002126
:1038A000084600F09FFD0021084600F09BFD012125
:1038B000A42000F097FD142001F002FF4FF41C51EA
:1038C000602000F08FFD40F60601082000F08AFD20
:1038D00040F203731946302000F084FD01213120AD
:1038E00000F080FD0421322000F07CFD4FF4817156
:1038F000332000F077FD5C465946342000F072FD1D
:1039000040F20311352000F06DFD1F21362000F03C
:1039100069FD1946372000F065FD0121382000F0CF
:1039200061FD0421392000F05DFD1521902000F09B
:1039300059FD4FF48261102000F054FD40F2472100
:10394000112000F04FFD4FF4DE71122000F04AFD0F
:103950004FF46061132000F045FD782001F0B0FEC7
:103960003146012000F03EFD4FF40071022000F0CE
:1039700039FD41F23001032000F034FD08210A2016
:1039800000F030FD00210C2000F02CFD20210E2045
:1039900000F028FD00210F2000F024FD0021202050
:1039A00000F020FD0021212000F01CFD3D212A20F7
:1039B00000F018FD142001F083FE2D21292000F0D5
:1039C00011FD0021502000F00DFD4DF2EF015120BE
:1039D00000F008FD0021522000F004FD5146532064
:1039E00000F000FD0021612000F0FCFC00216A20B5
:1039F00000F0F8FC2146922000F0F4FC0521932011
:103A000000F0F0FC3146FFF7AFBB0121002000F0D1
:103A1000E9FC0A2001F054FE41F22861102000F078
:103A2000E1FC0E21122000F0DDFC40F639211320CC
:103A300000F0D8FC0A2001F043FE4021112000F0E4
:103A4000D1FC5021152000F0CDFC0A2001F038FEF9
:103A50001E21122000F0C6FC0A2001F031FE4FF4B6
:103A6000B151102000F0BEFC42F63921132000F0C5
:103A7000B9FC0A2001F024FE3146012000F0B2FC1E
:103A80005946022000F0AEFC41F23801032000F05C
:103A9000A9FC40F20221082000F0A4FC08210A2021
:103AA00000F0A0FC0021302000F09CFC40F202411C
:103AB000312000F097FC4FF48371322000F092FC2B
:103AC00040F20351332000F08DFC4FF4827134201A
:103AD00000F088FC40F20131352000F083FC3946CB
:103AE000362000F07FFC40F20531372000F07AFCF0
:103AF0004FF40271382000F075FC40F60B7139204C
:103B000000F070FC0221412000F06CFC4FF41C51CD
:103B1000602000F067FC00E0D2E00121612000F0AD
:103B200061FC4FF40471902000F05CFC4FF485714F
:103B3000922000F057FC0421932000F053FC314602
:103B4000A02000F04FFC0121072000F04BFC2121B8
:103B5000072000F047FC2321072000F043FC33211D
:103B6000072000F03FFC40F23311072000F03AFC40
:103B70000021A02000F036FC21E13021152000F0CA
:103B800031FC10219A2000F02DFC2021112000F0A2
:103B900029FC43F22841102000F024FC02211220CD
:103BA00000F020FC41F23801132000F01BFC28201B
:103BB00001F086FD1221084600F014FC282001F0D7
:103BC0007FFD43F22041102000F00CFC43F238014D
:103BD000132000F007FC462001F072FD0021302088
:103BE00000F000FC40F20241312000F0FBFB40F20B
:103BF0000731322000F0F6FB4FF44171332000F022
:103C0000F1FB0421342000F0EDFB40F201413520AE
:103C100000F0E8FB3946362000F0E4FB40F20531C5
:103C2000372000F0DFFB4FF4C2631946382000F064
:103C3000D9FB1946392000F0D5FB3146012000F0B0
:103C4000D1FB5946022000F0CDFB41F230010320A8
:103C500000F0C8FB40F60801082000F0C3FB082173
:103C60000A2000F0BFFB4FF41C51602000F0BAFBAB
:103C70000121612000F0B6FB4FF49F71902000F00D
:103C8000B1FB3146922000F0ADFB3146932000F0AD
:103C9000A9FB4FF44051A02000F0A4FB1021A32069
:103CA00000F0A0FB0121072000F09CFB2121072050
:103CB00000F098FB2321072000F094FB332107201C
:103CC00000F090FB40F233119DE6E220208023209B
:103CD00028800220288004202880642001F00AFD2A
:103CE000E0202080012028800A2001F0E9FCE0206B
:103CF0002080032028800C2001F0E2FC012020809D
:103D00000A2001F0DDFCE620208003202880FF202F
:103D100028802880B0202080202028800020288033
:103D20000320288040F21F3028800120288040F2A4
:103D3000DF10288000202880B420208004202880E4
:103D400040F21F40288000202880D22028800020B8
:103D50002880288028802880B62020800220288083
:103D60004FF403702880002028802220288009201A
:103D70002880002028802880F020208003202880B0
:103D800029202080D020208000202880BE20208074
:103D900005202880FE20288001202880FF20288000
:103DA00000202880B82020800F2028800120288033
:103DB000BA20208001202880642000F025F800200F
:103DC000FCF794FF04490120C1F880014046FCF74C
:103DD00057FF1FB0BDE8F08F00802142034808B5AF
:103DE0000088ADF80000BDF8000008BD0008006CB8
:103DF000044910B50880052001F07CFCBDE81040A6
:103E0000FFF7ECBFFE07006C0C4A10B5BE21118015
:103E1000941C0521218002F054FE4FF06632084BBD
:103E200002F062FE02F020FE208001202080FF20B0
:103E3000208000202080208010BD0000FE07006C44
:103E400066660440F0B5674E00233146B279898832
:103E500046F6040741F66314012A01D02AB11DE099
:103E6000B9421BD0A14202D118E0A14216D10828C4
:103E700014D2DFE800F00406080A0C0E1012062027
:103E80000CE007200AE0042008E0052006E00120FD
:103E900004E0002002E0032000E00220A1F5134C22
:103EA00045F2103245F21055BCF1410C07D0B94231
:103EB00005D0914203D0A94201D0A14275D1082872
:103EC00012D2DFE800F0110406080A0C0E1080235D
:103ED0000AE0402308E0C02306E0202304E060233A
:103EE00002E0A02300E0E023A94202D14FF45850A1
:103EF00000E03620914205D0A94203D0A14201D072
:103F000043F00803B94201D143F00203194600F01F
:103F100069FAB288A2420AD098063088718802D520
:103F2000884202D303E0884201D9318070802E4854
:103F3000811CAA427289028021D100230B80531C6C
:103F4000038000230B80931C038033885B1E1C0AB4
:103F50000C80D21C0280DAB20A80B289028000236F
:103F60000B80531C038000230B80931C03807388F9
:103F70005B1E1C0A0C80D21C0280D8B212E0002208
:103F80000A800A803288521E130A0B80D2B20A803D
:103F9000B28902800020088008807088401E020AD2
:103FA0000A80C0B20880F0BDFFE7082812D2DFE81F
:103FB00000F0040608110A0C0E1030230AE010234A
:103FC00008E0202306E0382304E0282302E0182339
:103FD00000E00823BDE8F040032043F4805100F0E6
:103FE00001BA0000BC010020FE07006C2DE9F04F73
:103FF0004E4F0B463A46BD880C0ADFF834B1918922
:104000005289A5F513464FEA102C0BF1020A413EE6
:104010001DD0A5F5A646103E19D03E46BE4696F8E0
:1040200006903688A5F5D047A6EB0008A8F1010850
:10403000043F17D0A5F5C857633F28D0A5F5AA4778
:104040007646103F51D0B9F1010F63D064E0ABF870
:1040500000205246AAF800C0C0B2AAF80000ABF88F
:1040600000100FE0B9F1010F01D11FFA88F0ABF891
:104070000020050A5246AAF80050C0B2AAF8000073
:10408000ABF800101480D8B21080BDE8F08FB9F101
:10409000000F1BD0ABF800205246AAF800C0C0B2F7
:1040A000AAF80000761E300AAAF80000F0B21080CC
:1040B000ABF8001011461480D8B21080BEF8020090
:1040C000401E020A0A80C0B20880DEE71FFA88F0AC
:1040D000ABF8002000265246AAF80060AAF800605B
:1040E000060AAAF80060C0B2E1E7ABF80020AAF81F
:1040F00000C0521CABF80020C0B2AAF80000ABF818
:104100000010AAF80040491CABF80010D8B2AAF879
:104110000000BAE71FFA88F00146104600F062F985
:10412000B089BDE8F04F194600F05CB9BC01002031
:10413000FE07006C2DE9FC4F044691464844401EA2
:1041400086B2C818401E83B2009004EB0900401EDE
:10415000C0F3072EDFF850C100980D46C0F3072BBF
:104160006046BCF804204FEA112881894089A2F5F5
:1041700013474FEA142A413F10D0A2F5A647103F3B
:104180000CD0A2F5D047043F08D09CF8067041F649
:10419000631C0197012F13D1624511D1434F388021
:1041A000B81CA0F800A0E2B20280A0F800E0F2B2D1
:1041B00002803980A0F80080E9B2018059461CE0F5
:1041C000394F62453F881DD1A7EB0902121B374CBE
:1041D000009B92B29BB22080160AA01C0680D6B229
:1041E00006804A44521E160A0680D2B202802180FE
:1041F000A0F80080E9B20180190A0180D9B20180DB
:10420000BDE8FC8FA2F5A04CBCF5A26C1FD00198B4
:1042100001283FD0B04621462E4650204FF0510A8B
:104220004FF05209532700F0DDF84146504600F0A8
:10423000D9F83146484600F0D5F81946384600F01E
:10424000D1F829462046BDE8FC4FFFF7CFBE174AFC
:104250001080971CA7F800A000F1010CA2F800C084
:10426000E4B23C80841C1480A7F800E0C01C1080DD
:10427000F0B238801180A7F80080481C1080E8B2A6
:104280003880881C1080A7F800B0C91C1180D8B2F3
:104290003880B5E7B81B401E86B2381B9846401ED2
:1042A000294683B2B9E70000BC010020FE07006C7C
:1042B0002DE9F84F82461F460C468B46580700D022
:1042C000012000EBD70079084843203AC0B202F041
:1042D000FF090026009041E00C2F10D0102F12D0C3
:1042E000182F3ED1204909EBC90001EB80004FF0A7
:1042F0000008855D28060AD51C4802880BE009EBFA
:1043000049001B49F1E71B4901EB0910EFE70A9847
:1043100028B91648428821465046FCF781FD6806B8
:10432000050E1548641CA4B24088A04219D9A4EB1C
:104330000B00B84209D10AF101001FFA80FA0E48B9
:104340005C46018851450CD906E008F1010000F0F7
:10435000FF08B8F1080FCDD3761CF6B2009886425C
:10436000BAD3BDE8F88F0000487700084600002067
:10437000E46C000858710008BC0100202DE9F84FDA
:10438000044600F0FF0810190D46DDE90A761FFA11
:1043900080FA58191FFA80F94FF0000B11E05445CC
:1043A00002D3E819444685B24D450FD23B46294613
:1043B0002046CDF800B0FFF77BFF04EB570084B236
:1043C000761C3278A2F120005E28E8D9BDE8F88F8B
:1043D000024803490089088070470000BC010020A2
:1043E000FE07006C024A1080901C0180704700009C
:1043F000FE07006C38B50121482000F0EDF92024BB
:10440000ADF8004010208DF8030003200B4D8DF80F
:10441000020069462846FCF729FB20212846FCF7C4
:10442000A8FBADF80040064C69462046FCF71EFB91
:1044300020212046FCF79DFB38BD0000000C014008
:1044400000180140FEE7704730B50F23C2780178AD
:104450000125F2B1144A126801F1E02102F4E06290
:10446000C2F5E062120AC2F10404D3404278A240CD
:1044700084781C401443220181F80024007800F065
:104480001F018D404009800000F1E020C0F800517C
:1044900030BD01F01F0085404809800000F1E02098
:1044A000C0F8805130BD00000CED00E00249084327
:1044B00002490860704700000000FA050CED00E0BA
:1044C000002130B1012806D0032806D0042807D1E6
:1044D00005E0B02104E0982102E0182100E030213D
:1044E000552000F005BB70B5802622255E2430B132
:1044F000012808D003280AD004280FD10BE0402659
:1045000011252F240AE066261B254B2406E0992658
:104510002825712402E0C02633258D2431464F2002
:1045200000F0E6FA3146502000F0E2FA0021512076
:1045300000F0DEFA2946522000F0DAFA2146532034
:1045400000F0D6FA3146542000F0D2FABDE87040AF
:104550009E21582000F0CCBA402130B1012806D06D
:10456000032806D0042807D105E0302104E03821D3
:1045700002E0502100E06021562000F0B9BA0000AE
:10458000F8B50024012140F23D1000F025F94FF468
:104590008075ADF8005048268DF803600320354F34
:1045A0008DF8020069463846FCF760FA294638461D
:1045B000FCF7DFFA1820ADF800002F4F10258DF81A
:1045C000035069463846FCF751FA18213846FCF783
:1045D000D0FAFF20ADF800008DF803606946274847
:1045E000FCF744FA4020ADF80000254E8DF803504A
:1045F00069463046FCF73AFA40213046FCF7B9FAF2
:104600004FF44046ADF800608DF803501D4D6946EB
:104610002846FCF72BFA31462846FCF7AAFA012176
:104620001948FCF771FA00F02DF98021122000F0F2
:104630005FFA08B10120F8BD322001F041F80B20EB
:1046400000F0B2F9732804D10A2000F0ADF9762801
:1046500001D00220F8BD0D4D05EB4400417815F85E
:10466000140000F045FA641CA4B2A82CF4D3002076
:10467000F8BD000000080140000C0140001001409E
:10468000001401400020014000023000A484000812
:1046900070B50025E7212C46012806D0022808D055
:1046A00003280AD004280FD10BE0E5215A255C2409
:1046B0000AE0E5215825602406E0E52184254C2404
:1046C00002E0E52196254024132000F011FA294646
:1046D000012000F00DFA2146BDE87040022000F0F4
:1046E00007BA70B50421C0248025072816D2DFE858
:1046F00000F0150406090B0E1200242100E014211D
:1047000080240BE0142109E01421402405E0142149
:104710008024C02502E01421A02440253A2000F086
:10472000E7F92146682000F0E3F92946BDE870402A
:10473000672000F0DDB92DE9F041054600EB4200AD
:1047400086B201EB430084B20F46B4F5447F02D930
:10475000A4F54474A4B2032000F026F906F0030285
:10476000294600F0F00062F39F010143032000F0AE
:10477000BFF9C5F38701192000F0BAF9C6F3870124
:104780001A2000F0B5F9322000F00EF9C7F3C70186
:10479000172000F0ADF9C4F3C701BDE8F0411820BF
:1047A00000F0A6B970470000044A0029516901D001
:1047B000014300E081435161704700000010024056
:1047C000044A0029D16901D0014300E08143D1614D
:1047D0007047000000100240044A0029916901D08E
:1047E000014300E0814391617047000000100240E6
:1047F00030B5204A5168204B11F00C0103D0042938
:1048000001D0082901D0036012E05168536801F417
:1048100070114FF0020413F4803F04EB914102D079
:1048200053689B0301D5154B00E0134B59430160BE
:1048300051680F2303EA1111114B5C5C0168E140E0
:1048400041605468072505EA14241C5D21FA04F42C
:104850008460546805EAD4241B5DD940C160526865
:10486000032303EA9232064B1B1F9A5CB1FBF2F161
:10487000016130BD0010024000127A0000093D00C5
:104880006400002038B501214FF49070FFF7A4FFB9
:104890004FF40055ADF8005048208DF80300032078
:1048A000114C8DF8020069462046FCF7DFF82946D6
:1048B0002046FCF75EF90820ADF8000010200B4DF3
:1048C0008DF8030069462846FCF7D0F808212846F1
:1048D000FCF74FF9606820F470006060606840F495
:1048E0004010606038BD000000200140001401400D
:1048F00070B5322000F0FEFE0C4D0120C5F8B40169
:104900000B4EC6F88C01322005F5DA7506F5C67631
:1049100000F0F0FE00243460322000F0EBFE2C604A
:10492000BDE87040322000F0E5BE000000002442E7
:10493000008022422DE9F047184F0024786820F4C7
:1049400070007860786840F400007860DFF850907C
:10495000144E08254FF00108A246322000F0CAFE8E
:10496000C6F88C816006040ED9F8340108B1641CC5
:10497000E4B2322000F0BEFEC6F88CA16D1E15F028
:10498000FF05EAD1786820F470007860786840F418
:10499000401078602046BDE8F0870000002001400C
:1049A000000024420080224210B5044600F022F8A4
:1049B000422000F055F8642000F09CFE204600F0F4
:1049C0004FF8642000F096FE00F02EF8642000F00E
:1049D00091FE00F00FF8432000F042F8642000F050
:1049E00089FEFFF7A7FF0446FFF782FF00F01CF8DF
:1049F000204610BD70B50A4E0120C6F8B401094D1D
:104A0000C5F88C01322005F5C67506F5DA7600F09A
:104A100071FE00243460322000F06CFE2C6070BD0A
:104A2000000024420080224270B50B4C0020C4F8E4
:104A3000B401322004F5DA7400F05CFE0748012569
:104A4000C0F88C51322000F055FE2560BDE8704062
:104A5000322000F04FBE00000000244200802242BD
:104A60002DE9F04700241F4E1F4F0546A0464FF08A
:104A70000109280601D5484600E04046C6F8B401C1
:104A80006806050E322000F035FEC7F88C91322002
:104A900000F030FEC7F88C81641CE4B2082CE8D327
:104AA000124C606820F470006060606840F40000A0
:104AB0006060322000F01EFEC7F88C91322000F0BA
:104AC00019FED6F8340100B10120C7F88C81616865
:104AD00021F470016160616841F440116160BDE8DA
:104AE000F0870000000024420080224200200140A4
:104AF00070B50D4606460024FFF77CFF4220FFF705
:104B0000AFFF00B10124642000F0F4FD3046FFF750
:104B1000A7FF00B10124642000F0ECFD2846FFF758
:104B20009FFF00B10124FFF77FFF204670BD704753
:104B30000CB50022264800920192016841F48031B0
:104B400001604FF4A063016801F400310191009904
:104B5000491C0091019911B900999942F3D101685A
:104B6000890333D5012101911A490A6842F01002E4
:104B70000A600A6822F003020A600A6842F0020230
:104B80000A604168416041684160416841F4806168
:104B90004160416821F47C114160416841F4E811B1
:104BA0004160016841F08071016001688901FCD5B4
:104BB000416821F003014160416841F00201416018
:104BC0004168C1F381010229FAD10CBD01920CBDEB
:104BD00000100240002002404FF0E0210428086944
:104BE00003D020F004000861704740F00400FAE7A9
:104BF000704700000F4810B5016841F001010160E5
:104C000041680D4A1140416001680C4A1140016041
:104C1000016821F480210160416821F4FE014160B6
:104C20004FF41F018160FFF783FF05494FF00060DB
:104C3000086010BD001002400000FFF8FFFFF6FE04
:104C400008ED00E070B5048C24F001040484058BA9
:104C5000048C4FF6FF7606EA0313134325F0F305A1
:104C60000E4A2B4390420ED00D4A90420BD0B0F129
:104C7000804F08D00B4A904205D00B4A904202D098
:104C80000A4A904202D124F0020201E024F00A0212
:104C90000A4342F001010383018470BD002C0140EE
:104CA000003401400004004000080040000C0040B7
:104CB000F0B5048C24F010040484078B048C4FF6A8
:104CC000FF7527F4734705EA03333B4305EA0222E5
:104CD0001A43114B05EA011698420ED00F4B984229
:104CE0000BD0B0F1804F08D00D4B984205D00D4B42
:104CF000984202D00C4B984205D124F02001314358
:104D000041F0100104E024F0A0030B4343F0100134
:104D100002830184F0BD0000002C014000340140FA
:104D20000004004000080040000C004010B50A4C90
:104D30000121204600F023F900280AD00121204655
:104D400000F003F90549D1F8940118B10020C1F829
:104D5000940110BD0120FAE7000400400000234246
:104D600010B50C4C0121204600F009F901280AD1A8
:104D70000948016988470021204600F0B3F9642101
:104D8000204600F0ADF92046BDE81040012100F0BA
:104D9000DCB8000000080040C8000020F0B50C4658
:104DA000074687B001210820FFF70AFD01210420F2
:104DB000FFF712FD0220ADF8180003258DF81A50F8
:104DC00004268DF81B6006A91248FBF74FFEADF8CC
:104DD0001070ADF80C4000240F4FADF81240ADF844
:104DE0000E4003A9384600F0A7F90120ADF80400F1
:104DF000ADF80060ADF80240ADF80640ADF80850DF
:104E00006946384600F0C8F80121384600F0A0F89D
:104E100007B0F0BD00080140000C004070B51F4C09
:104E20001F4D2078000633D40121284600F0A7F852
:104E300038B12178480604D5C843800612D0491CF1
:104E400021700221284600F09AF808B3217848061C
:104E50000FD541F080002070284600F083F8608074
:104E6000002112E041F0800020704FF6FF7060805A
:104E7000E7E70020207060800146284600F032F904
:104E80002078022140F040002070284600F022F9EE
:104E90002846BDE87040032100F057B850000020BC
:104EA000000C004070B5094D0121284600F067F85C
:104EB00030B1074C07A06178FBF7D8F9002060708B
:104EC0002846BDE87040012100F03FB800100040C6
:104ED000500000206672616D653A25646670730D3E
:104EE0000A0000007FB50D46044601211020FFF79F
:104EF00067FCADF804400020ADF80050104CADF850
:104F00000600ADF802006946204600F015F90122BE
:104F10004121204600F0D6F80121204600F018F883
:104F200036208DF80C0001208DF80D0003218DF83E
:104F30000E108DF80F0003A8FFF786FA7FBD000062
:104F400000100040C94301827047C9430182704785
:104F50000029018802D041F0010101E021F00101A6
:104F600001807047808E7047008F7047808C70473B
:104F700002460020128A0A4200D0012070470246F1
:104F80000020138A92890B4202EA010202D0002A11
:104F900000D00120704700002DE9F84F0D4604466F
:104FA0000888434FDFF80CC1DFF80C81DFF80C9163
:104FB0004988AA882B894FF0804A48B3042830D00A
:104FC0004FF6FF760828934634D0208C9E4620F476
:104FD00080502084A38B208C06EA0132009223F4B7
:104FE000734306EA0B221A4306EA0E331343BC420C
:104FF0000AD0644508D0544506D0444504D04C45F9
:1050000002D02F4A944245D120F40050009943E049
:105010002046FFF717FEE9882046BDE8F84F00F06C
:1050200063B82046FFF744FEE9882046BDE8F84F04
:1050300000F062B8208C20F480702084B4F81CE06A
:10504000208C06EA031306EA01222EF0F30E43EA4F
:105050000B0343EA0E030092BC420AD0644508D019
:10506000544506D0444504D04C4502D0144A9442DD
:1050700003D120F40070009901E020F4206008437F
:1050800040F48070A3832084E9882046BDE8F84F6F
:1050900000F03EB820F40240084340F48050A3835F
:1050A0002084E9882046BDE8F84F00F039B80000B8
:1050B000002C014000340140000400400008004082
:1050C000000C0040002A828901D00A4300E08A4394
:1050D00082817047028C22F002020A4302847047E8
:1050E0008185704781847047028B22F00C02028315
:1050F000028B0A4302837047028B22F440620283D0
:10510000028B4FF6FF7303EA01210A4302837047C3
:10511000828B22F00C028283828B0A438283704747
:10512000828B22F440628283828B4FF6FF7303EA04
:1051300001210A438283704730B502881B4C1C4D05
:10514000A0420DD0A8420BD0B0F1804F08D0194B2F
:10515000984205D0184B984202D0184B984203D180
:1051600022F070034A881A43154B984206D0154B1B
:10517000984203D022F44073CA881A4302808A8876
:1051800082850A880285A0420AD0A84208D00E4A29
:10519000904205D00D4A904202D00D4A904201D172
:1051A000097A01860121818230BD0000002C014076
:1051B000003401400004004000080040000C0040A2
:1051C0000010004000140040004001400044014035
:1051D0000048014070B50446002504E000F008F8DE
:1051E000A84200D90546641EE4B2F7D2284670BD35
:1051F00070B500F06FF84FF60B640B4D08E0FFF749
:10520000B5FEA04204D92846BDE87040FFF7AEBE07
:1052100004212846FFF7ACFE00282846EFD0BDE861
:105220007040FFF7A1BE0000000C004030B5401EEA
:1052300081B285B04FF6FF70FFF7B0FD00246D46D8
:10524000FFF7D6FF25F814000A2000F039FA641C95
:10525000E4B20A2CF4D300214C1CE0B20BE035F888
:10526000113035F81020934203D925F8112025F884
:105270001030401CC0B20A28F1D3E1B20929EBD3A7
:105280000021022035F81020401C1144C0B289B220
:105290000828F7D30620B1FBF0F0074C6080618846
:1052A00006A0FAF7E3FF6088B0F5004F02D30120B3
:1052B00005B030BD0020FBE74A0000207470616437
:1052C0005F64656661756C745F76616C3A25640D28
:1052D0000A00000038B501210420FFF77DFA022002
:1052E000ADF8000010208DF8030003200F4C8DF85E
:1052F000020069462046FBF7B9FB02212046FBF776
:1053000036FC052000F0DCF9094D00212846FFF7A6
:10531000E9FE05212846FFF718FE04218DF8031049
:1053200069462046FBF7A2FB38BD0000000801409B
:10533000000C004070B501000D4C4FF000054FF01F
:10534000030002D0002106202170FFF743FF61888F
:1053500064318842207804D900B9012503202070E7
:1053600000E010B1C0B2401E2070284670BD0000A1
:105370004A0000207FB50D46044601210420FFF7B6
:105380001FFAADF804400020ADF80050104CADF805
:105390000600ADF8020069462046FFF7CDFE012267
:1053A00041212046FFF78EFE1E218DF80C100321AF
:1053B0008DF80D108DF80E1001208DF80F0003A848
:1053C000FFF742F801212046FFF7C2FD7FBD000034
:1053D0000008004070B5154C40F22551204600F001
:1053E00035F800280ED0204600F0BEF8104AC1B2B1
:1053F0001088030406D444044FF0000306D50A299C
:1054000001D0138070BD40F400400DE00D2909D09B
:10541000C0F30D04074D401C80B229551080C728E9
:10542000EFD870BD40F48040108070BD003801405E
:1054300058000020CA0100200029818902D041F4CF
:10544000005101E021F400518181704770B501F0F5
:105450001F0501260024C1F3421306FA05F2012BB1
:105460000FD0022B0FD0838A4FEA112100881342FC
:1054700006FA01F600EA060001D000B10124204638
:1054800070BD8389F0E7038AEEE710B5C1F34213DC
:1054900001F01F040121A140012B07D0022B07D0EE
:1054A0001430002A026805D00A4304E00C30F8E703
:1054B0001030F6E78A43026010BD000030B50446A4
:1054C000008A85B00D464CF6FF710840E98801431B
:1054D0002182A0894EF6F3110840A9882A89114338
:1054E0006A8902431143A181A08A4FF6FF41084017
:1054F000A9890143A1826846FFF77AF919488442D5
:1055000001D1039800E00298A189090400EBC001D1
:1055100001EB0010296801D5490000E08900B0FBCB
:10552000F1F06422B0FBF2F109010B096FF01805EC
:105530006B4300EB8300A3891D044FF0320306D5B3
:1055400003EBC000B0FBF2F000F0070005E003EB56
:105550000010B0FBF2F000F00F000843208105B00E
:1055600030BD0000003801408088C0F3080070475B
:10557000FEE730380A2801D201207047002070472A
:10558000704700002DE9F047DFF8DC9099F8000043
:10559000002867D00420FEF755FC34494FF4A07270
:1055A0008888A0F5C853633B07D0A0F5AA43103BF9
:1055B00013D013F5007310D01FE008884988F03825
:1055C000A1F5A07101EBD17100EBD0701346C1F3CE
:1055D0004F01C0F34F00F0220DE008884988A0F584
:1055E000A070F03901EBD17100EBD070C1F34F0125
:1055F000C0F34F00F023FEF79DFDFEF7E9FE1C48C7
:105600000027C0F8B8711B4C10212160251F2960AC
:1056100021600122C0F8B8212960174EDFF85C80B4
:1056200038464FF6FF734FF4963A2160B26829600E
:1056300003EA02222160D6F808C029600CF0FF0CB2
:105640004CEA020CA8F800C0401C5045EDD30C49B0
:1056500089F800700878401C0870BDE8F047002009
:10566000FEF7F0BBBDE8F0874E000020BC01002033
:1056700000002442140C0140001001400008006C9E
:105680005100002010B56FF00400FFF7A5FA09489B
:1056900009490068B0FBF1F00849C0B200EB4002D4
:1056A0000870C2EBC0104FF6FF7202EAC0004880DB
:1056B00010BD00003000002000127A0054000020CD
:1056C0000B49498848434FF0E021486100238B6132
:1056D000086940F0010008610869C20701D0C003F1
:1056E000FAD5086920F0010008618B61704700005D
:1056F000540000200B49097848434FF0E0214861ED
:1057000000238B61086940F0010008610869C20745
:1057100001D0C003FAD5086920F0010008618B614F
:10572000704700005400002004490A885206FCD546
:10573000024AC1B2121D11807047000000380140BA
:1057400086B04FF0000802273E463D464446C2461A
:10575000C146FFF797FF4FF4A060FEF7A7FE4FF496
:10576000E13000F0D1F9A548416848208847FEF7AC
:1057700041FEFBF701FAFBF727FC0620FFF756FD79
:105780009F494FF478404FF0100B08809DA1CDE960
:1057900000B15B46C82232211E20FEF7EFFD9DA11D
:1057A000CDE900B11023C82246211E20FEF7E6FDF8
:1057B0009DA1CDE900B11023C8225A211E20FEF779
:1057C000DDFD9DA1CDE900B11023C8226E211E2070
:1057D000FEF7D4FD9BA1CDE900B11023C8228221A0
:1057E0001E20FEF7CBFD9BA1CDE900B11023C822FE
:1057F00096211E20FEF7C2FD9AA1CDE900B110232B
:10580000C822AA211E20FEF7B9FD9AA1CDE900B158
:105810001023C822BE211E20FEF7B0FD99A1CDE9BC
:1058200000B11023C822D2211E20FEF7A7FD99A1A6
:10583000CDE900B11023C822E6211E20FEF79EFD0F
:1058400017E098A1CDE900B11023C822E6211E205F
:10585000FEF794FDC820FFF733FF4FF6FF7000906E
:10586000F623EF22E6211E20FBF768FBC820FFF796
:1058700027FFFEF785FE0028E3D18EA1CDE900B118
:105880001023C822E6211E20FEF778FD40F2DC50EE
:10589000FFF716FF4046FEF7FBFE3846FEF723FEF5
:1058A0003046FEF70DFE2846FEF756FE2046FEF770
:1058B00018FF41F61F4142F21070FFF713FBFAF791
:1058C000BBFF4FF4A073F022B0210C20FEF733FF92
:1058D0007C490020C1F8BC01FBF7D2F90020FBF79E
:1058E00069F900283ED04FF01409012806D002289B
:1058F00014D003281DD0042834D125E008F101007C
:10590000C0B28046042801D900208046FEF7C0FEC0
:105910006D4902A851F828206CA121E07F1CFFB23C
:10592000042F00D900273846FEF7DDFD7AB268A1C2
:1059300014E0761CF6B2042E00D900263046FEF79D
:10594000BFFD72B266A109E06D1CEDB2042D00D955
:1059500000252846FEF700FE6AB265A102A8921E45
:10596000FAF790FC0020FFF7E5FC88B1641CE4B274
:10597000062C00D900242046FEF7B3FE524853A15E
:10598000143050F8242002A8FAF77CFC4FF01409D8
:10599000FFF7F8FDB9F1000F1CD058493C2202ABCB
:1059A00008884988F038A1F5A07101EBD17102EBAC
:1059B000610100EBD0701E22CDE900B302EB600064
:1059C00089B280B21023C822FEF7D8FCA9F10100E9
:1059D00000F0FF090AF1010000F0FF0ABAF10F0F11
:1059E0007FF47CAF46494FF0000AD1F8940118B11A
:1059F0000020C1F8940171E70120FAE7C8000020F7
:105A000046000020576172536869702053544D332B
:105A100032000000464C41534820454550524F4DFE
:105A2000205445535400000041544F4D40414C49CF
:105A3000454E54454B000000323031352F312F3167
:105A4000380000004B4559303A4C69676874204D66
:105A50006F6465004B4559313A53617475726174D6
:105A6000696F6E004B4559323A4272696768746ECD
:105A7000657373004B45595F55503A436F6E7472AE
:105A800061737400545041443A45666665637473AB
:105A9000000000004F563736373020496E69742EAB
:105AA0002E2E00004F5637363730204572726F72F7
:105AB000212100004F563736373020496E69742057
:105AC0004F4B00000000244200000020257300001E
:105AD00053617475726174696F6E3A2564000000D9
