:020000040800F2
:1000000028160020CD010008F1050008970400081B
:10001000ED05000861030008B71A000800000000A1
:10002000000000000000000000000000FD160008B5
:1000300065030008000000005B02000811180008BA
:10004000E7010008E7010008E7010008E7010008F0
:10005000E7010008E7010008E7010008E7010008E0
:10006000E7010008E7010008E7010008E7010008D0
:10007000E7010008E7010008E7010008E7010008C0
:10008000E7010008E7010008E7010008E7010008B0
:10009000E7010008E7010008E7010008E7010008A0
:1000A000E7010008E7010008E7010008E701000890
:1000B000E7010008E7010008E7010008E701000880
:1000C000E7010008E7010008E7010008E701000870
:1000D000E70100088D180008E7010008E7010008A3
:1000E000E7010008E7010008E7010008E701000850
:1000F000E7010008E7010008E7010008E701000840
:10010000E7010008E7010008E7010008E70100082F
:10011000E7010008E7010008E7010008E70100081F
:10012000E7010008E7010008E7010008E70100080F
:1001300000F002F800F03AF80AA090E8000C8244BF
:100140008344AAF10107DA4501D100F02FF8AFF29C
:10015000090EBAE80F0013F0010F18BFFB1A43F0A5
:1001600001031847841D0000A41D0000103A24BF9D
:1001700078C878C1FAD8520724BF30C830C144BF0C
:1001800004680C607047000000230024002500264E
:10019000103A28BF78C1FBD8520728BF30C148BFEA
:1001A0000B6070471FB51FBD10B510BD00F08DF876
:1001B0001146FFF7F7FF01F077FD00F0ABF803B44D
:1001C000FFF7F2FF03BC01F078FC0000094880470C
:1001D00009480047FEE7FEE7FEE7FEE7FEE7FEE729
:1001E000FEE7FEE7FEE7FEE704480549054A064B41
:1001F000704700002D180008310100082810002069
:10020000281600202812002028120020EFF310806A
:1002100072B6704780F310887047204C204D2560DF
:100220004FF0000484F309881E4C4FF0010525703F
:100230001D4C4FF08055256062B6FEE730B41A4C75
:100240004FF08055256030BC704730B4164C4FF0ED
:100250008055256030BC704700BF72B6EFF309804F
:1002600028B1203880E8F00F10490968086000B50F
:100270000F4880475DF804EB0E480F490A7802707A
:100280000A480E490A680260106890E8F00F2030B2
:1002900080F309884EF0040E62B6704720ED00E04E
:1002A0000000FFFF5E00002004ED00E0640000207D
:1002B000A90E000853000020540000206C0000200C
:1002C00070477047704770477047754600F028F8D0
:1002D000AE4605006946534620F00700854618B033
:1002E00020B5FFF781FFBDE820404FF000064FF03A
:1002F00000074FF000084FF0000B21F00701AC465B
:10030000ACE8C009ACE8C009ACE8C009ACE8C00979
:100310008D4670470446AFF300802046FFF74FFF3D
:1003200000487047C80F002008B50121082001F0DF
:100330006BF94FF48070ADF8000010208DF80300C9
:1003400003208DF802006946044800F00CF84FF4D1
:100350008071024800F09BF808BD0000000C0140CD
:1003600000BFFEE770472DE9F04102460025002658
:10037000002000230024002791F803C00CF00F0593
:1003800091F803C00CF0100CBCF1000F03D091F8F1
:1003900002C04CEA050591F800C0BCF1000F31D055
:1003A000146800202BE04FF0010C0CFA00F3B1F8B8
:1003B00000C00CEA03069E4220D183004FF00F0CD0
:1003C0000CFA03F7BC4305FA03FC4CEA040491F869
:1003D00003C0BCF1280F06D14FF0010C0CFA00FC51
:1003E000C2F814C00AE091F803C0BCF1480F05D16F
:1003F0004FF0010C0CFA00FCC2F810C0401C082899
:10040000D1D31460B1F800C0BCF1FF0F34DD5468E3
:1004100000202EE000F1080C4FF0010808FA0CF360
:10042000B1F800C00CEA03069E4221D183004FF0D0
:100430000F0C0CFA03F7BC4305FA03FC4CEA040466
:1004400091F803C0BCF1280F05D100F1080C08FA9F
:100450000CF8C2F8148091F803C0BCF1480F07D122
:1004600000F1080C4FF0010808FA0CF8C2F81080EF
:10047000401C0828CED35460BDE8F081024600201D
:1004800093680B400BB1012000E0002070474161F0
:1004900070470161704700BFFEE7000008B5012109
:1004A000442001F0B1F81C20ADF8000048208DF880
:1004B000030069460648FFF756FF0120ADF800002B
:1004C00028208DF8030069460248FFF74CFF08BD5D
:1004D000001801400008014010B5044614B1012085
:1004E0002C4908702B480078002837D010212A4862
:1004F000FFF7C4FF78B108212748FFF7BFFF50B1CD
:1005000004212548FFF7BAFF28B101212348FFF74E
:10051000B5FF012822D10A2001F01CFB00201D4953
:10052000087010211C48FFF7A9FF08B9012010BD71
:1005300008211948FFF7A2FF08B90220F7E70421B4
:100540001548FFF79BFF08B90320F0E70121134886
:10055000FFF794FF01281BD10420E8E710210E4883
:10056000FFF78CFF012813D108210B48FFF786FF06
:1005700001280DD104210848FFF780FF012807D189
:1005800001210648FFF77AFF10B9012001490870E0
:100590000020CCE7140000200018014000080140B2
:1005A00008B50121482001F02FF82020ADF8000007
:1005B00010208DF8030003208DF8020069460948D9
:1005C000FFF7D1FE20210748FFF763FF2020ADF899
:1005D000000069460448FFF7C6FE20210248FFF7E5
:1005E00058FF08BD000C01400018014000BFFEE7A5
:1005F0007047000070B5002100230F22C47804B3B7
:10060000154C246804F4E064C4F5E064210AC1F1E7
:100610000403CA40447804FA03F184781440214367
:1006200009010E4C0678A155047804F01F05012439
:10063000AC4005786D11AD0005F1E025C5F800412D
:1006400009E0047804F01F050124AC40044D06784D
:10065000761145F8264070BD0CED00E000E400E0A6
:1006600080E100E002490143024A11607047000046
:100670000000FA050CED00E010B500F013F800F0F2
:1006800047FD00F06FFD00F08FFD00F017FD00F05A
:10069000D7FC00F023FE00F0C7FD00F0EDFD00F0F8
:1006A00002F810BD7047704706480078012808D14D
:1006B00005480078FF2804D203480078401C02490E
:1006C000087070475E0000205100002010B5002423
:1006D0001A480078012830D1FFF798FD04461848E1
:1006E000007820B116480078401E1549087014485B
:1006F0000078F8B913480078E0B900F051FE1248CC
:100700001249097850F82100114908600F48007813
:100710001049097888420DD00D480068806B401C54
:100720000B49096888630C480068401C0A49086046
:10073000FFF78BFD2046FFF76DFD10BD5E0000202A
:100740005100002052000020600A002054000020C8
:100750006C000020530000203800002010B5002459
:100760000B480078012811D1FFF750FD04460948D5
:10077000007840B908480078FF2804D2064800787D
:10078000401C054908702046FFF744FD10BD0000DD
:100790005E000020510000205200002010B500240F
:1007A00013480078012821D1FFF730FD0446114895
:1007B0000078C0B10F480078401E0E490870084606
:1007C000007860B90C48007828B92046FFF722FD70
:1007D00000F0ACFD0AE02046FFF71CFD06E02046D5
:1007E000FFF718FD02E02046FFF714FD10BD0000E2
:1007F0005E000020520000205100002010B50B4880
:10080000007890B900F0CCFD0948007809490870DB
:1008100009480749097850F8210008490860084646
:10082000006807490860FFF7F8FC10BD5E00002073
:100830005400002053000020600A00206C000020BB
:100840006400002010B50024022000F02FFBFFF709
:10085000DDFC044600200B4908602046FFF7DAFC67
:10086000142000F023FBFFF7D1FC04460548006884
:10087000054908600120054908702046FFF7CAFCB9
:1008800010BD000060000020480000205000002043
:10089000704700002DE9FE4F06460F4690461C4665
:1008A0004FF00009FFF7B2FC81461F48007828B1DD
:1008B0004846FFF7AFFC3C20BDE8FE8F1B4850F8D0
:1008C000240060BB0120194941F824004846FFF785
:1008D000A1FC002342463946304600F043FA8246E6
:1008E00000200090019003460246514602902046A7
:1008F00000F06CFD054635B90D48007801280CD193
:1009000000F014FD09E0FFF781FC81460020074953
:1009100041F824004846FFF77DFC2846CCE74846CE
:10092000FFF778FC2820C7E751000020600A00206C
:100930005E0000202DE9F04F85B081468A4693463F
:100940001C46DDE90F78129D00200390FFF75EFC46
:1009500003902348007830B10398FFF75BFC3C20FC
:1009600005B0BDE8F08F1F4850F8240088BB012077
:100970001C4941F824000398FFF74CFC2A464146E5
:10098000384600F033FE2B465A465146484600F0A2
:10099000E9F904901198CDE9008002953A46204685
:1009A0000E9B049900F012FD064636B90E480078F9
:1009B00001280CD100F0BAFC09E0FFF727FC0390F6
:1009C0000020084941F824000398FFF723FC304633
:1009D000C6E7FFE70398FFF71DFC2820C0E70000EB
:1009E00051000020600A00205E00002070470000D7
:1009F0002DE9F041054600274748007810B1402016
:100A0000BDE8F0813F2D01D13E20F9E7FFF7FEFB65
:100A10000746FF2D03D14148006890F83250404806
:100A200050F8254024B93846FFF7F4FB4320E7E7A8
:100A3000012C04D13846FFF7EDFB3D20E0E714F828
:100A4000340F3849085C617888432178354A50541E
:100A500014F834091146085C30B994F8361032485D
:100A60000078884330490870E06918B12046E16990
:100A700000F0D0FA666A16B1304600F00DFB002097
:100A8000E06284F8300084F8310028480078FF28BC
:100A900004D226480078401C244908703846FFF7E5
:100AA000B9FB00F0B6FAFFF7B1FB07461F48007824
:100AB00020B11E480078401E1C490870204600F0F6
:100AC00041F81B480078401E19490870002014495D
:100AD00041F82500A06930B9002061698861154995
:100AE0006069086005E0D4E905014861D4E90510B2
:100AF00088611148006860610F4804600FA0E064DD
:100B00003846FFF787FB0E480078012801D100F036
:100B10000DFC002074E7000051000020640000205C
:100B2000600A0020560000205500002052000020DE
:100B30005F00002070000020680000203F000000DF
:100B40005E000020704700002DE9F04104460027B8
:100B50003F2C02D13E20BDE8F081FF2C0BD1FFF7E6
:100B600055FB07461148006890F837603846FFF794
:100B700051FB3046EFE7FFF749FB07460C4850F8BA
:100B8000245025B93846FFF745FB4320E3E7012D04
:100B900004D13846FFF73EFB3D20DCE73F2085F8D7
:100BA00037003846FFF736FB0020D4E7640000200A
:100BB000600A0020704700002DE9F04106460F460C
:100BC00014464FF000081548007818B11220207024
:100BD000BDE8F081FFF71AFB8046FF2E03D11048D5
:100BE000006890F832600F4850F826502DB9404602
:100BF000FFF710FB43202070EAE7012D05D14046A6
:100C0000FFF708FB43202070E2E7EF644046FFF760
:100C100001FB0020207000BFDAE700005100002037
:100C200064000020600A002070B505460026FFF72A
:100C3000EDFA0646234850F8254024B93046FFF720
:100C4000E9FA462070BD012C04D13046FFF7E2FAE4
:100C50004320F7E794F8300000F0080060B314F880
:100C6000300F00F0F700207014F83009F8B9E06A8E
:100C7000C8B93434A0781449097808431249087077
:100C800020781249085C6178084314F834190F4A37
:100C900050543046FFF7BEFA0D480078012809D1BC
:100CA00000F044FB06E03046FFF7B4FA02E03046BD
:100CB000FFF7B0FA0020C5E73046FFF7ABFA442053
:100CC000C0E70000600A0020550000205600002008
:100CD0005E000020704700002DE9F04707460D46F2
:100CE0004FF0000A002028606860FFF78FFA824604
:100CF000FF2F03D11948006890F83270184850F857
:100D000027402CB95046FFF785FA4320BDE8F0870D
:100D1000012C04D15046FFF77DFA4320F6E7207CF2
:100D200000F0010020B95046FFF774FA4520EDE7C6
:100D30000026D4F80C90D4F808805046FFF76AFAE1
:100D400000E0761C58F8041B0029FAD0B000286097
:100D5000A9EB0600800068600020D7E7640000204F
:100D6000600A002070B5044610464FF0807505609B
:100D7000051F28462C606FF00106051F28462E60CF
:100D80004FF01236051F28462E604FF00336051F20
:100D900028462E604FF00236051F28462E6076103A
:100DA000051F28462E60051F284629604FF0113682
:100DB000051F28462E604FF01036051F28462E606E
:100DC0004FF00936051F28462E604FF00836051FE4
:100DD00028462E604FF00736051F28462E604FF03C
:100DE0000636051F28462E604FF00536051F28469B
:100DF0002E604FF00436051F28462E6070BD00009F
:100E00002DE9F04105464FF00008FFF7FFF9804655
:100E1000FF2D05D12048006890F83250012608E0E7
:100E20001D48006890F83200A84201D1012600E078
:100E300000261A4850F825402CB94046FFF7EAF939
:100E40004820BDE8F081012C04D14046FFF7E2F9CB
:100E50004320F6E794F834701148C05D94F83510DB
:100E600088430F49C8550846C05D30B994F836101C
:100E70000C48007888430B49087094F8300040F023
:100E8000080084F830004046FFF7C4F9012E01D174
:100E900000F04CFA0020D4E764000020600A002033
:100EA00056000020550000207047000070B5054630
:100EB00000261748007800B170BD1648007800B1D0
:100EC000FAE71DB3FFF7A2F906461348006890F849
:100ED00034401248005D1049096891F83510884384
:100EE0000E4908550846005D40B90B48006890F867
:100EF00036100B4800788843094908700648006896
:100F0000C5623046FFF786F900F010FA00BFD3E75C
:100F100051000020520000206400002056000020F4
:100F20005500002070B5002600F072F8FFF76EF94A
:100F3000064631480068401C2F4908603046FFF7DC
:100F400069F92E480078012853D12D48007820B146
:100F5000012804D0022809D103E001250BE0002577
:100F600009E0012501202649087004E00125002040
:100F70002349087000BF00BF05B970BD214804684F
:100F800033E0FFF743F90646E06A50B3E06A401EDB
:100F9000E062E06A28BB94F8300000F0370040B10E
:100FA00014F8300F00F0C800207001206070303C51
:100FB00002E0002084F8310094F8300000F00800CE
:100FC00078B93434A0781049097808430E4908707C
:100FD00020780E49085C6178084314F834190B4AEC
:100FE000505464693046FFF715F994F832003F28F1
:100FF000C7D100BFC1E700007C0000205E000020D8
:1010000074000020700000205500002056000020D1
:101010007047704710B590F8342001F10B039B5CCA
:1010200090F83540A34301F10B04A35423469B5C85
:1010300023B98B7A90F83640A3438B7210BD000021
:101040002DE9F0415021114800F03EF900250DE056
:10105000681C86B20D4800EB051400EB0617002053
:10106000207067600AA0E060681C85B2042DEFD391
:10107000064800EB051400202070606004A0E060CA
:10108000024804490860BDE8F08100001006002015
:101090003F0000004000002030B501464A68086863
:1010A0002AB9CC68606028B10025456002E0106074
:1010B00000B142608B6800255D6230BD70B5C8210B
:1010C000114800F001F900230FE0581C85B203EB32
:1010D00083000D4901EB800405EB850001EB8006E0
:1010E000002020706660581C83B2092BEDD303EBFF
:1010F0008300054901EB80040020207060600846F1
:101100000249086070BD0000480500203C00002036
:1011100000200A4908600A4908700A4908700A490B
:1011200008700A4908700A4908600A4908600A49B3
:1011300008600A4908600A49087070477C0000206E
:1011400051000020520000205F0000205E000020BF
:1011500038000020600000204C00002048000020E3
:101160005000002000210A4A1170002004E00021F4
:10117000084A1154411CC8B20828F8D30021064A75
:101180001170064A1170064A1160064A11607047D4
:10119000550000205600002053000020540000207D
:1011A0006C0000206400002070B54FF47C71194879
:1011B00000F08AF84FF48071174800F085F8002499
:1011C00013E0601CC5B2C4EBC40000EB4000114941
:1011D00001EB8003C5EBC50000EB400001EB80068E
:1011E0005E610EA0D864601CC4B20B2CE9D3C4EBC2
:1011F000C40000EB4000074901EB80030020586168
:1012000006A0D86400200649086002480549086025
:1012100070BD0000600B0020600A00203F0000004D
:10122000700000206800002000B587B00320002176
:1012300080220A4BCDE90132CDE903104FF6FF7051
:101240003F23074A00900748FFF774FB06AA06A150
:101250003F20FFF7B1FC07B000BD00006008002090
:101260005C0A00200115000875432F4F532D494992
:101270002049646C6500000000B587B003200021A0
:1012800080220A4BCDE90132CDE903104FF6FE7002
:101290003E23074A00900748FFF74CFB06AA06A129
:1012A0003E20FFF789FC07B000BD0000600600206B
:1012B0005C0800202915000875432F4F532D49491C
:1012C000205374617400000004E0002200F8012B38
:1012D0004A1E91B20029F8D1704700002DE9F04173
:1012E00078211048FFF7F0FF00240DE0601C86B263
:1012F00004EB44000B4901EBC00506EB460001EB93
:10130000C0072F60601C84B2042CEFD304EB4400B0
:10131000044901EBC0050020286008460249086026
:10132000BDE8F081500F00207800002010B50024A7
:10133000FEF76CFF044613480078F8B912480078AD
:10134000E0B900F02DF811481149097850F8210052
:10135000104908600E4800780F49097888420DD07E
:101360000C480068806B401C0A49096888630B4878
:101370000068401C09490860FEF760FF2046FEF740
:1013800049FF10BD5100002052000020600A0020DB
:10139000540000206C000020530000203800002082
:1013A0000649074A1278885C0649095C034A515C81
:1013B00001EBC001044A117070470000E81D0008ED
:1013C0005500002056000020540000202DE9F84F61
:1013D00005460F4690469946DDE90AAB002000908D
:1013E000FEF714FF00903F480468002C74D01834B6
:1013F00054F8040C3B4908600098FEF70BFF44F8D2
:10140000187CA576002020766076606144F814BCD4
:1014100044F80CAC44F8108C0C9824F8080C24F810
:10142000069C0020E077E810207705F00700E076C2
:10143000217F01208840A077E17E012088406077ED
:1014400000206060E060A0602062A0626062E062F4
:10145000206325A06063183C002606E0002104F10B
:10146000500040F82610701CC6B2002EF6D0204660
:10147000FFF70EFA2046FFF7B9FAFEF7C7FE009015
:101480001A4840F825401A48006860610020A061B1
:101490001748006810B11648006884611448046059
:1014A0003434A07813490978084312490870207829
:1014B0001149085C6178084314F834190E4A5054F5
:1014C0000E480078401C0D4908700098FEF7A2FEF7
:1014D0000020BDE8F88FFFE70098FEF79BFE422052
:1014E000F7E70000680000203F000000600A0020CD
:1014F0007000002055000020560000205F000020F2
:10150000002400BF00BFFEF781FE044605480068C6
:10151000401C044908602046FEF77CFEFFF74AFBAA
:10152000F1E7000060000020002400BF02E0282056
:10153000FFF7BCFC194800780028F8D0184800686C
:101540006421B0FBF1F0164908600846006828B92C
:10155000002014490870FF20FFF752FC00BFFEF77F
:1015600055FE0446104800681049086000200E49E6
:1015700008602046FEF74EFE0C48006808490968DE
:10158000B0FBF1F0C0F1640006490870FFF7A2FB60
:1015900000F00EF81420FFF789FCE0E7500000206F
:1015A0004800002044000020600000204C00002083
:1015B0007CB5002514E069462846FFF78DFB0646FA
:1015C00066B9094850F8254044B1012C06D0D4E949
:1015D000020100EB810060640198A064681CC5B240
:1015E0003F2DE8D97CBD0000600A002002F0010315
:1015F00043B102F002032BB102E0491E002308C0F0
:101600000029FAD17047000029B1064A92690243C5
:10161000044B9A6104E0034A92698243014B9A6148
:10162000704700000010024030B500210022002465
:1016300000232D4D6D6805F00C0121B1042905D062
:10164000082923D105E0294D056022E0274D0560DA
:101650001FE0254D6D6805F47012234D6D6805F48B
:101660008034022505EB92421CB9214D554305609B
:101670000BE01D4D6D6805F400351DB11C4D554343
:10168000056002E0194D5543056002E0174D056005
:1016900000BF00BF144D6D6805F0F0010909154D3C
:1016A0006B5C0568DD4045600F4D6D6805F4E061D9
:1016B000090A104D6B5C4568DD4085600A4D6D6818
:1016C00005F46051C90A0B4D6B5C4568DD40C5608F
:1016D000054D6D6805F44041890B074D6B5CC5688D
:1016E000B5FBF3F5056130BD0010024000127A0031
:1016F00000093D002200002032000020704710B594
:1017000000F002F810BD00000CB500200190009020
:101710003348006840F480303149086000BF3048E9
:10172000006800F4003000900198401C019000987F
:1017300018B90198B0F5A06FF1D12948006800F4FC
:10174000003010B10120009001E0002000900098CE
:10175000012843D12348006840F010002149086067
:101760000846006820F0030008600846006840F062
:10177000020008601A4840681949486008464068F5
:1017800048600846406840F4806048600846406809
:1017900020F47C1048600846406840F4E810486037
:1017A0000846006840F08070086000BF0C48006880
:1017B00000F000700028F9D00948406820F00300CC
:1017C000074948600846406840F00200486000BF92
:1017D0000348406800F00C000828F9D10CBD000057
:1017E0000010024000200240042808D14FF0E02100
:1017F000096941F004014FF0E022116107E04FF068
:10180000E021096921F004014FF0E02211617047E5
:1018100010B505480078012805D1FEF745FFFFF710
:1018200081FBFEF753FF10BD5E00002010B513488A
:10183000006840F0010011490860084640681049FE
:1018400008400E494860084600680E4908400B49A8
:1018500008600846006820F4802008600846406858
:1018600020F4FE0048604FF41F008860FFF747FF38
:101870004FF000600449086010BD000000100240F5
:101880000000FFF8FFFFF6FE08ED00E010B5FEF7E0
:101890000BFF40F225511E4800F04CF810B31C48D5
:1018A00000F004F9C4B21B48008800F40040C8B935
:1018B0001848008800F4804060B10A2C03D0002052
:1018C0001449088020E01348008840F40040114982
:1018D000088019E00D2C06D10E48008840F48040A5
:1018E0000C49088010E00B480088C0F30D000A493D
:1018F0000C5408480088401C0649088008460088A7
:10190000C72801DD00200880FEF7E0FE10BD0000C2
:1019100000380140200000208004002021B182898D
:1019200042F40052828104E082894DF6FF731A402E
:101930008281704770B502460024002300250020F4
:1019400040F66A16B14200D100BFC1F3421501F062
:101950001F03012606FA03F3012D02D196893340B5
:1019600006E0022D02D1168A334001E0968A334008
:101970000C12012606FA04F41688344013B10CB197
:10198000012000E0002070BDF0B5034600240026D1
:101990000025002040F66A17B94200D100BF184662
:1019A000C1F3421401F01F06012707FA06F5012CC6
:1019B00001D10C3004E0022C01D1103000E01430D1
:1019C0001AB107682F43076002E00768AF4307605A
:1019D000F0BD00002DE9F04786B005460E46002414
:1019E000A24600BFA1460027B08900B100BF2F4624
:1019F0002C8A4CF6FF700440F08804432C82AC899A
:101A00004EF6F3100440B0883189084371890843C9
:101A10000443AC81AC8A4FF6FF400440B0890443D4
:101A2000AC8201A8FFF700FE1F48874202D1DDF813
:101A300010A001E0DDF80CA0A88900F4004040B13E
:101A40000AEBCA0000EB0A1031684900B0FBF1F85C
:101A500007E00AEBCA0000EB0A1031688900B0FB0E
:101A6000F1F86420B8FBF0F004012009642101FBC7
:101A70001089A88900F4004040B1322000EBC90071
:101A8000B0FBF1F000F00700044308E0322000EB67
:101A900009106421B0FBF1F000F00F0004432C8129
:101AA00006B0BDE8F0870000003801400146888894
:101AB000C0F30800704700BFFEE7014600BF704753
:101AC00015E0FF20FFF740F83F2802D1FF20FEF786
:101AD0008FFF0120064908603C2000F03BF8002001
:101AE0000449C1F8A0014FF46B7000F033F8E8E747
:101AF000A08121420080214210B56FF00400FFF761
:101B000073FE104800681049B0FBF1F00F490870EF
:101B10000C4800680C49B0FBF1F441F288304443B2
:101B200005200B4908804FF0E020006940F00200DA
:101B30004FF0E021086108464461006940F001006F
:101B4000086110BD0000002000127A00160000207D
:101B50001800002070B504460F480078A0B10F4867
:101B6000007888B90E480088844206DB0C4800885B
:101B700094FBF0F5284600F01DF80948008894FB16
:101B8000F0F100FB114084B24FF47A7104FB01F0D4
:101B900000F016F870BD00005E000020510000202B
:101BA0001800002010B5FEF7D9FD10BD10B5FEF7E6
:101BB000F5FD10BD10B504462046FFF777F910BDBE
:101BC0002DE9F047074600264FF0E020D0F81490AA
:101BD0001148007807FB00F800BFFFF7E3FF4FF064
:101BE000E020856911E04FF0E0208469AC420CD020
:101BF000AC4202D2281B064403E0A9EB04002844AF
:101C000006442546464500D300E0ECE700BFFFF759
:101C1000CDFFBDE8F08700001600002020E0002086
:101C2000FEF75AFC0446012C03D10720FFF7E8F821
:101C300013E0032C03D10720FEF7F6FF0DE0042C80
:101C400003D10520FEF780FF07E0022C05D1052314
:101C5000044A00210448FEF71DFE0A20FFF77AFF20
:101C6000DDE700007C030020C11A000814E00B48E7
:101C7000006808B9012000E0002008490860084811
:101C8000D0F8940108B9012000E00020054908605F
:101C90004FF4FA70FFF75EFFE9E7000094812142FC
:101CA000000023429401234210B5FFF725FF4FF4B3
:101CB000A060FEF7D7FC4FF4165000F045F8FEF791
:101CC0006FFCFEF731FBFEF7E9FBFEF7D5FC0A23BC
:101CD000044A00210448FEF7DDFDFEF78FFD0020D9
:101CE00010BD00007C010020ED1C000870B504460A
:101CF000002500BFFEF7A6FDFEF788FA054607237C
:101D00000B4A00210B48FEF7C5FD05230A4A0021B6
:101D10000A48FEF7BFFD0323094A00210948FEF7E0
:101D2000B9FD0A20FFF76CF82846FEF773FA70BD7C
:101D30007C0200206D1C00087C030020C11A0008F2
:101D40007C0400201D1C000810B586B0044601214B
:101D500044F20400FFF758FC4FF40070ADF8140093
:101D600003208DF8160018208DF8170005A91C48CF
:101D7000FEF7F9FA4FF48060ADF8140004208DF8F6
:101D8000170005A91648FEF7EEFA25208DF8000089
:101D900003208DF801008DF8020001208DF803006A
:101DA0006846FEF727FC01940020ADF80800ADF866
:101DB0000A00ADF80C00ADF810000C20ADF80E00D4
:101DC00001A90848FFF706FE012240F22551054807
:101DD000FFF7DAFD01210348FFF7A0FD06B010BDB3
:101DE000000801400038014000000100020001002D
:101DF00003000100020001000400010002000100D4
:101E000003000100020001000500010002000100C2
:101E100003000100020001000400010002000100B3
:101E200003000100020001000600010002000100A1
:101E30000300010002000100040001000200010093
:101E40000300010002000100050001000200010082
:101E50000300010002000100040001000200010073
:101E60000300010002000100070001000200010060
:101E70000300010002000100040001000200010053
:101E80000300010002000100050001000200010042
:101E90000300010002000100040001000200010033
:101EA0000300010002000100060001000200010021
:101EB0000300010002000100040001000200010013
:101EC0000300010002000100050001000200010002
:101ED00003000100020001000400010002000100F3
:101EE0000300010002000100081F0008000000209C
:101EF000800000006C010008881F0008800000209E
:101F0000A81500008801000800A24A040000000093
:101F10000000000001020304060708090100000098
:101F200000000000000000000000000000000102AE
:101F3000030401020304060708090204060800005E
:101F40000000000000000000000000000000000091
:101F50000000000000000000000000000000000081
:101F60000000000000000000000000000000000071
:101F70000000000000000000000000000000000061
:081F8000000000000000000059
:04000005080001CD21
:00000001FF
